{"contracts/OnChainTrader.sol":{"OnChainTrader":{"abi":[{"inputs":[{"internalType":"address","name":"_perpetualProxy","type":"address"}],"stateMutability":"nonpayable","type":"constructor"},{"anonymous":false,"inputs":[{"indexed":false,"internalType":"uint24","name":"perpetualId","type":"uint24"},{"indexed":false,"internalType":"address","name":"to","type":"address"},{"indexed":false,"internalType":"uint256","name":"amountDecN","type":"uint256"}],"name":"MarginTokenSent","type":"event"},{"anonymous":false,"inputs":[{"indexed":true,"internalType":"address","name":"previousOwner","type":"address"},{"indexed":true,"internalType":"address","name":"newOwner","type":"address"}],"name":"OwnershipTransferred","type":"event"},{"anonymous":false,"inputs":[{"indexed":false,"internalType":"uint24","name":"perpetualId","type":"uint24"},{"indexed":false,"internalType":"address","name":"lobAddr","type":"address"},{"indexed":false,"internalType":"address","name":"mgnTknAddrOfPool","type":"address"}],"name":"PerpetualAdded","type":"event"},{"anonymous":false,"inputs":[{"indexed":false,"internalType":"string","name":"reason","type":"string"}],"name":"PerpetualOrderSubmitFailed","type":"event"},{"anonymous":false,"inputs":[{"indexed":false,"internalType":"int256","name":"amountDec18","type":"int256"},{"indexed":false,"internalType":"uint16","name":"leverageTDR","type":"uint16"}],"name":"PerpetualOrderSubmitSuccess","type":"event"},{"inputs":[{"internalType":"uint24","name":"_iPerpetualId","type":"uint24"}],"name":"addPerpetual","outputs":[],"stateMutability":"nonpayable","type":"function"},{"inputs":[{"internalType":"uint256","name":"_amount","type":"uint256"},{"internalType":"uint24","name":"_iPerpetualId","type":"uint24"}],"name":"approveAmountForPerpetualMgnTkn","outputs":[],"stateMutability":"nonpayable","type":"function"},{"inputs":[{"internalType":"uint24","name":"_iPerpetualId","type":"uint24"}],"name":"getMarginAccount","outputs":[{"components":[{"internalType":"int256","name":"lockedInValueQCD18","type":"int256"},{"internalType":"int256","name":"cashCCD18","type":"int256"},{"internalType":"int256","name":"positionSizeBCD18","type":"int256"},{"internalType":"bytes16","name":"positionId","type":"bytes16"}],"internalType":"struct D18MarginAccount","name":"","type":"tuple"}],"stateMutability":"view","type":"function"},{"inputs":[{"internalType":"uint24","name":"_iPerpetualId","type":"uint24"},{"internalType":"bool","name":"isBuy","type":"bool"}],"name":"getMaxTradeAmount","outputs":[{"internalType":"int256","name":"","type":"int256"}],"stateMutability":"view","type":"function"},{"inputs":[{"internalType":"uint8","name":"","type":"uint8"}],"name":"mgnTknAddrOfPool","outputs":[{"internalType":"address","name":"","type":"address"}],"stateMutability":"view","type":"function"},{"inputs":[{"internalType":"uint24","name":"","type":"uint24"}],"name":"orderBookOfPerpetual","outputs":[{"internalType":"address","name":"","type":"address"}],"stateMutability":"view","type":"function"},{"inputs":[],"name":"owner","outputs":[{"internalType":"address","name":"","type":"address"}],"stateMutability":"view","type":"function"},{"inputs":[],"name":"perpetualProxy","outputs":[{"internalType":"address","name":"","type":"address"}],"stateMutability":"view","type":"function"},{"inputs":[{"internalType":"uint24","name":"_iPerpetualId","type":"uint24"},{"internalType":"int256","name":"_amountDec18","type":"int256"},{"internalType":"uint16","name":"_leverageTDR","type":"uint16"},{"internalType":"uint32","name":"_flags","type":"uint32"}],"name":"postOrder","outputs":[{"internalType":"bool","name":"","type":"bool"}],"stateMutability":"nonpayable","type":"function"},{"inputs":[],"name":"renounceOwnership","outputs":[],"stateMutability":"nonpayable","type":"function"},{"inputs":[{"internalType":"uint24","name":"_iPerpetualId","type":"uint24"}],"name":"transferMarginCollateralTo","outputs":[],"stateMutability":"nonpayable","type":"function"},{"inputs":[{"internalType":"address","name":"newOwner","type":"address"}],"name":"transferOwnership","outputs":[],"stateMutability":"nonpayable","type":"function"}],"devdoc":{"kind":"dev","methods":{"addPerpetual(uint24)":{"params":{"_iPerpetualId":"id of the perpetual to be traded"}},"approveAmountForPerpetualMgnTkn(uint256,uint24)":{"params":{"_amount":"spend amount"}},"getMarginAccount(uint24)":{"params":{"_iPerpetualId":"id of perpetual "}},"getMaxTradeAmount(uint24,bool)":{"params":{"_iPerpetualId":"id of perpetual","isBuy":"true if we go long, false if we go short"},"returns":{"_0":"signed maximal trade size (negative if resulting position is short, positive otherwise)"}},"owner()":{"details":"Returns the address of the current owner."},"postOrder(uint24,int256,uint16,uint32)":{"params":{"_amountDec18":"signed amount to be traded in base currency","_flags":"order-flags, can be left 0 for a market order","_iPerpetualId":"perpetual id for which we execute","_leverageTDR":"leverage two-digit-integer), e.g. 210 for 2.1x leverage"},"returns":{"_0":"true if posting order succeeded"}},"renounceOwnership()":{"details":"Leaves the contract without owner. It will not be possible to call `onlyOwner` functions anymore. Can only be called by the current owner. NOTE: Renouncing ownership will leave the contract without an owner, thereby removing any functionality that is only available to the owner."},"transferOwnership(address)":{"details":"Transfers ownership of the contract to a new account (`newOwner`). Can only be called by the current owner."}},"version":1},"evm":{"bytecode":{"linkReferences":{},"object":"60a060405234801561001057600080fd5b5060405162001b4e38038062001b4e8339810160408190526100319161009b565b61003a3361004b565b6001600160a01b03166080526100cb565b600080546001600160a01b038381166001600160a01b0319831681178455604051919092169283917f8be0079c531659141344cd1fd0a4f28419497f9722a3daafe3b4186f6b6457e09190a35050565b6000602082840312156100ad57600080fd5b81516001600160a01b03811681146100c457600080fd5b9392505050565b608051611a3d620001116000396000818161015a015281816102a00152818161034c015281816105a0015281816109ce01528181610af60152610be40152611a3d6000f3fe608060405234801561001057600080fd5b50600436106100d45760003560e01c8063715018a611610081578063b1bd155e1161005b578063b1bd155e14610224578063ba0e939914610237578063f2fde38b1461026057600080fd5b8063715018a6146101b25780638da5cb5b146101ba5780639fbb0a3b146101cb57600080fd5b80633e99a53b116100b25780633e99a53b146101555780635db35a041461017c57806362bcc2581461018f57600080fd5b80630330d0c0146100d95780630df3ad4c1461011f578063230f238414610140575b600080fd5b6101026100e73660046111bf565b6001602052600090815260409020546001600160a01b031681565b6040516001600160a01b0390911681526020015b60405180910390f35b61013261012d3660046111e8565b610273565b604051908152602001610116565b61015361014e3660046111bf565b6103cd565b005b6101027f000000000000000000000000000000000000000000000000000000000000000081565b61015361018a36600461121f565b61051f565b6101a261019d36600461125b565b610623565b6040519015158152602001610116565b610153610907565b6000546001600160a01b0316610102565b6101de6101d93660046111bf565b61096d565b60405161011691908151815260208083015190820152604080830151908201526060918201516fffffffffffffffffffffffffffffffff19169181019190915260800190565b6101536102323660046111bf565b610ad9565b6101026102453660046112c4565b6002602052600090815260409020546001600160a01b031681565b61015361026e3660046112f6565b610cf7565b604051633d53a26b60e11b815262ffffff8316600482015230602482015260009081906001600160a01b037f00000000000000000000000000000000000000000000000000000000000000001690637aa744d69060440161010060405180830381865afa1580156102e8573d6000803e3d6000fd5b505050506040513d601f19601f8201168201806040525081019061030c91906113dc565b6040808201519051633ef0eb0f60e21b815262ffffff87166004820152600f9190910b602482015284151560448201529091506000906001600160a01b037f0000000000000000000000000000000000000000000000000000000000000000169063fbc3ac3c90606401602060405180830381865afa158015610393573d6000803e3d6000fd5b505050506040513d601f19601f820116820180604052508101906103b791906114af565b90506103c281610dc2565b925050505b92915050565b6000546001600160a01b0316331461042c5760405162461bcd60e51b815260206004820181905260248201527f4f776e61626c653a2063616c6c6572206973206e6f7420746865206f776e657260448201526064015b60405180910390fd5b600061043b620186a0836114f6565b60ff81166000908152600260205260408082205490516370a0823160e01b81523060048201529293506001600160a01b03169182919082906370a0823190602401602060405180830381865afa158015610499573d6000803e3d6000fd5b505050506040513d601f19601f820116820180604052508101906104bd9190611518565b90506104d36001600160a01b0383163383610dee565b6040805162ffffff871681523360208201529081018290527fd7089a64efa4caccaea095308c4da0682a70797771cee9b36ab4a639054035929060600160405180910390a15050505050565b600061052e620186a0836114f6565b60ff81166000908152600260205260409020549091506001600160a01b0316806105895760405162461bcd60e51b815260206004820152600c60248201526b736574206f6220616464727360a01b6044820152606401610423565b60405163095ea7b360e01b81526001600160a01b037f0000000000000000000000000000000000000000000000000000000000000000811660048301526024820186905282169063095ea7b3906044016020604051808303816000875af11580156105f8573d6000803e3d6000fd5b505050506040513d601f19601f8201168201806040525081019061061c919061153c565b5050505050565b600080546001600160a01b0316331461067e5760405162461bcd60e51b815260206004820181905260248201527f4f776e61626c653a2063616c6c6572206973206e6f7420746865206f776e65726044820152606401610423565b62ffffff85166000908152600160205260409020546001600160a01b0316806106e95760405162461bcd60e51b815260206004820152601260248201527f6f7264657220626f6f6b20756e6b6e6f776e00000000000000000000000000006044820152606401610423565b60006106f486610e5a565b90508363ffffffff1660000361070c57634000000093505b604080516101c081018252600060208201819052918101829052606080820183905260a0820183905260c0820183905260e082018390526101208201839052610160820183905261018082018390526101a082015263ffffffff8616608082015262ffffff8916815230610140820152600f83900b61010082018190529091126107975760006107a9565b6f7fffffffffffffffffffffffffffffff5b600f0b602082015261ffff861660408201526107c8426203f480611559565b63ffffffff90811660a0830152421660608201526040805160208101825260008152905163489cc5e960e01b81526001600160a01b0385169163489cc5e9916108159185916004016115bc565b600060405180830381600087803b15801561082f57600080fd5b505af1925050508015610840575060015b6108bb5761084c611705565b806308c379a0036108af5750610860611721565b8061086b57506108b1565b7f2858238d037e52471d3ad4944d280cdb1fd3b479a3fdf698bb04e99572e6efa88160405161089a91906117ab565b60405180910390a160009450505050506108ff565b505b3d6000803e3d6000fd5b6040805188815261ffff881660208201527f742895f70ed9b3e00487db3827a00b9c91de8360cd96129050b8a82c99de4862910160405180910390a1600193505050505b949350505050565b6000546001600160a01b031633146109615760405162461bcd60e51b815260206004820181905260248201527f4f776e61626c653a2063616c6c6572206973206e6f7420746865206f776e65726044820152606401610423565b61096b6000610f02565b565b6109ab604051806080016040528060008152602001600081526020016000815260200160006fffffffffffffffffffffffffffffffff191681525090565b604051633d53a26b60e11b815262ffffff831660048201523060248201526000907f00000000000000000000000000000000000000000000000000000000000000006001600160a01b031690637aa744d69060440161010060405180830381865afa158015610a1e573d6000803e3d6000fd5b505050506040513d601f19601f82011682018060405250810190610a4291906113dc565b9050610a82604051806080016040528060008152602001600081526020016000815260200160006fffffffffffffffffffffffffffffffff191681525090565b8151610a8d90610dc2565b81526020820151610a9d90610dc2565b60208201526040820151610ab090610dc2565b604082015260e0909101516fffffffffffffffffffffffffffffffff1916606082015292915050565b60405163079e02e960e21b815262ffffff821660048201526000907f00000000000000000000000000000000000000000000000000000000000000006001600160a01b031690631e780ba490602401602060405180830381865afa158015610b45573d6000803e3d6000fd5b505050506040513d601f19601f82011682018060405250810190610b6991906117c9565b62ffffff8316600090815260016020526040812080546001600160a01b0319166001600160a01b038416179055909150610ba6620186a0846114f6565b60ff81166000908152600260205260409020549091506001600160a01b0316610c8d57604051631857be3960e11b815260ff821660048201526000907f00000000000000000000000000000000000000000000000000000000000000006001600160a01b0316906330af7c729060240161026060405180830381865afa158015610c34573d6000803e3d6000fd5b505050506040513d601f19601f82011682018060405250810190610c589190611823565b60c0015160ff8316600090815260026020526040902080546001600160a01b0319166001600160a01b03909216919091179055505b60ff811660009081526002602090815260409182902054825162ffffff871681526001600160a01b038681169382019390935291168183015290517f5222a91cec499c7c85c5fcb8b8ddfb81880ec40273d8cda372740d8a97fa6ec79181900360600190a1505050565b6000546001600160a01b03163314610d515760405162461bcd60e51b815260206004820181905260248201527f4f776e61626c653a2063616c6c6572206973206e6f7420746865206f776e65726044820152606401610423565b6001600160a01b038116610db65760405162461bcd60e51b815260206004820152602660248201527f4f776e61626c653a206e6577206f776e657220697320746865207a65726f206160448201526564647265737360d01b6064820152608401610423565b610dbf81610f02565b50565b600068010000000000000000610de4670de0b6b3a7640000600f85900b61198d565b6103c791906119bd565b604080516001600160a01b038416602482015260448082018490528251808303909101815260649091019091526020810180517bffffffffffffffffffffffffffffffffffffffffffffffffffffffff1663a9059cbb60e01b179052610e55908490610f52565b505050565b600080670de0b6b3a7640000610e79680100000000000000008561198d565b610e8391906119bd565b90506f7fffffffffffffffffffffffffffffff198312801590610eb657506f7fffffffffffffffffffffffffffffff8313155b6103c75760405162461bcd60e51b815260206004820152601360248201527f726573756c74206f7574206f662072616e6765000000000000000000000000006044820152606401610423565b600080546001600160a01b038381166001600160a01b0319831681178455604051919092169283917f8be0079c531659141344cd1fd0a4f28419497f9722a3daafe3b4186f6b6457e09190a35050565b6000610fa7826040518060400160405280602081526020017f5361666545524332303a206c6f772d6c6576656c2063616c6c206661696c6564815250856001600160a01b03166110249092919063ffffffff16565b805190915015610e555780806020019051810190610fc5919061153c565b610e555760405162461bcd60e51b815260206004820152602a60248201527f5361666545524332303a204552433230206f7065726174696f6e20646964206e6044820152691bdd081cdd58d8d9595960b21b6064820152608401610423565b6060611033848460008561103d565b90505b9392505050565b60608247101561109e5760405162461bcd60e51b815260206004820152602660248201527f416464726573733a20696e73756666696369656e742062616c616e636520666f6044820152651c8818d85b1b60d21b6064820152608401610423565b6001600160a01b0385163b6110f55760405162461bcd60e51b815260206004820152601d60248201527f416464726573733a2063616c6c20746f206e6f6e2d636f6e74726163740000006044820152606401610423565b600080866001600160a01b0316858760405161111191906119eb565b60006040518083038185875af1925050503d806000811461114e576040519150601f19603f3d011682016040523d82523d6000602084013e611153565b606091505b509150915061116382828661116e565b979650505050505050565b6060831561117d575081611036565b82511561118d5782518084602001fd5b8160405162461bcd60e51b815260040161042391906117ab565b803562ffffff811681146111ba57600080fd5b919050565b6000602082840312156111d157600080fd5b611036826111a7565b8015158114610dbf57600080fd5b600080604083850312156111fb57600080fd5b611204836111a7565b91506020830135611214816111da565b809150509250929050565b6000806040838503121561123257600080fd5b82359150611242602084016111a7565b90509250929050565b61ffff81168114610dbf57600080fd5b6000806000806080858703121561127157600080fd5b61127a856111a7565b93506020850135925060408501356112918161124b565b9150606085013563ffffffff811681146112aa57600080fd5b939692955090935050565b60ff81168114610dbf57600080fd5b6000602082840312156112d657600080fd5b8135611036816112b5565b6001600160a01b0381168114610dbf57600080fd5b60006020828403121561130857600080fd5b8135611036816112e1565b601f8201601f1916810167ffffffffffffffff8111828210171561134757634e487b7160e01b600052604160045260246000fd5b6040525050565b604051610260810167ffffffffffffffff8111828210171561138057634e487b7160e01b600052604160045260246000fd5b60405290565b8051600f81900b81146111ba57600080fd5b805167ffffffffffffffff811681146111ba57600080fd5b80516111ba8161124b565b80516fffffffffffffffffffffffffffffffff19811681146111ba57600080fd5b60006101008083850312156113f057600080fd5b6040519081019067ffffffffffffffff8211818310171561142157634e487b7160e01b600052604160045260246000fd5b8160405261142e84611386565b815261143c60208501611386565b602082015261144d60408501611386565b604082015261145e60608501611386565b606082015261146f60808501611398565b608082015261148060a085016113b0565b60a082015261149160c085016113b0565b60c08201526114a260e085016113bb565b60e0820152949350505050565b6000602082840312156114c157600080fd5b61103682611386565b634e487b7160e01b600052601260045260246000fd5b634e487b7160e01b600052601160045260246000fd5b600062ffffff8084168061150c5761150c6114ca565b92169190910492915050565b60006020828403121561152a57600080fd5b5051919050565b80516111ba816111da565b60006020828403121561154e57600080fd5b8151611036816111da565b808201808211156103c7576103c76114e0565b60005b8381101561158757818101518382015260200161156f565b50506000910152565b600081518084526115a881602086016020860161156c565b601f01601f19169290920160200192915050565b604081526115d260408201845162ffffff169052565b600060208401516115e86060840182600f0b9052565b50604084015161ffff8116608084015250606084015163ffffffff811660a084015250608084015163ffffffff811660c08401525060a084015163ffffffff811660e08401525060c084015161010061164b818501836001600160a01b03169052565b60e0860151915061012061166381860184600f0b9052565b9086015191506101409061167b85830184600f0b9052565b86015161016085810191909152908601519150610180906116a6828601846001600160a01b03169052565b8601516101a0858101919091529086015191506101c0906116cc8286018461ffff169052565b8601516101e085019190915290506116e8610200840182611590565b905082810360208401526116fc8185611590565b95945050505050565b600060033d111561171e5760046000803e5060005160e01c5b90565b600060443d101561172f5790565b6040516003193d81016004833e81513d67ffffffffffffffff816024840111818411171561175f57505050505090565b82850191508151818111156117775750505050505090565b843d87010160208285010111156117915750505050505090565b6117a060208286010187611313565b509095945050505050565b6020815260006110366020830184611590565b80516111ba816112e1565b6000602082840312156117db57600080fd5b8151611036816112e1565b80516111ba816112b5565b8051600381900b81146111ba57600080fd5b80516fffffffffffffffffffffffffffffffff811681146111ba57600080fd5b6000610260828403121561183657600080fd5b61183e61134e565b61184783611531565b8152611855602084016117e6565b6020820152611866604084016117e6565b6040820152611877606084016117f1565b6060820152611888608084016117e6565b608082015261189960a084016113b0565b60a08201526118aa60c084016117be565b60c08201526118bb60e08401611398565b60e08201526101006118ce818501611386565b908201526101206118e08482016117be565b908201526101406118f2848201611386565b90820152610160611904848201611386565b90820152610180611916848201611386565b908201526101a0611928848201611386565b908201526101c061193a848201611386565b908201526101e061194c848201611803565b9082015261020061195e848201611803565b90820152610220611970848201611803565b90820152610240611982848201611386565b908201529392505050565b80820260008212600160ff1b841416156119a9576119a96114e0565b81810583148215176103c7576103c76114e0565b6000826119cc576119cc6114ca565b600160ff1b8214600019841416156119e6576119e66114e0565b500590565b600082516119fd81846020870161156c565b919091019291505056fea264697066735822122044e981601be4708bddca168ed09f7918febf6a576fcc3dc5a89777cc197ea44164736f6c63430008130033","opcodes":"PUSH1 0xA0 PUSH1 0x40 MSTORE CALLVALUE DUP1 ISZERO PUSH2 0x10 JUMPI PUSH1 0x0 DUP1 REVERT JUMPDEST POP PUSH1 0x40 MLOAD PUSH3 0x1B4E CODESIZE SUB DUP1 PUSH3 0x1B4E DUP4 CODECOPY DUP2 ADD PUSH1 0x40 DUP2 SWAP1 MSTORE PUSH2 0x31 SWAP2 PUSH2 0x9B JUMP JUMPDEST PUSH2 0x3A CALLER PUSH2 0x4B JUMP JUMPDEST PUSH1 0x1 PUSH1 0x1 PUSH1 0xA0 SHL SUB AND PUSH1 0x80 MSTORE PUSH2 0xCB JUMP JUMPDEST PUSH1 0x0 DUP1 SLOAD PUSH1 0x1 PUSH1 0x1 PUSH1 0xA0 SHL SUB DUP4 DUP2 AND PUSH1 0x1 PUSH1 0x1 PUSH1 0xA0 SHL SUB NOT DUP4 AND DUP2 OR DUP5 SSTORE PUSH1 0x40 MLOAD SWAP2 SWAP1 SWAP3 AND SWAP3 DUP4 SWAP2 PUSH32 0x8BE0079C531659141344CD1FD0A4F28419497F9722A3DAAFE3B4186F6B6457E0 SWAP2 SWAP1 LOG3 POP POP JUMP JUMPDEST PUSH1 0x0 PUSH1 0x20 DUP3 DUP5 SUB SLT ISZERO PUSH2 0xAD JUMPI PUSH1 0x0 DUP1 REVERT JUMPDEST DUP2 MLOAD PUSH1 0x1 PUSH1 0x1 PUSH1 0xA0 SHL SUB DUP2 AND DUP2 EQ PUSH2 0xC4 JUMPI PUSH1 0x0 DUP1 REVERT JUMPDEST SWAP4 SWAP3 POP POP POP JUMP JUMPDEST PUSH1 0x80 MLOAD PUSH2 0x1A3D PUSH3 0x111 PUSH1 0x0 CODECOPY PUSH1 0x0 DUP2 DUP2 PUSH2 0x15A ADD MSTORE DUP2 DUP2 PUSH2 0x2A0 ADD MSTORE DUP2 DUP2 PUSH2 0x34C ADD MSTORE DUP2 DUP2 PUSH2 0x5A0 ADD MSTORE DUP2 DUP2 PUSH2 0x9CE ADD MSTORE DUP2 DUP2 PUSH2 0xAF6 ADD MSTORE PUSH2 0xBE4 ADD MSTORE PUSH2 0x1A3D PUSH1 0x0 RETURN INVALID PUSH1 0x80 PUSH1 0x40 MSTORE CALLVALUE DUP1 ISZERO PUSH2 0x10 JUMPI PUSH1 0x0 DUP1 REVERT JUMPDEST POP PUSH1 0x4 CALLDATASIZE LT PUSH2 0xD4 JUMPI PUSH1 0x0 CALLDATALOAD PUSH1 0xE0 SHR DUP1 PUSH4 0x715018A6 GT PUSH2 0x81 JUMPI DUP1 PUSH4 0xB1BD155E GT PUSH2 0x5B JUMPI DUP1 PUSH4 0xB1BD155E EQ PUSH2 0x224 JUMPI DUP1 PUSH4 0xBA0E9399 EQ PUSH2 0x237 JUMPI DUP1 PUSH4 0xF2FDE38B EQ PUSH2 0x260 JUMPI PUSH1 0x0 DUP1 REVERT JUMPDEST DUP1 PUSH4 0x715018A6 EQ PUSH2 0x1B2 JUMPI DUP1 PUSH4 0x8DA5CB5B EQ PUSH2 0x1BA JUMPI DUP1 PUSH4 0x9FBB0A3B EQ PUSH2 0x1CB JUMPI PUSH1 0x0 DUP1 REVERT JUMPDEST DUP1 PUSH4 0x3E99A53B GT PUSH2 0xB2 JUMPI DUP1 PUSH4 0x3E99A53B EQ PUSH2 0x155 JUMPI DUP1 PUSH4 0x5DB35A04 EQ PUSH2 0x17C JUMPI DUP1 PUSH4 0x62BCC258 EQ PUSH2 0x18F JUMPI PUSH1 0x0 DUP1 REVERT JUMPDEST DUP1 PUSH4 0x330D0C0 EQ PUSH2 0xD9 JUMPI DUP1 PUSH4 0xDF3AD4C EQ PUSH2 0x11F JUMPI DUP1 PUSH4 0x230F2384 EQ PUSH2 0x140 JUMPI JUMPDEST PUSH1 0x0 DUP1 REVERT JUMPDEST PUSH2 0x102 PUSH2 0xE7 CALLDATASIZE PUSH1 0x4 PUSH2 0x11BF JUMP JUMPDEST PUSH1 0x1 PUSH1 0x20 MSTORE PUSH1 0x0 SWAP1 DUP2 MSTORE PUSH1 0x40 SWAP1 KECCAK256 SLOAD PUSH1 0x1 PUSH1 0x1 PUSH1 0xA0 SHL SUB AND DUP2 JUMP JUMPDEST PUSH1 0x40 MLOAD PUSH1 0x1 PUSH1 0x1 PUSH1 0xA0 SHL SUB SWAP1 SWAP2 AND DUP2 MSTORE PUSH1 0x20 ADD JUMPDEST PUSH1 0x40 MLOAD DUP1 SWAP2 SUB SWAP1 RETURN JUMPDEST PUSH2 0x132 PUSH2 0x12D CALLDATASIZE PUSH1 0x4 PUSH2 0x11E8 JUMP JUMPDEST PUSH2 0x273 JUMP JUMPDEST PUSH1 0x40 MLOAD SWAP1 DUP2 MSTORE PUSH1 0x20 ADD PUSH2 0x116 JUMP JUMPDEST PUSH2 0x153 PUSH2 0x14E CALLDATASIZE PUSH1 0x4 PUSH2 0x11BF JUMP JUMPDEST PUSH2 0x3CD JUMP JUMPDEST STOP JUMPDEST PUSH2 0x102 PUSH32 0x0 DUP2 JUMP JUMPDEST PUSH2 0x153 PUSH2 0x18A CALLDATASIZE PUSH1 0x4 PUSH2 0x121F JUMP JUMPDEST PUSH2 0x51F JUMP JUMPDEST PUSH2 0x1A2 PUSH2 0x19D CALLDATASIZE PUSH1 0x4 PUSH2 0x125B JUMP JUMPDEST PUSH2 0x623 JUMP JUMPDEST PUSH1 0x40 MLOAD SWAP1 ISZERO ISZERO DUP2 MSTORE PUSH1 0x20 ADD PUSH2 0x116 JUMP JUMPDEST PUSH2 0x153 PUSH2 0x907 JUMP JUMPDEST PUSH1 0x0 SLOAD PUSH1 0x1 PUSH1 0x1 PUSH1 0xA0 SHL SUB AND PUSH2 0x102 JUMP JUMPDEST PUSH2 0x1DE PUSH2 0x1D9 CALLDATASIZE PUSH1 0x4 PUSH2 0x11BF JUMP JUMPDEST PUSH2 0x96D JUMP JUMPDEST PUSH1 0x40 MLOAD PUSH2 0x116 SWAP2 SWAP1 DUP2 MLOAD DUP2 MSTORE PUSH1 0x20 DUP1 DUP4 ADD MLOAD SWAP1 DUP3 ADD MSTORE PUSH1 0x40 DUP1 DUP4 ADD MLOAD SWAP1 DUP3 ADD MSTORE PUSH1 0x60 SWAP2 DUP3 ADD MLOAD PUSH16 0xFFFFFFFFFFFFFFFFFFFFFFFFFFFFFFFF NOT AND SWAP2 DUP2 ADD SWAP2 SWAP1 SWAP2 MSTORE PUSH1 0x80 ADD SWAP1 JUMP JUMPDEST PUSH2 0x153 PUSH2 0x232 CALLDATASIZE PUSH1 0x4 PUSH2 0x11BF JUMP JUMPDEST PUSH2 0xAD9 JUMP JUMPDEST PUSH2 0x102 PUSH2 0x245 CALLDATASIZE PUSH1 0x4 PUSH2 0x12C4 JUMP JUMPDEST PUSH1 0x2 PUSH1 0x20 MSTORE PUSH1 0x0 SWAP1 DUP2 MSTORE PUSH1 0x40 SWAP1 KECCAK256 SLOAD PUSH1 0x1 PUSH1 0x1 PUSH1 0xA0 SHL SUB AND DUP2 JUMP JUMPDEST PUSH2 0x153 PUSH2 0x26E CALLDATASIZE PUSH1 0x4 PUSH2 0x12F6 JUMP JUMPDEST PUSH2 0xCF7 JUMP JUMPDEST PUSH1 0x40 MLOAD PUSH4 0x3D53A26B PUSH1 0xE1 SHL DUP2 MSTORE PUSH3 0xFFFFFF DUP4 AND PUSH1 0x4 DUP3 ADD MSTORE ADDRESS PUSH1 0x24 DUP3 ADD MSTORE PUSH1 0x0 SWAP1 DUP2 SWAP1 PUSH1 0x1 PUSH1 0x1 PUSH1 0xA0 SHL SUB PUSH32 0x0 AND SWAP1 PUSH4 0x7AA744D6 SWAP1 PUSH1 0x44 ADD PUSH2 0x100 PUSH1 0x40 MLOAD DUP1 DUP4 SUB DUP2 DUP7 GAS STATICCALL ISZERO DUP1 ISZERO PUSH2 0x2E8 JUMPI RETURNDATASIZE PUSH1 0x0 DUP1 RETURNDATACOPY RETURNDATASIZE PUSH1 0x0 REVERT JUMPDEST POP POP POP POP PUSH1 0x40 MLOAD RETURNDATASIZE PUSH1 0x1F NOT PUSH1 0x1F DUP3 ADD AND DUP3 ADD DUP1 PUSH1 0x40 MSTORE POP DUP2 ADD SWAP1 PUSH2 0x30C SWAP2 SWAP1 PUSH2 0x13DC JUMP JUMPDEST PUSH1 0x40 DUP1 DUP3 ADD MLOAD SWAP1 MLOAD PUSH4 0x3EF0EB0F PUSH1 0xE2 SHL DUP2 MSTORE PUSH3 0xFFFFFF DUP8 AND PUSH1 0x4 DUP3 ADD MSTORE PUSH1 0xF SWAP2 SWAP1 SWAP2 SIGNEXTEND PUSH1 0x24 DUP3 ADD MSTORE DUP5 ISZERO ISZERO PUSH1 0x44 DUP3 ADD MSTORE SWAP1 SWAP2 POP PUSH1 0x0 SWAP1 PUSH1 0x1 PUSH1 0x1 PUSH1 0xA0 SHL SUB PUSH32 0x0 AND SWAP1 PUSH4 0xFBC3AC3C SWAP1 PUSH1 0x64 ADD PUSH1 0x20 PUSH1 0x40 MLOAD DUP1 DUP4 SUB DUP2 DUP7 GAS STATICCALL ISZERO DUP1 ISZERO PUSH2 0x393 JUMPI RETURNDATASIZE PUSH1 0x0 DUP1 RETURNDATACOPY RETURNDATASIZE PUSH1 0x0 REVERT JUMPDEST POP POP POP POP PUSH1 0x40 MLOAD RETURNDATASIZE PUSH1 0x1F NOT PUSH1 0x1F DUP3 ADD AND DUP3 ADD DUP1 PUSH1 0x40 MSTORE POP DUP2 ADD SWAP1 PUSH2 0x3B7 SWAP2 SWAP1 PUSH2 0x14AF JUMP JUMPDEST SWAP1 POP PUSH2 0x3C2 DUP2 PUSH2 0xDC2 JUMP JUMPDEST SWAP3 POP POP POP JUMPDEST SWAP3 SWAP2 POP POP JUMP JUMPDEST PUSH1 0x0 SLOAD PUSH1 0x1 PUSH1 0x1 PUSH1 0xA0 SHL SUB AND CALLER EQ PUSH2 0x42C JUMPI PUSH1 0x40 MLOAD PUSH3 0x461BCD PUSH1 0xE5 SHL DUP2 MSTORE PUSH1 0x20 PUSH1 0x4 DUP3 ADD DUP2 SWAP1 MSTORE PUSH1 0x24 DUP3 ADD MSTORE PUSH32 0x4F776E61626C653A2063616C6C6572206973206E6F7420746865206F776E6572 PUSH1 0x44 DUP3 ADD MSTORE PUSH1 0x64 ADD JUMPDEST PUSH1 0x40 MLOAD DUP1 SWAP2 SUB SWAP1 REVERT JUMPDEST PUSH1 0x0 PUSH2 0x43B PUSH3 0x186A0 DUP4 PUSH2 0x14F6 JUMP JUMPDEST PUSH1 0xFF DUP2 AND PUSH1 0x0 SWAP1 DUP2 MSTORE PUSH1 0x2 PUSH1 0x20 MSTORE PUSH1 0x40 DUP1 DUP3 KECCAK256 SLOAD SWAP1 MLOAD PUSH4 0x70A08231 PUSH1 0xE0 SHL DUP2 MSTORE ADDRESS PUSH1 0x4 DUP3 ADD MSTORE SWAP3 SWAP4 POP PUSH1 0x1 PUSH1 0x1 PUSH1 0xA0 SHL SUB AND SWAP2 DUP3 SWAP2 SWAP1 DUP3 SWAP1 PUSH4 0x70A08231 SWAP1 PUSH1 0x24 ADD PUSH1 0x20 PUSH1 0x40 MLOAD DUP1 DUP4 SUB DUP2 DUP7 GAS STATICCALL ISZERO DUP1 ISZERO PUSH2 0x499 JUMPI RETURNDATASIZE PUSH1 0x0 DUP1 RETURNDATACOPY RETURNDATASIZE PUSH1 0x0 REVERT JUMPDEST POP POP POP POP PUSH1 0x40 MLOAD RETURNDATASIZE PUSH1 0x1F NOT PUSH1 0x1F DUP3 ADD AND DUP3 ADD DUP1 PUSH1 0x40 MSTORE POP DUP2 ADD SWAP1 PUSH2 0x4BD SWAP2 SWAP1 PUSH2 0x1518 JUMP JUMPDEST SWAP1 POP PUSH2 0x4D3 PUSH1 0x1 PUSH1 0x1 PUSH1 0xA0 SHL SUB DUP4 AND CALLER DUP4 PUSH2 0xDEE JUMP JUMPDEST PUSH1 0x40 DUP1 MLOAD PUSH3 0xFFFFFF DUP8 AND DUP2 MSTORE CALLER PUSH1 0x20 DUP3 ADD MSTORE SWAP1 DUP2 ADD DUP3 SWAP1 MSTORE PUSH32 0xD7089A64EFA4CACCAEA095308C4DA0682A70797771CEE9B36AB4A63905403592 SWAP1 PUSH1 0x60 ADD PUSH1 0x40 MLOAD DUP1 SWAP2 SUB SWAP1 LOG1 POP POP POP POP POP JUMP JUMPDEST PUSH1 0x0 PUSH2 0x52E PUSH3 0x186A0 DUP4 PUSH2 0x14F6 JUMP JUMPDEST PUSH1 0xFF DUP2 AND PUSH1 0x0 SWAP1 DUP2 MSTORE PUSH1 0x2 PUSH1 0x20 MSTORE PUSH1 0x40 SWAP1 KECCAK256 SLOAD SWAP1 SWAP2 POP PUSH1 0x1 PUSH1 0x1 PUSH1 0xA0 SHL SUB AND DUP1 PUSH2 0x589 JUMPI PUSH1 0x40 MLOAD PUSH3 0x461BCD PUSH1 0xE5 SHL DUP2 MSTORE PUSH1 0x20 PUSH1 0x4 DUP3 ADD MSTORE PUSH1 0xC PUSH1 0x24 DUP3 ADD MSTORE PUSH12 0x736574206F62206164647273 PUSH1 0xA0 SHL PUSH1 0x44 DUP3 ADD MSTORE PUSH1 0x64 ADD PUSH2 0x423 JUMP JUMPDEST PUSH1 0x40 MLOAD PUSH4 0x95EA7B3 PUSH1 0xE0 SHL DUP2 MSTORE PUSH1 0x1 PUSH1 0x1 PUSH1 0xA0 SHL SUB PUSH32 0x0 DUP2 AND PUSH1 0x4 DUP4 ADD MSTORE PUSH1 0x24 DUP3 ADD DUP7 SWAP1 MSTORE DUP3 AND SWAP1 PUSH4 0x95EA7B3 SWAP1 PUSH1 0x44 ADD PUSH1 0x20 PUSH1 0x40 MLOAD DUP1 DUP4 SUB DUP2 PUSH1 0x0 DUP8 GAS CALL ISZERO DUP1 ISZERO PUSH2 0x5F8 JUMPI RETURNDATASIZE PUSH1 0x0 DUP1 RETURNDATACOPY RETURNDATASIZE PUSH1 0x0 REVERT JUMPDEST POP POP POP POP PUSH1 0x40 MLOAD RETURNDATASIZE PUSH1 0x1F NOT PUSH1 0x1F DUP3 ADD AND DUP3 ADD DUP1 PUSH1 0x40 MSTORE POP DUP2 ADD SWAP1 PUSH2 0x61C SWAP2 SWAP1 PUSH2 0x153C JUMP JUMPDEST POP POP POP POP POP JUMP JUMPDEST PUSH1 0x0 DUP1 SLOAD PUSH1 0x1 PUSH1 0x1 PUSH1 0xA0 SHL SUB AND CALLER EQ PUSH2 0x67E JUMPI PUSH1 0x40 MLOAD PUSH3 0x461BCD PUSH1 0xE5 SHL DUP2 MSTORE PUSH1 0x20 PUSH1 0x4 DUP3 ADD DUP2 SWAP1 MSTORE PUSH1 0x24 DUP3 ADD MSTORE PUSH32 0x4F776E61626C653A2063616C6C6572206973206E6F7420746865206F776E6572 PUSH1 0x44 DUP3 ADD MSTORE PUSH1 0x64 ADD PUSH2 0x423 JUMP JUMPDEST PUSH3 0xFFFFFF DUP6 AND PUSH1 0x0 SWAP1 DUP2 MSTORE PUSH1 0x1 PUSH1 0x20 MSTORE PUSH1 0x40 SWAP1 KECCAK256 SLOAD PUSH1 0x1 PUSH1 0x1 PUSH1 0xA0 SHL SUB AND DUP1 PUSH2 0x6E9 JUMPI PUSH1 0x40 MLOAD PUSH3 0x461BCD PUSH1 0xE5 SHL DUP2 MSTORE PUSH1 0x20 PUSH1 0x4 DUP3 ADD MSTORE PUSH1 0x12 PUSH1 0x24 DUP3 ADD MSTORE PUSH32 0x6F7264657220626F6F6B20756E6B6E6F776E0000000000000000000000000000 PUSH1 0x44 DUP3 ADD MSTORE PUSH1 0x64 ADD PUSH2 0x423 JUMP JUMPDEST PUSH1 0x0 PUSH2 0x6F4 DUP7 PUSH2 0xE5A JUMP JUMPDEST SWAP1 POP DUP4 PUSH4 0xFFFFFFFF AND PUSH1 0x0 SUB PUSH2 0x70C JUMPI PUSH4 0x40000000 SWAP4 POP JUMPDEST PUSH1 0x40 DUP1 MLOAD PUSH2 0x1C0 DUP2 ADD DUP3 MSTORE PUSH1 0x0 PUSH1 0x20 DUP3 ADD DUP2 SWAP1 MSTORE SWAP2 DUP2 ADD DUP3 SWAP1 MSTORE PUSH1 0x60 DUP1 DUP3 ADD DUP4 SWAP1 MSTORE PUSH1 0xA0 DUP3 ADD DUP4 SWAP1 MSTORE PUSH1 0xC0 DUP3 ADD DUP4 SWAP1 MSTORE PUSH1 0xE0 DUP3 ADD DUP4 SWAP1 MSTORE PUSH2 0x120 DUP3 ADD DUP4 SWAP1 MSTORE PUSH2 0x160 DUP3 ADD DUP4 SWAP1 MSTORE PUSH2 0x180 DUP3 ADD DUP4 SWAP1 MSTORE PUSH2 0x1A0 DUP3 ADD MSTORE PUSH4 0xFFFFFFFF DUP7 AND PUSH1 0x80 DUP3 ADD MSTORE PUSH3 0xFFFFFF DUP10 AND DUP2 MSTORE ADDRESS PUSH2 0x140 DUP3 ADD MSTORE PUSH1 0xF DUP4 SWAP1 SIGNEXTEND PUSH2 0x100 DUP3 ADD DUP2 SWAP1 MSTORE SWAP1 SWAP2 SLT PUSH2 0x797 JUMPI PUSH1 0x0 PUSH2 0x7A9 JUMP JUMPDEST PUSH16 0x7FFFFFFFFFFFFFFFFFFFFFFFFFFFFFFF JUMPDEST PUSH1 0xF SIGNEXTEND PUSH1 0x20 DUP3 ADD MSTORE PUSH2 0xFFFF DUP7 AND PUSH1 0x40 DUP3 ADD MSTORE PUSH2 0x7C8 TIMESTAMP PUSH3 0x3F480 PUSH2 0x1559 JUMP JUMPDEST PUSH4 0xFFFFFFFF SWAP1 DUP2 AND PUSH1 0xA0 DUP4 ADD MSTORE TIMESTAMP AND PUSH1 0x60 DUP3 ADD MSTORE PUSH1 0x40 DUP1 MLOAD PUSH1 0x20 DUP2 ADD DUP3 MSTORE PUSH1 0x0 DUP2 MSTORE SWAP1 MLOAD PUSH4 0x489CC5E9 PUSH1 0xE0 SHL DUP2 MSTORE PUSH1 0x1 PUSH1 0x1 PUSH1 0xA0 SHL SUB DUP6 AND SWAP2 PUSH4 0x489CC5E9 SWAP2 PUSH2 0x815 SWAP2 DUP6 SWAP2 PUSH1 0x4 ADD PUSH2 0x15BC JUMP JUMPDEST PUSH1 0x0 PUSH1 0x40 MLOAD DUP1 DUP4 SUB DUP2 PUSH1 0x0 DUP8 DUP1 EXTCODESIZE ISZERO DUP1 ISZERO PUSH2 0x82F JUMPI PUSH1 0x0 DUP1 REVERT JUMPDEST POP GAS CALL SWAP3 POP POP POP DUP1 ISZERO PUSH2 0x840 JUMPI POP PUSH1 0x1 JUMPDEST PUSH2 0x8BB JUMPI PUSH2 0x84C PUSH2 0x1705 JUMP JUMPDEST DUP1 PUSH4 0x8C379A0 SUB PUSH2 0x8AF JUMPI POP PUSH2 0x860 PUSH2 0x1721 JUMP JUMPDEST DUP1 PUSH2 0x86B JUMPI POP PUSH2 0x8B1 JUMP JUMPDEST PUSH32 0x2858238D037E52471D3AD4944D280CDB1FD3B479A3FDF698BB04E99572E6EFA8 DUP2 PUSH1 0x40 MLOAD PUSH2 0x89A SWAP2 SWAP1 PUSH2 0x17AB JUMP JUMPDEST PUSH1 0x40 MLOAD DUP1 SWAP2 SUB SWAP1 LOG1 PUSH1 0x0 SWAP5 POP POP POP POP POP PUSH2 0x8FF JUMP JUMPDEST POP JUMPDEST RETURNDATASIZE PUSH1 0x0 DUP1 RETURNDATACOPY RETURNDATASIZE PUSH1 0x0 REVERT JUMPDEST PUSH1 0x40 DUP1 MLOAD DUP9 DUP2 MSTORE PUSH2 0xFFFF DUP9 AND PUSH1 0x20 DUP3 ADD MSTORE PUSH32 0x742895F70ED9B3E00487DB3827A00B9C91DE8360CD96129050B8A82C99DE4862 SWAP2 ADD PUSH1 0x40 MLOAD DUP1 SWAP2 SUB SWAP1 LOG1 PUSH1 0x1 SWAP4 POP POP POP POP JUMPDEST SWAP5 SWAP4 POP POP POP POP JUMP JUMPDEST PUSH1 0x0 SLOAD PUSH1 0x1 PUSH1 0x1 PUSH1 0xA0 SHL SUB AND CALLER EQ PUSH2 0x961 JUMPI PUSH1 0x40 MLOAD PUSH3 0x461BCD PUSH1 0xE5 SHL DUP2 MSTORE PUSH1 0x20 PUSH1 0x4 DUP3 ADD DUP2 SWAP1 MSTORE PUSH1 0x24 DUP3 ADD MSTORE PUSH32 0x4F776E61626C653A2063616C6C6572206973206E6F7420746865206F776E6572 PUSH1 0x44 DUP3 ADD MSTORE PUSH1 0x64 ADD PUSH2 0x423 JUMP JUMPDEST PUSH2 0x96B PUSH1 0x0 PUSH2 0xF02 JUMP JUMPDEST JUMP JUMPDEST PUSH2 0x9AB PUSH1 0x40 MLOAD DUP1 PUSH1 0x80 ADD PUSH1 0x40 MSTORE DUP1 PUSH1 0x0 DUP2 MSTORE PUSH1 0x20 ADD PUSH1 0x0 DUP2 MSTORE PUSH1 0x20 ADD PUSH1 0x0 DUP2 MSTORE PUSH1 0x20 ADD PUSH1 0x0 PUSH16 0xFFFFFFFFFFFFFFFFFFFFFFFFFFFFFFFF NOT AND DUP2 MSTORE POP SWAP1 JUMP JUMPDEST PUSH1 0x40 MLOAD PUSH4 0x3D53A26B PUSH1 0xE1 SHL DUP2 MSTORE PUSH3 0xFFFFFF DUP4 AND PUSH1 0x4 DUP3 ADD MSTORE ADDRESS PUSH1 0x24 DUP3 ADD MSTORE PUSH1 0x0 SWAP1 PUSH32 0x0 PUSH1 0x1 PUSH1 0x1 PUSH1 0xA0 SHL SUB AND SWAP1 PUSH4 0x7AA744D6 SWAP1 PUSH1 0x44 ADD PUSH2 0x100 PUSH1 0x40 MLOAD DUP1 DUP4 SUB DUP2 DUP7 GAS STATICCALL ISZERO DUP1 ISZERO PUSH2 0xA1E JUMPI RETURNDATASIZE PUSH1 0x0 DUP1 RETURNDATACOPY RETURNDATASIZE PUSH1 0x0 REVERT JUMPDEST POP POP POP POP PUSH1 0x40 MLOAD RETURNDATASIZE PUSH1 0x1F NOT PUSH1 0x1F DUP3 ADD AND DUP3 ADD DUP1 PUSH1 0x40 MSTORE POP DUP2 ADD SWAP1 PUSH2 0xA42 SWAP2 SWAP1 PUSH2 0x13DC JUMP JUMPDEST SWAP1 POP PUSH2 0xA82 PUSH1 0x40 MLOAD DUP1 PUSH1 0x80 ADD PUSH1 0x40 MSTORE DUP1 PUSH1 0x0 DUP2 MSTORE PUSH1 0x20 ADD PUSH1 0x0 DUP2 MSTORE PUSH1 0x20 ADD PUSH1 0x0 DUP2 MSTORE PUSH1 0x20 ADD PUSH1 0x0 PUSH16 0xFFFFFFFFFFFFFFFFFFFFFFFFFFFFFFFF NOT AND DUP2 MSTORE POP SWAP1 JUMP JUMPDEST DUP2 MLOAD PUSH2 0xA8D SWAP1 PUSH2 0xDC2 JUMP JUMPDEST DUP2 MSTORE PUSH1 0x20 DUP3 ADD MLOAD PUSH2 0xA9D SWAP1 PUSH2 0xDC2 JUMP JUMPDEST PUSH1 0x20 DUP3 ADD MSTORE PUSH1 0x40 DUP3 ADD MLOAD PUSH2 0xAB0 SWAP1 PUSH2 0xDC2 JUMP JUMPDEST PUSH1 0x40 DUP3 ADD MSTORE PUSH1 0xE0 SWAP1 SWAP2 ADD MLOAD PUSH16 0xFFFFFFFFFFFFFFFFFFFFFFFFFFFFFFFF NOT AND PUSH1 0x60 DUP3 ADD MSTORE SWAP3 SWAP2 POP POP JUMP JUMPDEST PUSH1 0x40 MLOAD PUSH4 0x79E02E9 PUSH1 0xE2 SHL DUP2 MSTORE PUSH3 0xFFFFFF DUP3 AND PUSH1 0x4 DUP3 ADD MSTORE PUSH1 0x0 SWAP1 PUSH32 0x0 PUSH1 0x1 PUSH1 0x1 PUSH1 0xA0 SHL SUB AND SWAP1 PUSH4 0x1E780BA4 SWAP1 PUSH1 0x24 ADD PUSH1 0x20 PUSH1 0x40 MLOAD DUP1 DUP4 SUB DUP2 DUP7 GAS STATICCALL ISZERO DUP1 ISZERO PUSH2 0xB45 JUMPI RETURNDATASIZE PUSH1 0x0 DUP1 RETURNDATACOPY RETURNDATASIZE PUSH1 0x0 REVERT JUMPDEST POP POP POP POP PUSH1 0x40 MLOAD RETURNDATASIZE PUSH1 0x1F NOT PUSH1 0x1F DUP3 ADD AND DUP3 ADD DUP1 PUSH1 0x40 MSTORE POP DUP2 ADD SWAP1 PUSH2 0xB69 SWAP2 SWAP1 PUSH2 0x17C9 JUMP JUMPDEST PUSH3 0xFFFFFF DUP4 AND PUSH1 0x0 SWAP1 DUP2 MSTORE PUSH1 0x1 PUSH1 0x20 MSTORE PUSH1 0x40 DUP2 KECCAK256 DUP1 SLOAD PUSH1 0x1 PUSH1 0x1 PUSH1 0xA0 SHL SUB NOT AND PUSH1 0x1 PUSH1 0x1 PUSH1 0xA0 SHL SUB DUP5 AND OR SWAP1 SSTORE SWAP1 SWAP2 POP PUSH2 0xBA6 PUSH3 0x186A0 DUP5 PUSH2 0x14F6 JUMP JUMPDEST PUSH1 0xFF DUP2 AND PUSH1 0x0 SWAP1 DUP2 MSTORE PUSH1 0x2 PUSH1 0x20 MSTORE PUSH1 0x40 SWAP1 KECCAK256 SLOAD SWAP1 SWAP2 POP PUSH1 0x1 PUSH1 0x1 PUSH1 0xA0 SHL SUB AND PUSH2 0xC8D JUMPI PUSH1 0x40 MLOAD PUSH4 0x1857BE39 PUSH1 0xE1 SHL DUP2 MSTORE PUSH1 0xFF DUP3 AND PUSH1 0x4 DUP3 ADD MSTORE PUSH1 0x0 SWAP1 PUSH32 0x0 PUSH1 0x1 PUSH1 0x1 PUSH1 0xA0 SHL SUB AND SWAP1 PUSH4 0x30AF7C72 SWAP1 PUSH1 0x24 ADD PUSH2 0x260 PUSH1 0x40 MLOAD DUP1 DUP4 SUB DUP2 DUP7 GAS STATICCALL ISZERO DUP1 ISZERO PUSH2 0xC34 JUMPI RETURNDATASIZE PUSH1 0x0 DUP1 RETURNDATACOPY RETURNDATASIZE PUSH1 0x0 REVERT JUMPDEST POP POP POP POP PUSH1 0x40 MLOAD RETURNDATASIZE PUSH1 0x1F NOT PUSH1 0x1F DUP3 ADD AND DUP3 ADD DUP1 PUSH1 0x40 MSTORE POP DUP2 ADD SWAP1 PUSH2 0xC58 SWAP2 SWAP1 PUSH2 0x1823 JUMP JUMPDEST PUSH1 0xC0 ADD MLOAD PUSH1 0xFF DUP4 AND PUSH1 0x0 SWAP1 DUP2 MSTORE PUSH1 0x2 PUSH1 0x20 MSTORE PUSH1 0x40 SWAP1 KECCAK256 DUP1 SLOAD PUSH1 0x1 PUSH1 0x1 PUSH1 0xA0 SHL SUB NOT AND PUSH1 0x1 PUSH1 0x1 PUSH1 0xA0 SHL SUB SWAP1 SWAP3 AND SWAP2 SWAP1 SWAP2 OR SWAP1 SSTORE POP JUMPDEST PUSH1 0xFF DUP2 AND PUSH1 0x0 SWAP1 DUP2 MSTORE PUSH1 0x2 PUSH1 0x20 SWAP1 DUP2 MSTORE PUSH1 0x40 SWAP2 DUP3 SWAP1 KECCAK256 SLOAD DUP3 MLOAD PUSH3 0xFFFFFF DUP8 AND DUP2 MSTORE PUSH1 0x1 PUSH1 0x1 PUSH1 0xA0 SHL SUB DUP7 DUP2 AND SWAP4 DUP3 ADD SWAP4 SWAP1 SWAP4 MSTORE SWAP2 AND DUP2 DUP4 ADD MSTORE SWAP1 MLOAD PUSH32 0x5222A91CEC499C7C85C5FCB8B8DDFB81880EC40273D8CDA372740D8A97FA6EC7 SWAP2 DUP2 SWAP1 SUB PUSH1 0x60 ADD SWAP1 LOG1 POP POP POP JUMP JUMPDEST PUSH1 0x0 SLOAD PUSH1 0x1 PUSH1 0x1 PUSH1 0xA0 SHL SUB AND CALLER EQ PUSH2 0xD51 JUMPI PUSH1 0x40 MLOAD PUSH3 0x461BCD PUSH1 0xE5 SHL DUP2 MSTORE PUSH1 0x20 PUSH1 0x4 DUP3 ADD DUP2 SWAP1 MSTORE PUSH1 0x24 DUP3 ADD MSTORE PUSH32 0x4F776E61626C653A2063616C6C6572206973206E6F7420746865206F776E6572 PUSH1 0x44 DUP3 ADD MSTORE PUSH1 0x64 ADD PUSH2 0x423 JUMP JUMPDEST PUSH1 0x1 PUSH1 0x1 PUSH1 0xA0 SHL SUB DUP2 AND PUSH2 0xDB6 JUMPI PUSH1 0x40 MLOAD PUSH3 0x461BCD PUSH1 0xE5 SHL DUP2 MSTORE PUSH1 0x20 PUSH1 0x4 DUP3 ADD MSTORE PUSH1 0x26 PUSH1 0x24 DUP3 ADD MSTORE PUSH32 0x4F776E61626C653A206E6577206F776E657220697320746865207A65726F2061 PUSH1 0x44 DUP3 ADD MSTORE PUSH6 0x646472657373 PUSH1 0xD0 SHL PUSH1 0x64 DUP3 ADD MSTORE PUSH1 0x84 ADD PUSH2 0x423 JUMP JUMPDEST PUSH2 0xDBF DUP2 PUSH2 0xF02 JUMP JUMPDEST POP JUMP JUMPDEST PUSH1 0x0 PUSH9 0x10000000000000000 PUSH2 0xDE4 PUSH8 0xDE0B6B3A7640000 PUSH1 0xF DUP6 SWAP1 SIGNEXTEND PUSH2 0x198D JUMP JUMPDEST PUSH2 0x3C7 SWAP2 SWAP1 PUSH2 0x19BD JUMP JUMPDEST PUSH1 0x40 DUP1 MLOAD PUSH1 0x1 PUSH1 0x1 PUSH1 0xA0 SHL SUB DUP5 AND PUSH1 0x24 DUP3 ADD MSTORE PUSH1 0x44 DUP1 DUP3 ADD DUP5 SWAP1 MSTORE DUP3 MLOAD DUP1 DUP4 SUB SWAP1 SWAP2 ADD DUP2 MSTORE PUSH1 0x64 SWAP1 SWAP2 ADD SWAP1 SWAP2 MSTORE PUSH1 0x20 DUP2 ADD DUP1 MLOAD PUSH28 0xFFFFFFFFFFFFFFFFFFFFFFFFFFFFFFFFFFFFFFFFFFFFFFFFFFFFFFFF AND PUSH4 0xA9059CBB PUSH1 0xE0 SHL OR SWAP1 MSTORE PUSH2 0xE55 SWAP1 DUP5 SWAP1 PUSH2 0xF52 JUMP JUMPDEST POP POP POP JUMP JUMPDEST PUSH1 0x0 DUP1 PUSH8 0xDE0B6B3A7640000 PUSH2 0xE79 PUSH9 0x10000000000000000 DUP6 PUSH2 0x198D JUMP JUMPDEST PUSH2 0xE83 SWAP2 SWAP1 PUSH2 0x19BD JUMP JUMPDEST SWAP1 POP PUSH16 0x7FFFFFFFFFFFFFFFFFFFFFFFFFFFFFFF NOT DUP4 SLT DUP1 ISZERO SWAP1 PUSH2 0xEB6 JUMPI POP PUSH16 0x7FFFFFFFFFFFFFFFFFFFFFFFFFFFFFFF DUP4 SGT ISZERO JUMPDEST PUSH2 0x3C7 JUMPI PUSH1 0x40 MLOAD PUSH3 0x461BCD PUSH1 0xE5 SHL DUP2 MSTORE PUSH1 0x20 PUSH1 0x4 DUP3 ADD MSTORE PUSH1 0x13 PUSH1 0x24 DUP3 ADD MSTORE PUSH32 0x726573756C74206F7574206F662072616E676500000000000000000000000000 PUSH1 0x44 DUP3 ADD MSTORE PUSH1 0x64 ADD PUSH2 0x423 JUMP JUMPDEST PUSH1 0x0 DUP1 SLOAD PUSH1 0x1 PUSH1 0x1 PUSH1 0xA0 SHL SUB DUP4 DUP2 AND PUSH1 0x1 PUSH1 0x1 PUSH1 0xA0 SHL SUB NOT DUP4 AND DUP2 OR DUP5 SSTORE PUSH1 0x40 MLOAD SWAP2 SWAP1 SWAP3 AND SWAP3 DUP4 SWAP2 PUSH32 0x8BE0079C531659141344CD1FD0A4F28419497F9722A3DAAFE3B4186F6B6457E0 SWAP2 SWAP1 LOG3 POP POP JUMP JUMPDEST PUSH1 0x0 PUSH2 0xFA7 DUP3 PUSH1 0x40 MLOAD DUP1 PUSH1 0x40 ADD PUSH1 0x40 MSTORE DUP1 PUSH1 0x20 DUP2 MSTORE PUSH1 0x20 ADD PUSH32 0x5361666545524332303A206C6F772D6C6576656C2063616C6C206661696C6564 DUP2 MSTORE POP DUP6 PUSH1 0x1 PUSH1 0x1 PUSH1 0xA0 SHL SUB AND PUSH2 0x1024 SWAP1 SWAP3 SWAP2 SWAP1 PUSH4 0xFFFFFFFF AND JUMP JUMPDEST DUP1 MLOAD SWAP1 SWAP2 POP ISZERO PUSH2 0xE55 JUMPI DUP1 DUP1 PUSH1 0x20 ADD SWAP1 MLOAD DUP2 ADD SWAP1 PUSH2 0xFC5 SWAP2 SWAP1 PUSH2 0x153C JUMP JUMPDEST PUSH2 0xE55 JUMPI PUSH1 0x40 MLOAD PUSH3 0x461BCD PUSH1 0xE5 SHL DUP2 MSTORE PUSH1 0x20 PUSH1 0x4 DUP3 ADD MSTORE PUSH1 0x2A PUSH1 0x24 DUP3 ADD MSTORE PUSH32 0x5361666545524332303A204552433230206F7065726174696F6E20646964206E PUSH1 0x44 DUP3 ADD MSTORE PUSH10 0x1BDD081CDD58D8D95959 PUSH1 0xB2 SHL PUSH1 0x64 DUP3 ADD MSTORE PUSH1 0x84 ADD PUSH2 0x423 JUMP JUMPDEST PUSH1 0x60 PUSH2 0x1033 DUP5 DUP5 PUSH1 0x0 DUP6 PUSH2 0x103D JUMP JUMPDEST SWAP1 POP JUMPDEST SWAP4 SWAP3 POP POP POP JUMP JUMPDEST PUSH1 0x60 DUP3 SELFBALANCE LT ISZERO PUSH2 0x109E JUMPI PUSH1 0x40 MLOAD PUSH3 0x461BCD PUSH1 0xE5 SHL DUP2 MSTORE PUSH1 0x20 PUSH1 0x4 DUP3 ADD MSTORE PUSH1 0x26 PUSH1 0x24 DUP3 ADD MSTORE PUSH32 0x416464726573733A20696E73756666696369656E742062616C616E636520666F PUSH1 0x44 DUP3 ADD MSTORE PUSH6 0x1C8818D85B1B PUSH1 0xD2 SHL PUSH1 0x64 DUP3 ADD MSTORE PUSH1 0x84 ADD PUSH2 0x423 JUMP JUMPDEST PUSH1 0x1 PUSH1 0x1 PUSH1 0xA0 SHL SUB DUP6 AND EXTCODESIZE PUSH2 0x10F5 JUMPI PUSH1 0x40 MLOAD PUSH3 0x461BCD PUSH1 0xE5 SHL DUP2 MSTORE PUSH1 0x20 PUSH1 0x4 DUP3 ADD MSTORE PUSH1 0x1D PUSH1 0x24 DUP3 ADD MSTORE PUSH32 0x416464726573733A2063616C6C20746F206E6F6E2D636F6E7472616374000000 PUSH1 0x44 DUP3 ADD MSTORE PUSH1 0x64 ADD PUSH2 0x423 JUMP JUMPDEST PUSH1 0x0 DUP1 DUP7 PUSH1 0x1 PUSH1 0x1 PUSH1 0xA0 SHL SUB AND DUP6 DUP8 PUSH1 0x40 MLOAD PUSH2 0x1111 SWAP2 SWAP1 PUSH2 0x19EB JUMP JUMPDEST PUSH1 0x0 PUSH1 0x40 MLOAD DUP1 DUP4 SUB DUP2 DUP6 DUP8 GAS CALL SWAP3 POP POP POP RETURNDATASIZE DUP1 PUSH1 0x0 DUP2 EQ PUSH2 0x114E JUMPI PUSH1 0x40 MLOAD SWAP2 POP PUSH1 0x1F NOT PUSH1 0x3F RETURNDATASIZE ADD AND DUP3 ADD PUSH1 0x40 MSTORE RETURNDATASIZE DUP3 MSTORE RETURNDATASIZE PUSH1 0x0 PUSH1 0x20 DUP5 ADD RETURNDATACOPY PUSH2 0x1153 JUMP JUMPDEST PUSH1 0x60 SWAP2 POP JUMPDEST POP SWAP2 POP SWAP2 POP PUSH2 0x1163 DUP3 DUP3 DUP7 PUSH2 0x116E JUMP JUMPDEST SWAP8 SWAP7 POP POP POP POP POP POP POP JUMP JUMPDEST PUSH1 0x60 DUP4 ISZERO PUSH2 0x117D JUMPI POP DUP2 PUSH2 0x1036 JUMP JUMPDEST DUP3 MLOAD ISZERO PUSH2 0x118D JUMPI DUP3 MLOAD DUP1 DUP5 PUSH1 0x20 ADD REVERT JUMPDEST DUP2 PUSH1 0x40 MLOAD PUSH3 0x461BCD PUSH1 0xE5 SHL DUP2 MSTORE PUSH1 0x4 ADD PUSH2 0x423 SWAP2 SWAP1 PUSH2 0x17AB JUMP JUMPDEST DUP1 CALLDATALOAD PUSH3 0xFFFFFF DUP2 AND DUP2 EQ PUSH2 0x11BA JUMPI PUSH1 0x0 DUP1 REVERT JUMPDEST SWAP2 SWAP1 POP JUMP JUMPDEST PUSH1 0x0 PUSH1 0x20 DUP3 DUP5 SUB SLT ISZERO PUSH2 0x11D1 JUMPI PUSH1 0x0 DUP1 REVERT JUMPDEST PUSH2 0x1036 DUP3 PUSH2 0x11A7 JUMP JUMPDEST DUP1 ISZERO ISZERO DUP2 EQ PUSH2 0xDBF JUMPI PUSH1 0x0 DUP1 REVERT JUMPDEST PUSH1 0x0 DUP1 PUSH1 0x40 DUP4 DUP6 SUB SLT ISZERO PUSH2 0x11FB JUMPI PUSH1 0x0 DUP1 REVERT JUMPDEST PUSH2 0x1204 DUP4 PUSH2 0x11A7 JUMP JUMPDEST SWAP2 POP PUSH1 0x20 DUP4 ADD CALLDATALOAD PUSH2 0x1214 DUP2 PUSH2 0x11DA JUMP JUMPDEST DUP1 SWAP2 POP POP SWAP3 POP SWAP3 SWAP1 POP JUMP JUMPDEST PUSH1 0x0 DUP1 PUSH1 0x40 DUP4 DUP6 SUB SLT ISZERO PUSH2 0x1232 JUMPI PUSH1 0x0 DUP1 REVERT JUMPDEST DUP3 CALLDATALOAD SWAP2 POP PUSH2 0x1242 PUSH1 0x20 DUP5 ADD PUSH2 0x11A7 JUMP JUMPDEST SWAP1 POP SWAP3 POP SWAP3 SWAP1 POP JUMP JUMPDEST PUSH2 0xFFFF DUP2 AND DUP2 EQ PUSH2 0xDBF JUMPI PUSH1 0x0 DUP1 REVERT JUMPDEST PUSH1 0x0 DUP1 PUSH1 0x0 DUP1 PUSH1 0x80 DUP6 DUP8 SUB SLT ISZERO PUSH2 0x1271 JUMPI PUSH1 0x0 DUP1 REVERT JUMPDEST PUSH2 0x127A DUP6 PUSH2 0x11A7 JUMP JUMPDEST SWAP4 POP PUSH1 0x20 DUP6 ADD CALLDATALOAD SWAP3 POP PUSH1 0x40 DUP6 ADD CALLDATALOAD PUSH2 0x1291 DUP2 PUSH2 0x124B JUMP JUMPDEST SWAP2 POP PUSH1 0x60 DUP6 ADD CALLDATALOAD PUSH4 0xFFFFFFFF DUP2 AND DUP2 EQ PUSH2 0x12AA JUMPI PUSH1 0x0 DUP1 REVERT JUMPDEST SWAP4 SWAP7 SWAP3 SWAP6 POP SWAP1 SWAP4 POP POP JUMP JUMPDEST PUSH1 0xFF DUP2 AND DUP2 EQ PUSH2 0xDBF JUMPI PUSH1 0x0 DUP1 REVERT JUMPDEST PUSH1 0x0 PUSH1 0x20 DUP3 DUP5 SUB SLT ISZERO PUSH2 0x12D6 JUMPI PUSH1 0x0 DUP1 REVERT JUMPDEST DUP2 CALLDATALOAD PUSH2 0x1036 DUP2 PUSH2 0x12B5 JUMP JUMPDEST PUSH1 0x1 PUSH1 0x1 PUSH1 0xA0 SHL SUB DUP2 AND DUP2 EQ PUSH2 0xDBF JUMPI PUSH1 0x0 DUP1 REVERT JUMPDEST PUSH1 0x0 PUSH1 0x20 DUP3 DUP5 SUB SLT ISZERO PUSH2 0x1308 JUMPI PUSH1 0x0 DUP1 REVERT JUMPDEST DUP2 CALLDATALOAD PUSH2 0x1036 DUP2 PUSH2 0x12E1 JUMP JUMPDEST PUSH1 0x1F DUP3 ADD PUSH1 0x1F NOT AND DUP2 ADD PUSH8 0xFFFFFFFFFFFFFFFF DUP2 GT DUP3 DUP3 LT OR ISZERO PUSH2 0x1347 JUMPI PUSH4 0x4E487B71 PUSH1 0xE0 SHL PUSH1 0x0 MSTORE PUSH1 0x41 PUSH1 0x4 MSTORE PUSH1 0x24 PUSH1 0x0 REVERT JUMPDEST PUSH1 0x40 MSTORE POP POP JUMP JUMPDEST PUSH1 0x40 MLOAD PUSH2 0x260 DUP2 ADD PUSH8 0xFFFFFFFFFFFFFFFF DUP2 GT DUP3 DUP3 LT OR ISZERO PUSH2 0x1380 JUMPI PUSH4 0x4E487B71 PUSH1 0xE0 SHL PUSH1 0x0 MSTORE PUSH1 0x41 PUSH1 0x4 MSTORE PUSH1 0x24 PUSH1 0x0 REVERT JUMPDEST PUSH1 0x40 MSTORE SWAP1 JUMP JUMPDEST DUP1 MLOAD PUSH1 0xF DUP2 SWAP1 SIGNEXTEND DUP2 EQ PUSH2 0x11BA JUMPI PUSH1 0x0 DUP1 REVERT JUMPDEST DUP1 MLOAD PUSH8 0xFFFFFFFFFFFFFFFF DUP2 AND DUP2 EQ PUSH2 0x11BA JUMPI PUSH1 0x0 DUP1 REVERT JUMPDEST DUP1 MLOAD PUSH2 0x11BA DUP2 PUSH2 0x124B JUMP JUMPDEST DUP1 MLOAD PUSH16 0xFFFFFFFFFFFFFFFFFFFFFFFFFFFFFFFF NOT DUP2 AND DUP2 EQ PUSH2 0x11BA JUMPI PUSH1 0x0 DUP1 REVERT JUMPDEST PUSH1 0x0 PUSH2 0x100 DUP1 DUP4 DUP6 SUB SLT ISZERO PUSH2 0x13F0 JUMPI PUSH1 0x0 DUP1 REVERT JUMPDEST PUSH1 0x40 MLOAD SWAP1 DUP2 ADD SWAP1 PUSH8 0xFFFFFFFFFFFFFFFF DUP3 GT DUP2 DUP4 LT OR ISZERO PUSH2 0x1421 JUMPI PUSH4 0x4E487B71 PUSH1 0xE0 SHL PUSH1 0x0 MSTORE PUSH1 0x41 PUSH1 0x4 MSTORE PUSH1 0x24 PUSH1 0x0 REVERT JUMPDEST DUP2 PUSH1 0x40 MSTORE PUSH2 0x142E DUP5 PUSH2 0x1386 JUMP JUMPDEST DUP2 MSTORE PUSH2 0x143C PUSH1 0x20 DUP6 ADD PUSH2 0x1386 JUMP JUMPDEST PUSH1 0x20 DUP3 ADD MSTORE PUSH2 0x144D PUSH1 0x40 DUP6 ADD PUSH2 0x1386 JUMP JUMPDEST PUSH1 0x40 DUP3 ADD MSTORE PUSH2 0x145E PUSH1 0x60 DUP6 ADD PUSH2 0x1386 JUMP JUMPDEST PUSH1 0x60 DUP3 ADD MSTORE PUSH2 0x146F PUSH1 0x80 DUP6 ADD PUSH2 0x1398 JUMP JUMPDEST PUSH1 0x80 DUP3 ADD MSTORE PUSH2 0x1480 PUSH1 0xA0 DUP6 ADD PUSH2 0x13B0 JUMP JUMPDEST PUSH1 0xA0 DUP3 ADD MSTORE PUSH2 0x1491 PUSH1 0xC0 DUP6 ADD PUSH2 0x13B0 JUMP JUMPDEST PUSH1 0xC0 DUP3 ADD MSTORE PUSH2 0x14A2 PUSH1 0xE0 DUP6 ADD PUSH2 0x13BB JUMP JUMPDEST PUSH1 0xE0 DUP3 ADD MSTORE SWAP5 SWAP4 POP POP POP POP JUMP JUMPDEST PUSH1 0x0 PUSH1 0x20 DUP3 DUP5 SUB SLT ISZERO PUSH2 0x14C1 JUMPI PUSH1 0x0 DUP1 REVERT JUMPDEST PUSH2 0x1036 DUP3 PUSH2 0x1386 JUMP JUMPDEST PUSH4 0x4E487B71 PUSH1 0xE0 SHL PUSH1 0x0 MSTORE PUSH1 0x12 PUSH1 0x4 MSTORE PUSH1 0x24 PUSH1 0x0 REVERT JUMPDEST PUSH4 0x4E487B71 PUSH1 0xE0 SHL PUSH1 0x0 MSTORE PUSH1 0x11 PUSH1 0x4 MSTORE PUSH1 0x24 PUSH1 0x0 REVERT JUMPDEST PUSH1 0x0 PUSH3 0xFFFFFF DUP1 DUP5 AND DUP1 PUSH2 0x150C JUMPI PUSH2 0x150C PUSH2 0x14CA JUMP JUMPDEST SWAP3 AND SWAP2 SWAP1 SWAP2 DIV SWAP3 SWAP2 POP POP JUMP JUMPDEST PUSH1 0x0 PUSH1 0x20 DUP3 DUP5 SUB SLT ISZERO PUSH2 0x152A JUMPI PUSH1 0x0 DUP1 REVERT JUMPDEST POP MLOAD SWAP2 SWAP1 POP JUMP JUMPDEST DUP1 MLOAD PUSH2 0x11BA DUP2 PUSH2 0x11DA JUMP JUMPDEST PUSH1 0x0 PUSH1 0x20 DUP3 DUP5 SUB SLT ISZERO PUSH2 0x154E JUMPI PUSH1 0x0 DUP1 REVERT JUMPDEST DUP2 MLOAD PUSH2 0x1036 DUP2 PUSH2 0x11DA JUMP JUMPDEST DUP1 DUP3 ADD DUP1 DUP3 GT ISZERO PUSH2 0x3C7 JUMPI PUSH2 0x3C7 PUSH2 0x14E0 JUMP JUMPDEST PUSH1 0x0 JUMPDEST DUP4 DUP2 LT ISZERO PUSH2 0x1587 JUMPI DUP2 DUP2 ADD MLOAD DUP4 DUP3 ADD MSTORE PUSH1 0x20 ADD PUSH2 0x156F JUMP JUMPDEST POP POP PUSH1 0x0 SWAP2 ADD MSTORE JUMP JUMPDEST PUSH1 0x0 DUP2 MLOAD DUP1 DUP5 MSTORE PUSH2 0x15A8 DUP2 PUSH1 0x20 DUP7 ADD PUSH1 0x20 DUP7 ADD PUSH2 0x156C JUMP JUMPDEST PUSH1 0x1F ADD PUSH1 0x1F NOT AND SWAP3 SWAP1 SWAP3 ADD PUSH1 0x20 ADD SWAP3 SWAP2 POP POP JUMP JUMPDEST PUSH1 0x40 DUP2 MSTORE PUSH2 0x15D2 PUSH1 0x40 DUP3 ADD DUP5 MLOAD PUSH3 0xFFFFFF AND SWAP1 MSTORE JUMP JUMPDEST PUSH1 0x0 PUSH1 0x20 DUP5 ADD MLOAD PUSH2 0x15E8 PUSH1 0x60 DUP5 ADD DUP3 PUSH1 0xF SIGNEXTEND SWAP1 MSTORE JUMP JUMPDEST POP PUSH1 0x40 DUP5 ADD MLOAD PUSH2 0xFFFF DUP2 AND PUSH1 0x80 DUP5 ADD MSTORE POP PUSH1 0x60 DUP5 ADD MLOAD PUSH4 0xFFFFFFFF DUP2 AND PUSH1 0xA0 DUP5 ADD MSTORE POP PUSH1 0x80 DUP5 ADD MLOAD PUSH4 0xFFFFFFFF DUP2 AND PUSH1 0xC0 DUP5 ADD MSTORE POP PUSH1 0xA0 DUP5 ADD MLOAD PUSH4 0xFFFFFFFF DUP2 AND PUSH1 0xE0 DUP5 ADD MSTORE POP PUSH1 0xC0 DUP5 ADD MLOAD PUSH2 0x100 PUSH2 0x164B DUP2 DUP6 ADD DUP4 PUSH1 0x1 PUSH1 0x1 PUSH1 0xA0 SHL SUB AND SWAP1 MSTORE JUMP JUMPDEST PUSH1 0xE0 DUP7 ADD MLOAD SWAP2 POP PUSH2 0x120 PUSH2 0x1663 DUP2 DUP7 ADD DUP5 PUSH1 0xF SIGNEXTEND SWAP1 MSTORE JUMP JUMPDEST SWAP1 DUP7 ADD MLOAD SWAP2 POP PUSH2 0x140 SWAP1 PUSH2 0x167B DUP6 DUP4 ADD DUP5 PUSH1 0xF SIGNEXTEND SWAP1 MSTORE JUMP JUMPDEST DUP7 ADD MLOAD PUSH2 0x160 DUP6 DUP2 ADD SWAP2 SWAP1 SWAP2 MSTORE SWAP1 DUP7 ADD MLOAD SWAP2 POP PUSH2 0x180 SWAP1 PUSH2 0x16A6 DUP3 DUP7 ADD DUP5 PUSH1 0x1 PUSH1 0x1 PUSH1 0xA0 SHL SUB AND SWAP1 MSTORE JUMP JUMPDEST DUP7 ADD MLOAD PUSH2 0x1A0 DUP6 DUP2 ADD SWAP2 SWAP1 SWAP2 MSTORE SWAP1 DUP7 ADD MLOAD SWAP2 POP PUSH2 0x1C0 SWAP1 PUSH2 0x16CC DUP3 DUP7 ADD DUP5 PUSH2 0xFFFF AND SWAP1 MSTORE JUMP JUMPDEST DUP7 ADD MLOAD PUSH2 0x1E0 DUP6 ADD SWAP2 SWAP1 SWAP2 MSTORE SWAP1 POP PUSH2 0x16E8 PUSH2 0x200 DUP5 ADD DUP3 PUSH2 0x1590 JUMP JUMPDEST SWAP1 POP DUP3 DUP2 SUB PUSH1 0x20 DUP5 ADD MSTORE PUSH2 0x16FC DUP2 DUP6 PUSH2 0x1590 JUMP JUMPDEST SWAP6 SWAP5 POP POP POP POP POP JUMP JUMPDEST PUSH1 0x0 PUSH1 0x3 RETURNDATASIZE GT ISZERO PUSH2 0x171E JUMPI PUSH1 0x4 PUSH1 0x0 DUP1 RETURNDATACOPY POP PUSH1 0x0 MLOAD PUSH1 0xE0 SHR JUMPDEST SWAP1 JUMP JUMPDEST PUSH1 0x0 PUSH1 0x44 RETURNDATASIZE LT ISZERO PUSH2 0x172F JUMPI SWAP1 JUMP JUMPDEST PUSH1 0x40 MLOAD PUSH1 0x3 NOT RETURNDATASIZE DUP2 ADD PUSH1 0x4 DUP4 RETURNDATACOPY DUP2 MLOAD RETURNDATASIZE PUSH8 0xFFFFFFFFFFFFFFFF DUP2 PUSH1 0x24 DUP5 ADD GT DUP2 DUP5 GT OR ISZERO PUSH2 0x175F JUMPI POP POP POP POP POP SWAP1 JUMP JUMPDEST DUP3 DUP6 ADD SWAP2 POP DUP2 MLOAD DUP2 DUP2 GT ISZERO PUSH2 0x1777 JUMPI POP POP POP POP POP POP SWAP1 JUMP JUMPDEST DUP5 RETURNDATASIZE DUP8 ADD ADD PUSH1 0x20 DUP3 DUP6 ADD ADD GT ISZERO PUSH2 0x1791 JUMPI POP POP POP POP POP POP SWAP1 JUMP JUMPDEST PUSH2 0x17A0 PUSH1 0x20 DUP3 DUP7 ADD ADD DUP8 PUSH2 0x1313 JUMP JUMPDEST POP SWAP1 SWAP6 SWAP5 POP POP POP POP POP JUMP JUMPDEST PUSH1 0x20 DUP2 MSTORE PUSH1 0x0 PUSH2 0x1036 PUSH1 0x20 DUP4 ADD DUP5 PUSH2 0x1590 JUMP JUMPDEST DUP1 MLOAD PUSH2 0x11BA DUP2 PUSH2 0x12E1 JUMP JUMPDEST PUSH1 0x0 PUSH1 0x20 DUP3 DUP5 SUB SLT ISZERO PUSH2 0x17DB JUMPI PUSH1 0x0 DUP1 REVERT JUMPDEST DUP2 MLOAD PUSH2 0x1036 DUP2 PUSH2 0x12E1 JUMP JUMPDEST DUP1 MLOAD PUSH2 0x11BA DUP2 PUSH2 0x12B5 JUMP JUMPDEST DUP1 MLOAD PUSH1 0x3 DUP2 SWAP1 SIGNEXTEND DUP2 EQ PUSH2 0x11BA JUMPI PUSH1 0x0 DUP1 REVERT JUMPDEST DUP1 MLOAD PUSH16 0xFFFFFFFFFFFFFFFFFFFFFFFFFFFFFFFF DUP2 AND DUP2 EQ PUSH2 0x11BA JUMPI PUSH1 0x0 DUP1 REVERT JUMPDEST PUSH1 0x0 PUSH2 0x260 DUP3 DUP5 SUB SLT ISZERO PUSH2 0x1836 JUMPI PUSH1 0x0 DUP1 REVERT JUMPDEST PUSH2 0x183E PUSH2 0x134E JUMP JUMPDEST PUSH2 0x1847 DUP4 PUSH2 0x1531 JUMP JUMPDEST DUP2 MSTORE PUSH2 0x1855 PUSH1 0x20 DUP5 ADD PUSH2 0x17E6 JUMP JUMPDEST PUSH1 0x20 DUP3 ADD MSTORE PUSH2 0x1866 PUSH1 0x40 DUP5 ADD PUSH2 0x17E6 JUMP JUMPDEST PUSH1 0x40 DUP3 ADD MSTORE PUSH2 0x1877 PUSH1 0x60 DUP5 ADD PUSH2 0x17F1 JUMP JUMPDEST PUSH1 0x60 DUP3 ADD MSTORE PUSH2 0x1888 PUSH1 0x80 DUP5 ADD PUSH2 0x17E6 JUMP JUMPDEST PUSH1 0x80 DUP3 ADD MSTORE PUSH2 0x1899 PUSH1 0xA0 DUP5 ADD PUSH2 0x13B0 JUMP JUMPDEST PUSH1 0xA0 DUP3 ADD MSTORE PUSH2 0x18AA PUSH1 0xC0 DUP5 ADD PUSH2 0x17BE JUMP JUMPDEST PUSH1 0xC0 DUP3 ADD MSTORE PUSH2 0x18BB PUSH1 0xE0 DUP5 ADD PUSH2 0x1398 JUMP JUMPDEST PUSH1 0xE0 DUP3 ADD MSTORE PUSH2 0x100 PUSH2 0x18CE DUP2 DUP6 ADD PUSH2 0x1386 JUMP JUMPDEST SWAP1 DUP3 ADD MSTORE PUSH2 0x120 PUSH2 0x18E0 DUP5 DUP3 ADD PUSH2 0x17BE JUMP JUMPDEST SWAP1 DUP3 ADD MSTORE PUSH2 0x140 PUSH2 0x18F2 DUP5 DUP3 ADD PUSH2 0x1386 JUMP JUMPDEST SWAP1 DUP3 ADD MSTORE PUSH2 0x160 PUSH2 0x1904 DUP5 DUP3 ADD PUSH2 0x1386 JUMP JUMPDEST SWAP1 DUP3 ADD MSTORE PUSH2 0x180 PUSH2 0x1916 DUP5 DUP3 ADD PUSH2 0x1386 JUMP JUMPDEST SWAP1 DUP3 ADD MSTORE PUSH2 0x1A0 PUSH2 0x1928 DUP5 DUP3 ADD PUSH2 0x1386 JUMP JUMPDEST SWAP1 DUP3 ADD MSTORE PUSH2 0x1C0 PUSH2 0x193A DUP5 DUP3 ADD PUSH2 0x1386 JUMP JUMPDEST SWAP1 DUP3 ADD MSTORE PUSH2 0x1E0 PUSH2 0x194C DUP5 DUP3 ADD PUSH2 0x1803 JUMP JUMPDEST SWAP1 DUP3 ADD MSTORE PUSH2 0x200 PUSH2 0x195E DUP5 DUP3 ADD PUSH2 0x1803 JUMP JUMPDEST SWAP1 DUP3 ADD MSTORE PUSH2 0x220 PUSH2 0x1970 DUP5 DUP3 ADD PUSH2 0x1803 JUMP JUMPDEST SWAP1 DUP3 ADD MSTORE PUSH2 0x240 PUSH2 0x1982 DUP5 DUP3 ADD PUSH2 0x1386 JUMP JUMPDEST SWAP1 DUP3 ADD MSTORE SWAP4 SWAP3 POP POP POP JUMP JUMPDEST DUP1 DUP3 MUL PUSH1 0x0 DUP3 SLT PUSH1 0x1 PUSH1 0xFF SHL DUP5 EQ AND ISZERO PUSH2 0x19A9 JUMPI PUSH2 0x19A9 PUSH2 0x14E0 JUMP JUMPDEST DUP2 DUP2 SDIV DUP4 EQ DUP3 ISZERO OR PUSH2 0x3C7 JUMPI PUSH2 0x3C7 PUSH2 0x14E0 JUMP JUMPDEST PUSH1 0x0 DUP3 PUSH2 0x19CC JUMPI PUSH2 0x19CC PUSH2 0x14CA JUMP JUMPDEST PUSH1 0x1 PUSH1 0xFF SHL DUP3 EQ PUSH1 0x0 NOT DUP5 EQ AND ISZERO PUSH2 0x19E6 JUMPI PUSH2 0x19E6 PUSH2 0x14E0 JUMP JUMPDEST POP SDIV SWAP1 JUMP JUMPDEST PUSH1 0x0 DUP3 MLOAD PUSH2 0x19FD DUP2 DUP5 PUSH1 0x20 DUP8 ADD PUSH2 0x156C JUMP JUMPDEST SWAP2 SWAP1 SWAP2 ADD SWAP3 SWAP2 POP POP JUMP INVALID LOG2 PUSH5 0x6970667358 0x22 SLT KECCAK256 PREVRANDAO 0xE9 DUP2 PUSH1 0x1B 0xE4 PUSH17 0x8BDDCA168ED09F7918FEBF6A576FCC3DC5 0xA8 SWAP8 PUSH24 0xCC197EA44164736F6C634300081300330000000000000000 "},"gasEstimates":{"creation":{"codeDepositCost":"1343400","executionCost":"infinite","totalCost":"infinite"},"external":{"addPerpetual(uint24)":"infinite","approveAmountForPerpetualMgnTkn(uint256,uint24)":"infinite","getMarginAccount(uint24)":"infinite","getMaxTradeAmount(uint24,bool)":"infinite","mgnTknAddrOfPool(uint8)":"2573","orderBookOfPerpetual(uint24)":"2559","owner()":"2365","perpetualProxy()":"infinite","postOrder(uint24,int256,uint16,uint32)":"infinite","renounceOwnership()":"28137","transferMarginCollateralTo(uint24)":"infinite","transferOwnership(address)":"infinite"},"internal":{"_fromDec18(int256)":"infinite","_fromInt(int256)":"infinite","toDec18(int128)":"infinite"}},"methodIdentifiers":{"addPerpetual(uint24)":"b1bd155e","approveAmountForPerpetualMgnTkn(uint256,uint24)":"5db35a04","getMarginAccount(uint24)":"9fbb0a3b","getMaxTradeAmount(uint24,bool)":"0df3ad4c","mgnTknAddrOfPool(uint8)":"ba0e9399","orderBookOfPerpetual(uint24)":"0330d0c0","owner()":"8da5cb5b","perpetualProxy()":"3e99a53b","postOrder(uint24,int256,uint16,uint32)":"62bcc258","renounceOwnership()":"715018a6","transferMarginCollateralTo(uint24)":"230f2384","transferOwnership(address)":"f2fde38b"}},"storageLayout":{"storage":[{"astId":552,"contract":"contracts/OnChainTrader.sol:OnChainTrader","label":"_owner","offset":0,"slot":"0","type":"t_address"},{"astId":1576,"contract":"contracts/OnChainTrader.sol:OnChainTrader","label":"orderBookOfPerpetual","offset":0,"slot":"1","type":"t_mapping(t_uint24,t_address)"},{"astId":1580,"contract":"contracts/OnChainTrader.sol:OnChainTrader","label":"mgnTknAddrOfPool","offset":0,"slot":"2","type":"t_mapping(t_uint8,t_address)"}],"types":{"t_address":{"encoding":"inplace","label":"address","numberOfBytes":"20"},"t_mapping(t_uint24,t_address)":{"encoding":"mapping","key":"t_uint24","label":"mapping(uint24 => address)","numberOfBytes":"32","value":"t_address"},"t_mapping(t_uint8,t_address)":{"encoding":"mapping","key":"t_uint8","label":"mapping(uint8 => address)","numberOfBytes":"32","value":"t_address"},"t_uint24":{"encoding":"inplace","label":"uint24","numberOfBytes":"3"},"t_uint8":{"encoding":"inplace","label":"uint8","numberOfBytes":"1"}}},"userdoc":{"kind":"user","methods":{"addPerpetual(uint24)":{"notice":"Anyone add a perpetual. Needs to be set once per perpetual. The function sets the order book address for an existing perpetual-id and ensures the margin token address is stored. "},"approveAmountForPerpetualMgnTkn(uint256,uint24)":{"notice":"Approve the margin-token to be spent by perpetuals contract. Required to trade."},"getMarginAccount(uint24)":{"notice":"Return margin account information in decimal 18 format"},"getMaxTradeAmount(uint24,bool)":{"notice":"Get maximal trade amount for the contract accounting for its current position"},"postOrder(uint24,int256,uint16,uint32)":{"notice":"Post an order to the order book. Order will be executed by external \"executors\". * Available order flags:  uint32 internal constant MASK_CLOSE_ONLY = 0x80000000;  uint32 internal constant MASK_MARKET_ORDER = 0x40000000;  uint32 internal constant MASK_STOP_ORDER = 0x20000000;  uint32 internal constant MASK_FILL_OR_KILL = 0x10000000;  uint32 internal constant MASK_KEEP_POS_LEVERAGE = 0x08000000;  uint32 internal constant MASK_LIMIT_ORDER = 0x04000000;"}},"version":1}}}}