{"contracts/OnChainTrader.sol":{"OnChainTrader":{"abi":[{"inputs":[{"internalType":"address","name":"_perpetualProxy","type":"address"}],"stateMutability":"nonpayable","type":"constructor"},{"anonymous":false,"inputs":[{"indexed":false,"internalType":"bytes32","name":"orderDigest","type":"bytes32"},{"indexed":false,"internalType":"bool","name":"isExecuted","type":"bool"}],"name":"CallbackReceived","type":"event"},{"anonymous":false,"inputs":[{"indexed":false,"internalType":"uint24","name":"perpetualId","type":"uint24"},{"indexed":false,"internalType":"address","name":"to","type":"address"},{"indexed":false,"internalType":"uint256","name":"amountDecN","type":"uint256"}],"name":"MarginTokenSent","type":"event"},{"anonymous":false,"inputs":[{"indexed":true,"internalType":"address","name":"previousOwner","type":"address"},{"indexed":true,"internalType":"address","name":"newOwner","type":"address"}],"name":"OwnershipTransferred","type":"event"},{"anonymous":false,"inputs":[{"indexed":false,"internalType":"uint24","name":"perpetualId","type":"uint24"},{"indexed":false,"internalType":"address","name":"lobAddr","type":"address"},{"indexed":false,"internalType":"address","name":"mgnTknAddrOfPool","type":"address"}],"name":"PerpetualAdded","type":"event"},{"anonymous":false,"inputs":[{"indexed":false,"internalType":"string","name":"reason","type":"string"}],"name":"PerpetualOrderSubmitFailed","type":"event"},{"anonymous":false,"inputs":[{"indexed":false,"internalType":"int256","name":"amountDec18","type":"int256"},{"indexed":false,"internalType":"uint16","name":"leverageTDR","type":"uint16"}],"name":"PerpetualOrderSubmitSuccess","type":"event"},{"inputs":[{"internalType":"uint24","name":"_iPerpetualId","type":"uint24"}],"name":"addPerpetual","outputs":[],"stateMutability":"nonpayable","type":"function"},{"inputs":[{"internalType":"uint256","name":"_amount","type":"uint256"},{"internalType":"uint24","name":"_iPerpetualId","type":"uint24"}],"name":"approveAmountForPerpetualMgnTkn","outputs":[],"stateMutability":"nonpayable","type":"function"},{"inputs":[{"internalType":"bytes32","name":"orderDigest","type":"bytes32"},{"internalType":"bool","name":"isExecuted","type":"bool"}],"name":"d8xExecutionCallback","outputs":[],"stateMutability":"nonpayable","type":"function"},{"inputs":[{"internalType":"uint24","name":"_iPerpetualId","type":"uint24"}],"name":"getMarginAccount","outputs":[{"components":[{"internalType":"int256","name":"lockedInValueQCD18","type":"int256"},{"internalType":"int256","name":"cashCCD18","type":"int256"},{"internalType":"int256","name":"positionSizeBCD18","type":"int256"},{"internalType":"bytes16","name":"positionId","type":"bytes16"}],"internalType":"struct D18MarginAccount","name":"","type":"tuple"}],"stateMutability":"view","type":"function"},{"inputs":[{"internalType":"uint24","name":"_iPerpetualId","type":"uint24"},{"internalType":"bool","name":"isBuy","type":"bool"}],"name":"getMaxTradeAmount","outputs":[{"internalType":"int256","name":"","type":"int256"}],"stateMutability":"view","type":"function"},{"inputs":[{"internalType":"uint8","name":"","type":"uint8"}],"name":"mgnTknAddrOfPool","outputs":[{"internalType":"address","name":"","type":"address"}],"stateMutability":"view","type":"function"},{"inputs":[{"internalType":"uint24","name":"","type":"uint24"}],"name":"orderBookOfPerpetual","outputs":[{"internalType":"address","name":"","type":"address"}],"stateMutability":"view","type":"function"},{"inputs":[],"name":"owner","outputs":[{"internalType":"address","name":"","type":"address"}],"stateMutability":"view","type":"function"},{"inputs":[],"name":"perpetualProxy","outputs":[{"internalType":"address","name":"","type":"address"}],"stateMutability":"view","type":"function"},{"inputs":[{"internalType":"uint24","name":"_iPerpetualId","type":"uint24"},{"internalType":"int256","name":"_amountDec18","type":"int256"},{"internalType":"uint16","name":"_leverageTDR","type":"uint16"},{"internalType":"uint32","name":"_flags","type":"uint32"}],"name":"postOrder","outputs":[{"internalType":"bool","name":"","type":"bool"}],"stateMutability":"nonpayable","type":"function"},{"inputs":[],"name":"renounceOwnership","outputs":[],"stateMutability":"nonpayable","type":"function"},{"inputs":[{"internalType":"uint24","name":"_iPerpetualId","type":"uint24"}],"name":"transferMarginCollateralTo","outputs":[],"stateMutability":"nonpayable","type":"function"},{"inputs":[{"internalType":"address","name":"newOwner","type":"address"}],"name":"transferOwnership","outputs":[],"stateMutability":"nonpayable","type":"function"}],"devdoc":{"kind":"dev","methods":{"addPerpetual(uint24)":{"params":{"_iPerpetualId":"id of the perpetual to be traded"}},"approveAmountForPerpetualMgnTkn(uint256,uint24)":{"params":{"_amount":"spend amount"}},"d8xExecutionCallback(bytes32,bool)":{"params":{"isExecuted":"true if order was succesfully executed","orderDigest":"unique identifier for the order"}},"getMarginAccount(uint24)":{"params":{"_iPerpetualId":"id of perpetual "}},"getMaxTradeAmount(uint24,bool)":{"params":{"_iPerpetualId":"id of perpetual","isBuy":"true if we go long, false if we go short"},"returns":{"_0":"signed maximal trade size (negative if resulting position is short, positive otherwise)"}},"owner()":{"details":"Returns the address of the current owner."},"postOrder(uint24,int256,uint16,uint32)":{"params":{"_amountDec18":"signed amount to be traded in base currency","_flags":"order-flags, can be left 0 for a market order","_iPerpetualId":"perpetual id for which we execute","_leverageTDR":"leverage two-digit-integer), e.g. 210 for 2.1x leverage"},"returns":{"_0":"true if posting order succeeded"}},"renounceOwnership()":{"details":"Leaves the contract without owner. It will not be possible to call `onlyOwner` functions anymore. Can only be called by the current owner. NOTE: Renouncing ownership will leave the contract without an owner, thereby removing any functionality that is only available to the owner."},"transferOwnership(address)":{"details":"Transfers ownership of the contract to a new account (`newOwner`). Can only be called by the current owner."}},"version":1},"evm":{"bytecode":{"linkReferences":{},"object":"60a060405234801561001057600080fd5b5060405162001bef38038062001bef8339810160408190526100319161009b565b61003a3361004b565b6001600160a01b03166080526100cb565b600080546001600160a01b038381166001600160a01b0319831681178455604051919092169283917f8be0079c531659141344cd1fd0a4f28419497f9722a3daafe3b4186f6b6457e09190a35050565b6000602082840312156100ad57600080fd5b81516001600160a01b03811681146100c457600080fd5b9392505050565b608051611ade6200011160003960008181610178015281816102be0152818161036a015281816105fc01528181610a3901528181610b610152610c4f0152611ade6000f3fe608060405234801561001057600080fd5b50600436106100df5760003560e01c806362bcc2581161008c5780639fbb0a3b116100665780639fbb0a3b146101e9578063b1bd155e14610242578063ba0e939914610255578063f2fde38b1461027e57600080fd5b806362bcc258146101ad578063715018a6146101d05780638da5cb5b146101d857600080fd5b8063230f2384116100bd578063230f2384146101605780633e99a53b146101735780635db35a041461019a57600080fd5b80630330d0c0146100e45780630df3ad4c1461012a57806322ad65db1461014b575b600080fd5b61010d6100f236600461122a565b6001602052600090815260409020546001600160a01b031681565b6040516001600160a01b0390911681526020015b60405180910390f35b61013d610138366004611253565b610291565b604051908152602001610121565b61015e61015936600461128a565b6103eb565b005b61015e61016e36600461122a565b610429565b61010d7f000000000000000000000000000000000000000000000000000000000000000081565b61015e6101a83660046112af565b61057b565b6101c06101bb3660046112eb565b61067f565b6040519015158152602001610121565b61015e610972565b6000546001600160a01b031661010d565b6101fc6101f736600461122a565b6109d8565b60405161012191908151815260208083015190820152604080830151908201526060918201516fffffffffffffffffffffffffffffffff19169181019190915260800190565b61015e61025036600461122a565b610b44565b61010d610263366004611354565b6002602052600090815260409020546001600160a01b031681565b61015e61028c366004611386565b610d62565b604051633d53a26b60e11b815262ffffff8316600482015230602482015260009081906001600160a01b037f00000000000000000000000000000000000000000000000000000000000000001690637aa744d69060440161010060405180830381865afa158015610306573d6000803e3d6000fd5b505050506040513d601f19601f8201168201806040525081019061032a919061146c565b6040808201519051633ef0eb0f60e21b815262ffffff87166004820152600f9190910b602482015284151560448201529091506000906001600160a01b037f0000000000000000000000000000000000000000000000000000000000000000169063fbc3ac3c90606401602060405180830381865afa1580156103b1573d6000803e3d6000fd5b505050506040513d601f19601f820116820180604052508101906103d5919061153f565b90506103e081610e2d565b925050505b92915050565b6040805183815282151560208201527fdd31864b23bd4f09a8914c3ee2c028bd0cbf0186a8eec21258681488239b92dd910160405180910390a15050565b6000546001600160a01b031633146104885760405162461bcd60e51b815260206004820181905260248201527f4f776e61626c653a2063616c6c6572206973206e6f7420746865206f776e657260448201526064015b60405180910390fd5b6000610497620186a083611586565b60ff81166000908152600260205260408082205490516370a0823160e01b81523060048201529293506001600160a01b03169182919082906370a0823190602401602060405180830381865afa1580156104f5573d6000803e3d6000fd5b505050506040513d601f19601f8201168201806040525081019061051991906115a8565b905061052f6001600160a01b0383163383610e59565b6040805162ffffff871681523360208201529081018290527fd7089a64efa4caccaea095308c4da0682a70797771cee9b36ab4a639054035929060600160405180910390a15050505050565b600061058a620186a083611586565b60ff81166000908152600260205260409020549091506001600160a01b0316806105e55760405162461bcd60e51b815260206004820152600c60248201526b736574206f6220616464727360a01b604482015260640161047f565b60405163095ea7b360e01b81526001600160a01b037f0000000000000000000000000000000000000000000000000000000000000000811660048301526024820186905282169063095ea7b3906044016020604051808303816000875af1158015610654573d6000803e3d6000fd5b505050506040513d601f19601f8201168201806040525081019061067891906115cc565b5050505050565b600080546001600160a01b031633146106da5760405162461bcd60e51b815260206004820181905260248201527f4f776e61626c653a2063616c6c6572206973206e6f7420746865206f776e6572604482015260640161047f565b62ffffff85166000908152600160205260409020546001600160a01b0316806107455760405162461bcd60e51b815260206004820152601260248201527f6f7264657220626f6f6b20756e6b6e6f776e0000000000000000000000000000604482015260640161047f565b600061075086610ec5565b90508363ffffffff1660000361076857634000000093505b604080516101e081018252600060208201819052918101829052606080820183905260a0820183905260c0820183905260e082018390526101208201839052610160820183905261018082018390526101a08201526101c0810182905263ffffffff8616608082015262ffffff8916815230610140820152600f83900b61010082018190529091126107fb57600061080d565b6f7fffffffffffffffffffffffffffffff5b600f0b602082015261ffff8616604082015261082c426203f4806115e9565b63ffffffff90811660a083015242166060820152306101c08201526040805160208101825260008152905163377e126560e01b81526001600160a01b0385169163377e12659161088091859160040161164c565b600060405180830381600087803b15801561089a57600080fd5b505af19250505080156108ab575060015b610926576108b76117a6565b806308c379a00361091a57506108cb6117c2565b806108d6575061091c565b7f2858238d037e52471d3ad4944d280cdb1fd3b479a3fdf698bb04e99572e6efa881604051610905919061184c565b60405180910390a1600094505050505061096a565b505b3d6000803e3d6000fd5b6040805188815261ffff881660208201527f742895f70ed9b3e00487db3827a00b9c91de8360cd96129050b8a82c99de4862910160405180910390a1600193505050505b949350505050565b6000546001600160a01b031633146109cc5760405162461bcd60e51b815260206004820181905260248201527f4f776e61626c653a2063616c6c6572206973206e6f7420746865206f776e6572604482015260640161047f565b6109d66000610f6d565b565b610a16604051806080016040528060008152602001600081526020016000815260200160006fffffffffffffffffffffffffffffffff191681525090565b604051633d53a26b60e11b815262ffffff831660048201523060248201526000907f00000000000000000000000000000000000000000000000000000000000000006001600160a01b031690637aa744d69060440161010060405180830381865afa158015610a89573d6000803e3d6000fd5b505050506040513d601f19601f82011682018060405250810190610aad919061146c565b9050610aed604051806080016040528060008152602001600081526020016000815260200160006fffffffffffffffffffffffffffffffff191681525090565b8151610af890610e2d565b81526020820151610b0890610e2d565b60208201526040820151610b1b90610e2d565b604082015260e0909101516fffffffffffffffffffffffffffffffff1916606082015292915050565b60405163079e02e960e21b815262ffffff821660048201526000907f00000000000000000000000000000000000000000000000000000000000000006001600160a01b031690631e780ba490602401602060405180830381865afa158015610bb0573d6000803e3d6000fd5b505050506040513d601f19601f82011682018060405250810190610bd4919061186a565b62ffffff8316600090815260016020526040812080546001600160a01b0319166001600160a01b038416179055909150610c11620186a084611586565b60ff81166000908152600260205260409020549091506001600160a01b0316610cf857604051631857be3960e11b815260ff821660048201526000907f00000000000000000000000000000000000000000000000000000000000000006001600160a01b0316906330af7c729060240161026060405180830381865afa158015610c9f573d6000803e3d6000fd5b505050506040513d601f19601f82011682018060405250810190610cc391906118c4565b60c0015160ff8316600090815260026020526040902080546001600160a01b0319166001600160a01b03909216919091179055505b60ff811660009081526002602090815260409182902054825162ffffff871681526001600160a01b038681169382019390935291168183015290517f5222a91cec499c7c85c5fcb8b8ddfb81880ec40273d8cda372740d8a97fa6ec79181900360600190a1505050565b6000546001600160a01b03163314610dbc5760405162461bcd60e51b815260206004820181905260248201527f4f776e61626c653a2063616c6c6572206973206e6f7420746865206f776e6572604482015260640161047f565b6001600160a01b038116610e215760405162461bcd60e51b815260206004820152602660248201527f4f776e61626c653a206e6577206f776e657220697320746865207a65726f206160448201526564647265737360d01b606482015260840161047f565b610e2a81610f6d565b50565b600068010000000000000000610e4f670de0b6b3a7640000600f85900b611a2e565b6103e59190611a5e565b604080516001600160a01b038416602482015260448082018490528251808303909101815260649091019091526020810180517bffffffffffffffffffffffffffffffffffffffffffffffffffffffff1663a9059cbb60e01b179052610ec0908490610fbd565b505050565b600080670de0b6b3a7640000610ee46801000000000000000085611a2e565b610eee9190611a5e565b90506f7fffffffffffffffffffffffffffffff198312801590610f2157506f7fffffffffffffffffffffffffffffff8313155b6103e55760405162461bcd60e51b815260206004820152601360248201527f726573756c74206f7574206f662072616e676500000000000000000000000000604482015260640161047f565b600080546001600160a01b038381166001600160a01b0319831681178455604051919092169283917f8be0079c531659141344cd1fd0a4f28419497f9722a3daafe3b4186f6b6457e09190a35050565b6000611012826040518060400160405280602081526020017f5361666545524332303a206c6f772d6c6576656c2063616c6c206661696c6564815250856001600160a01b031661108f9092919063ffffffff16565b805190915015610ec0578080602001905181019061103091906115cc565b610ec05760405162461bcd60e51b815260206004820152602a60248201527f5361666545524332303a204552433230206f7065726174696f6e20646964206e6044820152691bdd081cdd58d8d9595960b21b606482015260840161047f565b606061109e84846000856110a8565b90505b9392505050565b6060824710156111095760405162461bcd60e51b815260206004820152602660248201527f416464726573733a20696e73756666696369656e742062616c616e636520666f6044820152651c8818d85b1b60d21b606482015260840161047f565b6001600160a01b0385163b6111605760405162461bcd60e51b815260206004820152601d60248201527f416464726573733a2063616c6c20746f206e6f6e2d636f6e7472616374000000604482015260640161047f565b600080866001600160a01b0316858760405161117c9190611a8c565b60006040518083038185875af1925050503d80600081146111b9576040519150601f19603f3d011682016040523d82523d6000602084013e6111be565b606091505b50915091506111ce8282866111d9565b979650505050505050565b606083156111e85750816110a1565b8251156111f85782518084602001fd5b8160405162461bcd60e51b815260040161047f919061184c565b803562ffffff8116811461122557600080fd5b919050565b60006020828403121561123c57600080fd5b6110a182611212565b8015158114610e2a57600080fd5b6000806040838503121561126657600080fd5b61126f83611212565b9150602083013561127f81611245565b809150509250929050565b6000806040838503121561129d57600080fd5b82359150602083013561127f81611245565b600080604083850312156112c257600080fd5b823591506112d260208401611212565b90509250929050565b61ffff81168114610e2a57600080fd5b6000806000806080858703121561130157600080fd5b61130a85611212565b9350602085013592506040850135611321816112db565b9150606085013563ffffffff8116811461133a57600080fd5b939692955090935050565b60ff81168114610e2a57600080fd5b60006020828403121561136657600080fd5b81356110a181611345565b6001600160a01b0381168114610e2a57600080fd5b60006020828403121561139857600080fd5b81356110a181611371565b601f8201601f1916810167ffffffffffffffff811182821017156113d757634e487b7160e01b600052604160045260246000fd5b6040525050565b604051610260810167ffffffffffffffff8111828210171561141057634e487b7160e01b600052604160045260246000fd5b60405290565b8051600f81900b811461122557600080fd5b805167ffffffffffffffff8116811461122557600080fd5b8051611225816112db565b80516fffffffffffffffffffffffffffffffff198116811461122557600080fd5b600061010080838503121561148057600080fd5b6040519081019067ffffffffffffffff821181831017156114b157634e487b7160e01b600052604160045260246000fd5b816040526114be84611416565b81526114cc60208501611416565b60208201526114dd60408501611416565b60408201526114ee60608501611416565b60608201526114ff60808501611428565b608082015261151060a08501611440565b60a082015261152160c08501611440565b60c082015261153260e0850161144b565b60e0820152949350505050565b60006020828403121561155157600080fd5b6110a182611416565b634e487b7160e01b600052601260045260246000fd5b634e487b7160e01b600052601160045260246000fd5b600062ffffff8084168061159c5761159c61155a565b92169190910492915050565b6000602082840312156115ba57600080fd5b5051919050565b805161122581611245565b6000602082840312156115de57600080fd5b81516110a181611245565b808201808211156103e5576103e5611570565b60005b838110156116175781810151838201526020016115ff565b50506000910152565b600081518084526116388160208601602086016115fc565b601f01601f19169290920160200192915050565b6040815261166260408201845162ffffff169052565b600060208401516116786060840182600f0b9052565b50604084015161ffff8116608084015250606084015163ffffffff811660a084015250608084015163ffffffff811660c08401525060a084015163ffffffff811660e08401525060c08401516101006116db818501836001600160a01b03169052565b60e086015191506101206116f381860184600f0b9052565b9086015191506101409061170b85830184600f0b9052565b8601516101608581019190915290860151915061018090611736828601846001600160a01b03169052565b8601516101a0858101919091529086015191506101c09061175c8286018461ffff169052565b8601516101e0858101529150611776610220850183611620565b908601516001600160a01b03166102008501528381036020850152905061179d8185611620565b95945050505050565b600060033d11156117bf5760046000803e5060005160e01c5b90565b600060443d10156117d05790565b6040516003193d81016004833e81513d67ffffffffffffffff816024840111818411171561180057505050505090565b82850191508151818111156118185750505050505090565b843d87010160208285010111156118325750505050505090565b611841602082860101876113a3565b509095945050505050565b6020815260006110a16020830184611620565b805161122581611371565b60006020828403121561187c57600080fd5b81516110a181611371565b805161122581611345565b8051600381900b811461122557600080fd5b80516fffffffffffffffffffffffffffffffff8116811461122557600080fd5b600061026082840312156118d757600080fd5b6118df6113de565b6118e8836115c1565b81526118f660208401611887565b602082015261190760408401611887565b604082015261191860608401611892565b606082015261192960808401611887565b608082015261193a60a08401611440565b60a082015261194b60c0840161185f565b60c082015261195c60e08401611428565b60e082015261010061196f818501611416565b9082015261012061198184820161185f565b90820152610140611993848201611416565b908201526101606119a5848201611416565b908201526101806119b7848201611416565b908201526101a06119c9848201611416565b908201526101c06119db848201611416565b908201526101e06119ed8482016118a4565b908201526102006119ff8482016118a4565b90820152610220611a118482016118a4565b90820152610240611a23848201611416565b908201529392505050565b80820260008212600160ff1b84141615611a4a57611a4a611570565b81810583148215176103e5576103e5611570565b600082611a6d57611a6d61155a565b600160ff1b821460001984141615611a8757611a87611570565b500590565b60008251611a9e8184602087016115fc565b919091019291505056fea26469706673582212203121149689497d39ce33d819ac2504e0db298b9dca307dd831ea8e628241cc3c64736f6c63430008130033","opcodes":"PUSH1 0xA0 PUSH1 0x40 MSTORE CALLVALUE DUP1 ISZERO PUSH2 0x10 JUMPI PUSH1 0x0 DUP1 REVERT JUMPDEST POP PUSH1 0x40 MLOAD PUSH3 0x1BEF CODESIZE SUB DUP1 PUSH3 0x1BEF DUP4 CODECOPY DUP2 ADD PUSH1 0x40 DUP2 SWAP1 MSTORE PUSH2 0x31 SWAP2 PUSH2 0x9B JUMP JUMPDEST PUSH2 0x3A CALLER PUSH2 0x4B JUMP JUMPDEST PUSH1 0x1 PUSH1 0x1 PUSH1 0xA0 SHL SUB AND PUSH1 0x80 MSTORE PUSH2 0xCB JUMP JUMPDEST PUSH1 0x0 DUP1 SLOAD PUSH1 0x1 PUSH1 0x1 PUSH1 0xA0 SHL SUB DUP4 DUP2 AND PUSH1 0x1 PUSH1 0x1 PUSH1 0xA0 SHL SUB NOT DUP4 AND DUP2 OR DUP5 SSTORE PUSH1 0x40 MLOAD SWAP2 SWAP1 SWAP3 AND SWAP3 DUP4 SWAP2 PUSH32 0x8BE0079C531659141344CD1FD0A4F28419497F9722A3DAAFE3B4186F6B6457E0 SWAP2 SWAP1 LOG3 POP POP JUMP JUMPDEST PUSH1 0x0 PUSH1 0x20 DUP3 DUP5 SUB SLT ISZERO PUSH2 0xAD JUMPI PUSH1 0x0 DUP1 REVERT JUMPDEST DUP2 MLOAD PUSH1 0x1 PUSH1 0x1 PUSH1 0xA0 SHL SUB DUP2 AND DUP2 EQ PUSH2 0xC4 JUMPI PUSH1 0x0 DUP1 REVERT JUMPDEST SWAP4 SWAP3 POP POP POP JUMP JUMPDEST PUSH1 0x80 MLOAD PUSH2 0x1ADE PUSH3 0x111 PUSH1 0x0 CODECOPY PUSH1 0x0 DUP2 DUP2 PUSH2 0x178 ADD MSTORE DUP2 DUP2 PUSH2 0x2BE ADD MSTORE DUP2 DUP2 PUSH2 0x36A ADD MSTORE DUP2 DUP2 PUSH2 0x5FC ADD MSTORE DUP2 DUP2 PUSH2 0xA39 ADD MSTORE DUP2 DUP2 PUSH2 0xB61 ADD MSTORE PUSH2 0xC4F ADD MSTORE PUSH2 0x1ADE PUSH1 0x0 RETURN INVALID PUSH1 0x80 PUSH1 0x40 MSTORE CALLVALUE DUP1 ISZERO PUSH2 0x10 JUMPI PUSH1 0x0 DUP1 REVERT JUMPDEST POP PUSH1 0x4 CALLDATASIZE LT PUSH2 0xDF JUMPI PUSH1 0x0 CALLDATALOAD PUSH1 0xE0 SHR DUP1 PUSH4 0x62BCC258 GT PUSH2 0x8C JUMPI DUP1 PUSH4 0x9FBB0A3B GT PUSH2 0x66 JUMPI DUP1 PUSH4 0x9FBB0A3B EQ PUSH2 0x1E9 JUMPI DUP1 PUSH4 0xB1BD155E EQ PUSH2 0x242 JUMPI DUP1 PUSH4 0xBA0E9399 EQ PUSH2 0x255 JUMPI DUP1 PUSH4 0xF2FDE38B EQ PUSH2 0x27E JUMPI PUSH1 0x0 DUP1 REVERT JUMPDEST DUP1 PUSH4 0x62BCC258 EQ PUSH2 0x1AD JUMPI DUP1 PUSH4 0x715018A6 EQ PUSH2 0x1D0 JUMPI DUP1 PUSH4 0x8DA5CB5B EQ PUSH2 0x1D8 JUMPI PUSH1 0x0 DUP1 REVERT JUMPDEST DUP1 PUSH4 0x230F2384 GT PUSH2 0xBD JUMPI DUP1 PUSH4 0x230F2384 EQ PUSH2 0x160 JUMPI DUP1 PUSH4 0x3E99A53B EQ PUSH2 0x173 JUMPI DUP1 PUSH4 0x5DB35A04 EQ PUSH2 0x19A JUMPI PUSH1 0x0 DUP1 REVERT JUMPDEST DUP1 PUSH4 0x330D0C0 EQ PUSH2 0xE4 JUMPI DUP1 PUSH4 0xDF3AD4C EQ PUSH2 0x12A JUMPI DUP1 PUSH4 0x22AD65DB EQ PUSH2 0x14B JUMPI JUMPDEST PUSH1 0x0 DUP1 REVERT JUMPDEST PUSH2 0x10D PUSH2 0xF2 CALLDATASIZE PUSH1 0x4 PUSH2 0x122A JUMP JUMPDEST PUSH1 0x1 PUSH1 0x20 MSTORE PUSH1 0x0 SWAP1 DUP2 MSTORE PUSH1 0x40 SWAP1 KECCAK256 SLOAD PUSH1 0x1 PUSH1 0x1 PUSH1 0xA0 SHL SUB AND DUP2 JUMP JUMPDEST PUSH1 0x40 MLOAD PUSH1 0x1 PUSH1 0x1 PUSH1 0xA0 SHL SUB SWAP1 SWAP2 AND DUP2 MSTORE PUSH1 0x20 ADD JUMPDEST PUSH1 0x40 MLOAD DUP1 SWAP2 SUB SWAP1 RETURN JUMPDEST PUSH2 0x13D PUSH2 0x138 CALLDATASIZE PUSH1 0x4 PUSH2 0x1253 JUMP JUMPDEST PUSH2 0x291 JUMP JUMPDEST PUSH1 0x40 MLOAD SWAP1 DUP2 MSTORE PUSH1 0x20 ADD PUSH2 0x121 JUMP JUMPDEST PUSH2 0x15E PUSH2 0x159 CALLDATASIZE PUSH1 0x4 PUSH2 0x128A JUMP JUMPDEST PUSH2 0x3EB JUMP JUMPDEST STOP JUMPDEST PUSH2 0x15E PUSH2 0x16E CALLDATASIZE PUSH1 0x4 PUSH2 0x122A JUMP JUMPDEST PUSH2 0x429 JUMP JUMPDEST PUSH2 0x10D PUSH32 0x0 DUP2 JUMP JUMPDEST PUSH2 0x15E PUSH2 0x1A8 CALLDATASIZE PUSH1 0x4 PUSH2 0x12AF JUMP JUMPDEST PUSH2 0x57B JUMP JUMPDEST PUSH2 0x1C0 PUSH2 0x1BB CALLDATASIZE PUSH1 0x4 PUSH2 0x12EB JUMP JUMPDEST PUSH2 0x67F JUMP JUMPDEST PUSH1 0x40 MLOAD SWAP1 ISZERO ISZERO DUP2 MSTORE PUSH1 0x20 ADD PUSH2 0x121 JUMP JUMPDEST PUSH2 0x15E PUSH2 0x972 JUMP JUMPDEST PUSH1 0x0 SLOAD PUSH1 0x1 PUSH1 0x1 PUSH1 0xA0 SHL SUB AND PUSH2 0x10D JUMP JUMPDEST PUSH2 0x1FC PUSH2 0x1F7 CALLDATASIZE PUSH1 0x4 PUSH2 0x122A JUMP JUMPDEST PUSH2 0x9D8 JUMP JUMPDEST PUSH1 0x40 MLOAD PUSH2 0x121 SWAP2 SWAP1 DUP2 MLOAD DUP2 MSTORE PUSH1 0x20 DUP1 DUP4 ADD MLOAD SWAP1 DUP3 ADD MSTORE PUSH1 0x40 DUP1 DUP4 ADD MLOAD SWAP1 DUP3 ADD MSTORE PUSH1 0x60 SWAP2 DUP3 ADD MLOAD PUSH16 0xFFFFFFFFFFFFFFFFFFFFFFFFFFFFFFFF NOT AND SWAP2 DUP2 ADD SWAP2 SWAP1 SWAP2 MSTORE PUSH1 0x80 ADD SWAP1 JUMP JUMPDEST PUSH2 0x15E PUSH2 0x250 CALLDATASIZE PUSH1 0x4 PUSH2 0x122A JUMP JUMPDEST PUSH2 0xB44 JUMP JUMPDEST PUSH2 0x10D PUSH2 0x263 CALLDATASIZE PUSH1 0x4 PUSH2 0x1354 JUMP JUMPDEST PUSH1 0x2 PUSH1 0x20 MSTORE PUSH1 0x0 SWAP1 DUP2 MSTORE PUSH1 0x40 SWAP1 KECCAK256 SLOAD PUSH1 0x1 PUSH1 0x1 PUSH1 0xA0 SHL SUB AND DUP2 JUMP JUMPDEST PUSH2 0x15E PUSH2 0x28C CALLDATASIZE PUSH1 0x4 PUSH2 0x1386 JUMP JUMPDEST PUSH2 0xD62 JUMP JUMPDEST PUSH1 0x40 MLOAD PUSH4 0x3D53A26B PUSH1 0xE1 SHL DUP2 MSTORE PUSH3 0xFFFFFF DUP4 AND PUSH1 0x4 DUP3 ADD MSTORE ADDRESS PUSH1 0x24 DUP3 ADD MSTORE PUSH1 0x0 SWAP1 DUP2 SWAP1 PUSH1 0x1 PUSH1 0x1 PUSH1 0xA0 SHL SUB PUSH32 0x0 AND SWAP1 PUSH4 0x7AA744D6 SWAP1 PUSH1 0x44 ADD PUSH2 0x100 PUSH1 0x40 MLOAD DUP1 DUP4 SUB DUP2 DUP7 GAS STATICCALL ISZERO DUP1 ISZERO PUSH2 0x306 JUMPI RETURNDATASIZE PUSH1 0x0 DUP1 RETURNDATACOPY RETURNDATASIZE PUSH1 0x0 REVERT JUMPDEST POP POP POP POP PUSH1 0x40 MLOAD RETURNDATASIZE PUSH1 0x1F NOT PUSH1 0x1F DUP3 ADD AND DUP3 ADD DUP1 PUSH1 0x40 MSTORE POP DUP2 ADD SWAP1 PUSH2 0x32A SWAP2 SWAP1 PUSH2 0x146C JUMP JUMPDEST PUSH1 0x40 DUP1 DUP3 ADD MLOAD SWAP1 MLOAD PUSH4 0x3EF0EB0F PUSH1 0xE2 SHL DUP2 MSTORE PUSH3 0xFFFFFF DUP8 AND PUSH1 0x4 DUP3 ADD MSTORE PUSH1 0xF SWAP2 SWAP1 SWAP2 SIGNEXTEND PUSH1 0x24 DUP3 ADD MSTORE DUP5 ISZERO ISZERO PUSH1 0x44 DUP3 ADD MSTORE SWAP1 SWAP2 POP PUSH1 0x0 SWAP1 PUSH1 0x1 PUSH1 0x1 PUSH1 0xA0 SHL SUB PUSH32 0x0 AND SWAP1 PUSH4 0xFBC3AC3C SWAP1 PUSH1 0x64 ADD PUSH1 0x20 PUSH1 0x40 MLOAD DUP1 DUP4 SUB DUP2 DUP7 GAS STATICCALL ISZERO DUP1 ISZERO PUSH2 0x3B1 JUMPI RETURNDATASIZE PUSH1 0x0 DUP1 RETURNDATACOPY RETURNDATASIZE PUSH1 0x0 REVERT JUMPDEST POP POP POP POP PUSH1 0x40 MLOAD RETURNDATASIZE PUSH1 0x1F NOT PUSH1 0x1F DUP3 ADD AND DUP3 ADD DUP1 PUSH1 0x40 MSTORE POP DUP2 ADD SWAP1 PUSH2 0x3D5 SWAP2 SWAP1 PUSH2 0x153F JUMP JUMPDEST SWAP1 POP PUSH2 0x3E0 DUP2 PUSH2 0xE2D JUMP JUMPDEST SWAP3 POP POP POP JUMPDEST SWAP3 SWAP2 POP POP JUMP JUMPDEST PUSH1 0x40 DUP1 MLOAD DUP4 DUP2 MSTORE DUP3 ISZERO ISZERO PUSH1 0x20 DUP3 ADD MSTORE PUSH32 0xDD31864B23BD4F09A8914C3EE2C028BD0CBF0186A8EEC21258681488239B92DD SWAP2 ADD PUSH1 0x40 MLOAD DUP1 SWAP2 SUB SWAP1 LOG1 POP POP JUMP JUMPDEST PUSH1 0x0 SLOAD PUSH1 0x1 PUSH1 0x1 PUSH1 0xA0 SHL SUB AND CALLER EQ PUSH2 0x488 JUMPI PUSH1 0x40 MLOAD PUSH3 0x461BCD PUSH1 0xE5 SHL DUP2 MSTORE PUSH1 0x20 PUSH1 0x4 DUP3 ADD DUP2 SWAP1 MSTORE PUSH1 0x24 DUP3 ADD MSTORE PUSH32 0x4F776E61626C653A2063616C6C6572206973206E6F7420746865206F776E6572 PUSH1 0x44 DUP3 ADD MSTORE PUSH1 0x64 ADD JUMPDEST PUSH1 0x40 MLOAD DUP1 SWAP2 SUB SWAP1 REVERT JUMPDEST PUSH1 0x0 PUSH2 0x497 PUSH3 0x186A0 DUP4 PUSH2 0x1586 JUMP JUMPDEST PUSH1 0xFF DUP2 AND PUSH1 0x0 SWAP1 DUP2 MSTORE PUSH1 0x2 PUSH1 0x20 MSTORE PUSH1 0x40 DUP1 DUP3 KECCAK256 SLOAD SWAP1 MLOAD PUSH4 0x70A08231 PUSH1 0xE0 SHL DUP2 MSTORE ADDRESS PUSH1 0x4 DUP3 ADD MSTORE SWAP3 SWAP4 POP PUSH1 0x1 PUSH1 0x1 PUSH1 0xA0 SHL SUB AND SWAP2 DUP3 SWAP2 SWAP1 DUP3 SWAP1 PUSH4 0x70A08231 SWAP1 PUSH1 0x24 ADD PUSH1 0x20 PUSH1 0x40 MLOAD DUP1 DUP4 SUB DUP2 DUP7 GAS STATICCALL ISZERO DUP1 ISZERO PUSH2 0x4F5 JUMPI RETURNDATASIZE PUSH1 0x0 DUP1 RETURNDATACOPY RETURNDATASIZE PUSH1 0x0 REVERT JUMPDEST POP POP POP POP PUSH1 0x40 MLOAD RETURNDATASIZE PUSH1 0x1F NOT PUSH1 0x1F DUP3 ADD AND DUP3 ADD DUP1 PUSH1 0x40 MSTORE POP DUP2 ADD SWAP1 PUSH2 0x519 SWAP2 SWAP1 PUSH2 0x15A8 JUMP JUMPDEST SWAP1 POP PUSH2 0x52F PUSH1 0x1 PUSH1 0x1 PUSH1 0xA0 SHL SUB DUP4 AND CALLER DUP4 PUSH2 0xE59 JUMP JUMPDEST PUSH1 0x40 DUP1 MLOAD PUSH3 0xFFFFFF DUP8 AND DUP2 MSTORE CALLER PUSH1 0x20 DUP3 ADD MSTORE SWAP1 DUP2 ADD DUP3 SWAP1 MSTORE PUSH32 0xD7089A64EFA4CACCAEA095308C4DA0682A70797771CEE9B36AB4A63905403592 SWAP1 PUSH1 0x60 ADD PUSH1 0x40 MLOAD DUP1 SWAP2 SUB SWAP1 LOG1 POP POP POP POP POP JUMP JUMPDEST PUSH1 0x0 PUSH2 0x58A PUSH3 0x186A0 DUP4 PUSH2 0x1586 JUMP JUMPDEST PUSH1 0xFF DUP2 AND PUSH1 0x0 SWAP1 DUP2 MSTORE PUSH1 0x2 PUSH1 0x20 MSTORE PUSH1 0x40 SWAP1 KECCAK256 SLOAD SWAP1 SWAP2 POP PUSH1 0x1 PUSH1 0x1 PUSH1 0xA0 SHL SUB AND DUP1 PUSH2 0x5E5 JUMPI PUSH1 0x40 MLOAD PUSH3 0x461BCD PUSH1 0xE5 SHL DUP2 MSTORE PUSH1 0x20 PUSH1 0x4 DUP3 ADD MSTORE PUSH1 0xC PUSH1 0x24 DUP3 ADD MSTORE PUSH12 0x736574206F62206164647273 PUSH1 0xA0 SHL PUSH1 0x44 DUP3 ADD MSTORE PUSH1 0x64 ADD PUSH2 0x47F JUMP JUMPDEST PUSH1 0x40 MLOAD PUSH4 0x95EA7B3 PUSH1 0xE0 SHL DUP2 MSTORE PUSH1 0x1 PUSH1 0x1 PUSH1 0xA0 SHL SUB PUSH32 0x0 DUP2 AND PUSH1 0x4 DUP4 ADD MSTORE PUSH1 0x24 DUP3 ADD DUP7 SWAP1 MSTORE DUP3 AND SWAP1 PUSH4 0x95EA7B3 SWAP1 PUSH1 0x44 ADD PUSH1 0x20 PUSH1 0x40 MLOAD DUP1 DUP4 SUB DUP2 PUSH1 0x0 DUP8 GAS CALL ISZERO DUP1 ISZERO PUSH2 0x654 JUMPI RETURNDATASIZE PUSH1 0x0 DUP1 RETURNDATACOPY RETURNDATASIZE PUSH1 0x0 REVERT JUMPDEST POP POP POP POP PUSH1 0x40 MLOAD RETURNDATASIZE PUSH1 0x1F NOT PUSH1 0x1F DUP3 ADD AND DUP3 ADD DUP1 PUSH1 0x40 MSTORE POP DUP2 ADD SWAP1 PUSH2 0x678 SWAP2 SWAP1 PUSH2 0x15CC JUMP JUMPDEST POP POP POP POP POP JUMP JUMPDEST PUSH1 0x0 DUP1 SLOAD PUSH1 0x1 PUSH1 0x1 PUSH1 0xA0 SHL SUB AND CALLER EQ PUSH2 0x6DA JUMPI PUSH1 0x40 MLOAD PUSH3 0x461BCD PUSH1 0xE5 SHL DUP2 MSTORE PUSH1 0x20 PUSH1 0x4 DUP3 ADD DUP2 SWAP1 MSTORE PUSH1 0x24 DUP3 ADD MSTORE PUSH32 0x4F776E61626C653A2063616C6C6572206973206E6F7420746865206F776E6572 PUSH1 0x44 DUP3 ADD MSTORE PUSH1 0x64 ADD PUSH2 0x47F JUMP JUMPDEST PUSH3 0xFFFFFF DUP6 AND PUSH1 0x0 SWAP1 DUP2 MSTORE PUSH1 0x1 PUSH1 0x20 MSTORE PUSH1 0x40 SWAP1 KECCAK256 SLOAD PUSH1 0x1 PUSH1 0x1 PUSH1 0xA0 SHL SUB AND DUP1 PUSH2 0x745 JUMPI PUSH1 0x40 MLOAD PUSH3 0x461BCD PUSH1 0xE5 SHL DUP2 MSTORE PUSH1 0x20 PUSH1 0x4 DUP3 ADD MSTORE PUSH1 0x12 PUSH1 0x24 DUP3 ADD MSTORE PUSH32 0x6F7264657220626F6F6B20756E6B6E6F776E0000000000000000000000000000 PUSH1 0x44 DUP3 ADD MSTORE PUSH1 0x64 ADD PUSH2 0x47F JUMP JUMPDEST PUSH1 0x0 PUSH2 0x750 DUP7 PUSH2 0xEC5 JUMP JUMPDEST SWAP1 POP DUP4 PUSH4 0xFFFFFFFF AND PUSH1 0x0 SUB PUSH2 0x768 JUMPI PUSH4 0x40000000 SWAP4 POP JUMPDEST PUSH1 0x40 DUP1 MLOAD PUSH2 0x1E0 DUP2 ADD DUP3 MSTORE PUSH1 0x0 PUSH1 0x20 DUP3 ADD DUP2 SWAP1 MSTORE SWAP2 DUP2 ADD DUP3 SWAP1 MSTORE PUSH1 0x60 DUP1 DUP3 ADD DUP4 SWAP1 MSTORE PUSH1 0xA0 DUP3 ADD DUP4 SWAP1 MSTORE PUSH1 0xC0 DUP3 ADD DUP4 SWAP1 MSTORE PUSH1 0xE0 DUP3 ADD DUP4 SWAP1 MSTORE PUSH2 0x120 DUP3 ADD DUP4 SWAP1 MSTORE PUSH2 0x160 DUP3 ADD DUP4 SWAP1 MSTORE PUSH2 0x180 DUP3 ADD DUP4 SWAP1 MSTORE PUSH2 0x1A0 DUP3 ADD MSTORE PUSH2 0x1C0 DUP2 ADD DUP3 SWAP1 MSTORE PUSH4 0xFFFFFFFF DUP7 AND PUSH1 0x80 DUP3 ADD MSTORE PUSH3 0xFFFFFF DUP10 AND DUP2 MSTORE ADDRESS PUSH2 0x140 DUP3 ADD MSTORE PUSH1 0xF DUP4 SWAP1 SIGNEXTEND PUSH2 0x100 DUP3 ADD DUP2 SWAP1 MSTORE SWAP1 SWAP2 SLT PUSH2 0x7FB JUMPI PUSH1 0x0 PUSH2 0x80D JUMP JUMPDEST PUSH16 0x7FFFFFFFFFFFFFFFFFFFFFFFFFFFFFFF JUMPDEST PUSH1 0xF SIGNEXTEND PUSH1 0x20 DUP3 ADD MSTORE PUSH2 0xFFFF DUP7 AND PUSH1 0x40 DUP3 ADD MSTORE PUSH2 0x82C TIMESTAMP PUSH3 0x3F480 PUSH2 0x15E9 JUMP JUMPDEST PUSH4 0xFFFFFFFF SWAP1 DUP2 AND PUSH1 0xA0 DUP4 ADD MSTORE TIMESTAMP AND PUSH1 0x60 DUP3 ADD MSTORE ADDRESS PUSH2 0x1C0 DUP3 ADD MSTORE PUSH1 0x40 DUP1 MLOAD PUSH1 0x20 DUP2 ADD DUP3 MSTORE PUSH1 0x0 DUP2 MSTORE SWAP1 MLOAD PUSH4 0x377E1265 PUSH1 0xE0 SHL DUP2 MSTORE PUSH1 0x1 PUSH1 0x1 PUSH1 0xA0 SHL SUB DUP6 AND SWAP2 PUSH4 0x377E1265 SWAP2 PUSH2 0x880 SWAP2 DUP6 SWAP2 PUSH1 0x4 ADD PUSH2 0x164C JUMP JUMPDEST PUSH1 0x0 PUSH1 0x40 MLOAD DUP1 DUP4 SUB DUP2 PUSH1 0x0 DUP8 DUP1 EXTCODESIZE ISZERO DUP1 ISZERO PUSH2 0x89A JUMPI PUSH1 0x0 DUP1 REVERT JUMPDEST POP GAS CALL SWAP3 POP POP POP DUP1 ISZERO PUSH2 0x8AB JUMPI POP PUSH1 0x1 JUMPDEST PUSH2 0x926 JUMPI PUSH2 0x8B7 PUSH2 0x17A6 JUMP JUMPDEST DUP1 PUSH4 0x8C379A0 SUB PUSH2 0x91A JUMPI POP PUSH2 0x8CB PUSH2 0x17C2 JUMP JUMPDEST DUP1 PUSH2 0x8D6 JUMPI POP PUSH2 0x91C JUMP JUMPDEST PUSH32 0x2858238D037E52471D3AD4944D280CDB1FD3B479A3FDF698BB04E99572E6EFA8 DUP2 PUSH1 0x40 MLOAD PUSH2 0x905 SWAP2 SWAP1 PUSH2 0x184C JUMP JUMPDEST PUSH1 0x40 MLOAD DUP1 SWAP2 SUB SWAP1 LOG1 PUSH1 0x0 SWAP5 POP POP POP POP POP PUSH2 0x96A JUMP JUMPDEST POP JUMPDEST RETURNDATASIZE PUSH1 0x0 DUP1 RETURNDATACOPY RETURNDATASIZE PUSH1 0x0 REVERT JUMPDEST PUSH1 0x40 DUP1 MLOAD DUP9 DUP2 MSTORE PUSH2 0xFFFF DUP9 AND PUSH1 0x20 DUP3 ADD MSTORE PUSH32 0x742895F70ED9B3E00487DB3827A00B9C91DE8360CD96129050B8A82C99DE4862 SWAP2 ADD PUSH1 0x40 MLOAD DUP1 SWAP2 SUB SWAP1 LOG1 PUSH1 0x1 SWAP4 POP POP POP POP JUMPDEST SWAP5 SWAP4 POP POP POP POP JUMP JUMPDEST PUSH1 0x0 SLOAD PUSH1 0x1 PUSH1 0x1 PUSH1 0xA0 SHL SUB AND CALLER EQ PUSH2 0x9CC JUMPI PUSH1 0x40 MLOAD PUSH3 0x461BCD PUSH1 0xE5 SHL DUP2 MSTORE PUSH1 0x20 PUSH1 0x4 DUP3 ADD DUP2 SWAP1 MSTORE PUSH1 0x24 DUP3 ADD MSTORE PUSH32 0x4F776E61626C653A2063616C6C6572206973206E6F7420746865206F776E6572 PUSH1 0x44 DUP3 ADD MSTORE PUSH1 0x64 ADD PUSH2 0x47F JUMP JUMPDEST PUSH2 0x9D6 PUSH1 0x0 PUSH2 0xF6D JUMP JUMPDEST JUMP JUMPDEST PUSH2 0xA16 PUSH1 0x40 MLOAD DUP1 PUSH1 0x80 ADD PUSH1 0x40 MSTORE DUP1 PUSH1 0x0 DUP2 MSTORE PUSH1 0x20 ADD PUSH1 0x0 DUP2 MSTORE PUSH1 0x20 ADD PUSH1 0x0 DUP2 MSTORE PUSH1 0x20 ADD PUSH1 0x0 PUSH16 0xFFFFFFFFFFFFFFFFFFFFFFFFFFFFFFFF NOT AND DUP2 MSTORE POP SWAP1 JUMP JUMPDEST PUSH1 0x40 MLOAD PUSH4 0x3D53A26B PUSH1 0xE1 SHL DUP2 MSTORE PUSH3 0xFFFFFF DUP4 AND PUSH1 0x4 DUP3 ADD MSTORE ADDRESS PUSH1 0x24 DUP3 ADD MSTORE PUSH1 0x0 SWAP1 PUSH32 0x0 PUSH1 0x1 PUSH1 0x1 PUSH1 0xA0 SHL SUB AND SWAP1 PUSH4 0x7AA744D6 SWAP1 PUSH1 0x44 ADD PUSH2 0x100 PUSH1 0x40 MLOAD DUP1 DUP4 SUB DUP2 DUP7 GAS STATICCALL ISZERO DUP1 ISZERO PUSH2 0xA89 JUMPI RETURNDATASIZE PUSH1 0x0 DUP1 RETURNDATACOPY RETURNDATASIZE PUSH1 0x0 REVERT JUMPDEST POP POP POP POP PUSH1 0x40 MLOAD RETURNDATASIZE PUSH1 0x1F NOT PUSH1 0x1F DUP3 ADD AND DUP3 ADD DUP1 PUSH1 0x40 MSTORE POP DUP2 ADD SWAP1 PUSH2 0xAAD SWAP2 SWAP1 PUSH2 0x146C JUMP JUMPDEST SWAP1 POP PUSH2 0xAED PUSH1 0x40 MLOAD DUP1 PUSH1 0x80 ADD PUSH1 0x40 MSTORE DUP1 PUSH1 0x0 DUP2 MSTORE PUSH1 0x20 ADD PUSH1 0x0 DUP2 MSTORE PUSH1 0x20 ADD PUSH1 0x0 DUP2 MSTORE PUSH1 0x20 ADD PUSH1 0x0 PUSH16 0xFFFFFFFFFFFFFFFFFFFFFFFFFFFFFFFF NOT AND DUP2 MSTORE POP SWAP1 JUMP JUMPDEST DUP2 MLOAD PUSH2 0xAF8 SWAP1 PUSH2 0xE2D JUMP JUMPDEST DUP2 MSTORE PUSH1 0x20 DUP3 ADD MLOAD PUSH2 0xB08 SWAP1 PUSH2 0xE2D JUMP JUMPDEST PUSH1 0x20 DUP3 ADD MSTORE PUSH1 0x40 DUP3 ADD MLOAD PUSH2 0xB1B SWAP1 PUSH2 0xE2D JUMP JUMPDEST PUSH1 0x40 DUP3 ADD MSTORE PUSH1 0xE0 SWAP1 SWAP2 ADD MLOAD PUSH16 0xFFFFFFFFFFFFFFFFFFFFFFFFFFFFFFFF NOT AND PUSH1 0x60 DUP3 ADD MSTORE SWAP3 SWAP2 POP POP JUMP JUMPDEST PUSH1 0x40 MLOAD PUSH4 0x79E02E9 PUSH1 0xE2 SHL DUP2 MSTORE PUSH3 0xFFFFFF DUP3 AND PUSH1 0x4 DUP3 ADD MSTORE PUSH1 0x0 SWAP1 PUSH32 0x0 PUSH1 0x1 PUSH1 0x1 PUSH1 0xA0 SHL SUB AND SWAP1 PUSH4 0x1E780BA4 SWAP1 PUSH1 0x24 ADD PUSH1 0x20 PUSH1 0x40 MLOAD DUP1 DUP4 SUB DUP2 DUP7 GAS STATICCALL ISZERO DUP1 ISZERO PUSH2 0xBB0 JUMPI RETURNDATASIZE PUSH1 0x0 DUP1 RETURNDATACOPY RETURNDATASIZE PUSH1 0x0 REVERT JUMPDEST POP POP POP POP PUSH1 0x40 MLOAD RETURNDATASIZE PUSH1 0x1F NOT PUSH1 0x1F DUP3 ADD AND DUP3 ADD DUP1 PUSH1 0x40 MSTORE POP DUP2 ADD SWAP1 PUSH2 0xBD4 SWAP2 SWAP1 PUSH2 0x186A JUMP JUMPDEST PUSH3 0xFFFFFF DUP4 AND PUSH1 0x0 SWAP1 DUP2 MSTORE PUSH1 0x1 PUSH1 0x20 MSTORE PUSH1 0x40 DUP2 KECCAK256 DUP1 SLOAD PUSH1 0x1 PUSH1 0x1 PUSH1 0xA0 SHL SUB NOT AND PUSH1 0x1 PUSH1 0x1 PUSH1 0xA0 SHL SUB DUP5 AND OR SWAP1 SSTORE SWAP1 SWAP2 POP PUSH2 0xC11 PUSH3 0x186A0 DUP5 PUSH2 0x1586 JUMP JUMPDEST PUSH1 0xFF DUP2 AND PUSH1 0x0 SWAP1 DUP2 MSTORE PUSH1 0x2 PUSH1 0x20 MSTORE PUSH1 0x40 SWAP1 KECCAK256 SLOAD SWAP1 SWAP2 POP PUSH1 0x1 PUSH1 0x1 PUSH1 0xA0 SHL SUB AND PUSH2 0xCF8 JUMPI PUSH1 0x40 MLOAD PUSH4 0x1857BE39 PUSH1 0xE1 SHL DUP2 MSTORE PUSH1 0xFF DUP3 AND PUSH1 0x4 DUP3 ADD MSTORE PUSH1 0x0 SWAP1 PUSH32 0x0 PUSH1 0x1 PUSH1 0x1 PUSH1 0xA0 SHL SUB AND SWAP1 PUSH4 0x30AF7C72 SWAP1 PUSH1 0x24 ADD PUSH2 0x260 PUSH1 0x40 MLOAD DUP1 DUP4 SUB DUP2 DUP7 GAS STATICCALL ISZERO DUP1 ISZERO PUSH2 0xC9F JUMPI RETURNDATASIZE PUSH1 0x0 DUP1 RETURNDATACOPY RETURNDATASIZE PUSH1 0x0 REVERT JUMPDEST POP POP POP POP PUSH1 0x40 MLOAD RETURNDATASIZE PUSH1 0x1F NOT PUSH1 0x1F DUP3 ADD AND DUP3 ADD DUP1 PUSH1 0x40 MSTORE POP DUP2 ADD SWAP1 PUSH2 0xCC3 SWAP2 SWAP1 PUSH2 0x18C4 JUMP JUMPDEST PUSH1 0xC0 ADD MLOAD PUSH1 0xFF DUP4 AND PUSH1 0x0 SWAP1 DUP2 MSTORE PUSH1 0x2 PUSH1 0x20 MSTORE PUSH1 0x40 SWAP1 KECCAK256 DUP1 SLOAD PUSH1 0x1 PUSH1 0x1 PUSH1 0xA0 SHL SUB NOT AND PUSH1 0x1 PUSH1 0x1 PUSH1 0xA0 SHL SUB SWAP1 SWAP3 AND SWAP2 SWAP1 SWAP2 OR SWAP1 SSTORE POP JUMPDEST PUSH1 0xFF DUP2 AND PUSH1 0x0 SWAP1 DUP2 MSTORE PUSH1 0x2 PUSH1 0x20 SWAP1 DUP2 MSTORE PUSH1 0x40 SWAP2 DUP3 SWAP1 KECCAK256 SLOAD DUP3 MLOAD PUSH3 0xFFFFFF DUP8 AND DUP2 MSTORE PUSH1 0x1 PUSH1 0x1 PUSH1 0xA0 SHL SUB DUP7 DUP2 AND SWAP4 DUP3 ADD SWAP4 SWAP1 SWAP4 MSTORE SWAP2 AND DUP2 DUP4 ADD MSTORE SWAP1 MLOAD PUSH32 0x5222A91CEC499C7C85C5FCB8B8DDFB81880EC40273D8CDA372740D8A97FA6EC7 SWAP2 DUP2 SWAP1 SUB PUSH1 0x60 ADD SWAP1 LOG1 POP POP POP JUMP JUMPDEST PUSH1 0x0 SLOAD PUSH1 0x1 PUSH1 0x1 PUSH1 0xA0 SHL SUB AND CALLER EQ PUSH2 0xDBC JUMPI PUSH1 0x40 MLOAD PUSH3 0x461BCD PUSH1 0xE5 SHL DUP2 MSTORE PUSH1 0x20 PUSH1 0x4 DUP3 ADD DUP2 SWAP1 MSTORE PUSH1 0x24 DUP3 ADD MSTORE PUSH32 0x4F776E61626C653A2063616C6C6572206973206E6F7420746865206F776E6572 PUSH1 0x44 DUP3 ADD MSTORE PUSH1 0x64 ADD PUSH2 0x47F JUMP JUMPDEST PUSH1 0x1 PUSH1 0x1 PUSH1 0xA0 SHL SUB DUP2 AND PUSH2 0xE21 JUMPI PUSH1 0x40 MLOAD PUSH3 0x461BCD PUSH1 0xE5 SHL DUP2 MSTORE PUSH1 0x20 PUSH1 0x4 DUP3 ADD MSTORE PUSH1 0x26 PUSH1 0x24 DUP3 ADD MSTORE PUSH32 0x4F776E61626C653A206E6577206F776E657220697320746865207A65726F2061 PUSH1 0x44 DUP3 ADD MSTORE PUSH6 0x646472657373 PUSH1 0xD0 SHL PUSH1 0x64 DUP3 ADD MSTORE PUSH1 0x84 ADD PUSH2 0x47F JUMP JUMPDEST PUSH2 0xE2A DUP2 PUSH2 0xF6D JUMP JUMPDEST POP JUMP JUMPDEST PUSH1 0x0 PUSH9 0x10000000000000000 PUSH2 0xE4F PUSH8 0xDE0B6B3A7640000 PUSH1 0xF DUP6 SWAP1 SIGNEXTEND PUSH2 0x1A2E JUMP JUMPDEST PUSH2 0x3E5 SWAP2 SWAP1 PUSH2 0x1A5E JUMP JUMPDEST PUSH1 0x40 DUP1 MLOAD PUSH1 0x1 PUSH1 0x1 PUSH1 0xA0 SHL SUB DUP5 AND PUSH1 0x24 DUP3 ADD MSTORE PUSH1 0x44 DUP1 DUP3 ADD DUP5 SWAP1 MSTORE DUP3 MLOAD DUP1 DUP4 SUB SWAP1 SWAP2 ADD DUP2 MSTORE PUSH1 0x64 SWAP1 SWAP2 ADD SWAP1 SWAP2 MSTORE PUSH1 0x20 DUP2 ADD DUP1 MLOAD PUSH28 0xFFFFFFFFFFFFFFFFFFFFFFFFFFFFFFFFFFFFFFFFFFFFFFFFFFFFFFFF AND PUSH4 0xA9059CBB PUSH1 0xE0 SHL OR SWAP1 MSTORE PUSH2 0xEC0 SWAP1 DUP5 SWAP1 PUSH2 0xFBD JUMP JUMPDEST POP POP POP JUMP JUMPDEST PUSH1 0x0 DUP1 PUSH8 0xDE0B6B3A7640000 PUSH2 0xEE4 PUSH9 0x10000000000000000 DUP6 PUSH2 0x1A2E JUMP JUMPDEST PUSH2 0xEEE SWAP2 SWAP1 PUSH2 0x1A5E JUMP JUMPDEST SWAP1 POP PUSH16 0x7FFFFFFFFFFFFFFFFFFFFFFFFFFFFFFF NOT DUP4 SLT DUP1 ISZERO SWAP1 PUSH2 0xF21 JUMPI POP PUSH16 0x7FFFFFFFFFFFFFFFFFFFFFFFFFFFFFFF DUP4 SGT ISZERO JUMPDEST PUSH2 0x3E5 JUMPI PUSH1 0x40 MLOAD PUSH3 0x461BCD PUSH1 0xE5 SHL DUP2 MSTORE PUSH1 0x20 PUSH1 0x4 DUP3 ADD MSTORE PUSH1 0x13 PUSH1 0x24 DUP3 ADD MSTORE PUSH32 0x726573756C74206F7574206F662072616E676500000000000000000000000000 PUSH1 0x44 DUP3 ADD MSTORE PUSH1 0x64 ADD PUSH2 0x47F JUMP JUMPDEST PUSH1 0x0 DUP1 SLOAD PUSH1 0x1 PUSH1 0x1 PUSH1 0xA0 SHL SUB DUP4 DUP2 AND PUSH1 0x1 PUSH1 0x1 PUSH1 0xA0 SHL SUB NOT DUP4 AND DUP2 OR DUP5 SSTORE PUSH1 0x40 MLOAD SWAP2 SWAP1 SWAP3 AND SWAP3 DUP4 SWAP2 PUSH32 0x8BE0079C531659141344CD1FD0A4F28419497F9722A3DAAFE3B4186F6B6457E0 SWAP2 SWAP1 LOG3 POP POP JUMP JUMPDEST PUSH1 0x0 PUSH2 0x1012 DUP3 PUSH1 0x40 MLOAD DUP1 PUSH1 0x40 ADD PUSH1 0x40 MSTORE DUP1 PUSH1 0x20 DUP2 MSTORE PUSH1 0x20 ADD PUSH32 0x5361666545524332303A206C6F772D6C6576656C2063616C6C206661696C6564 DUP2 MSTORE POP DUP6 PUSH1 0x1 PUSH1 0x1 PUSH1 0xA0 SHL SUB AND PUSH2 0x108F SWAP1 SWAP3 SWAP2 SWAP1 PUSH4 0xFFFFFFFF AND JUMP JUMPDEST DUP1 MLOAD SWAP1 SWAP2 POP ISZERO PUSH2 0xEC0 JUMPI DUP1 DUP1 PUSH1 0x20 ADD SWAP1 MLOAD DUP2 ADD SWAP1 PUSH2 0x1030 SWAP2 SWAP1 PUSH2 0x15CC JUMP JUMPDEST PUSH2 0xEC0 JUMPI PUSH1 0x40 MLOAD PUSH3 0x461BCD PUSH1 0xE5 SHL DUP2 MSTORE PUSH1 0x20 PUSH1 0x4 DUP3 ADD MSTORE PUSH1 0x2A PUSH1 0x24 DUP3 ADD MSTORE PUSH32 0x5361666545524332303A204552433230206F7065726174696F6E20646964206E PUSH1 0x44 DUP3 ADD MSTORE PUSH10 0x1BDD081CDD58D8D95959 PUSH1 0xB2 SHL PUSH1 0x64 DUP3 ADD MSTORE PUSH1 0x84 ADD PUSH2 0x47F JUMP JUMPDEST PUSH1 0x60 PUSH2 0x109E DUP5 DUP5 PUSH1 0x0 DUP6 PUSH2 0x10A8 JUMP JUMPDEST SWAP1 POP JUMPDEST SWAP4 SWAP3 POP POP POP JUMP JUMPDEST PUSH1 0x60 DUP3 SELFBALANCE LT ISZERO PUSH2 0x1109 JUMPI PUSH1 0x40 MLOAD PUSH3 0x461BCD PUSH1 0xE5 SHL DUP2 MSTORE PUSH1 0x20 PUSH1 0x4 DUP3 ADD MSTORE PUSH1 0x26 PUSH1 0x24 DUP3 ADD MSTORE PUSH32 0x416464726573733A20696E73756666696369656E742062616C616E636520666F PUSH1 0x44 DUP3 ADD MSTORE PUSH6 0x1C8818D85B1B PUSH1 0xD2 SHL PUSH1 0x64 DUP3 ADD MSTORE PUSH1 0x84 ADD PUSH2 0x47F JUMP JUMPDEST PUSH1 0x1 PUSH1 0x1 PUSH1 0xA0 SHL SUB DUP6 AND EXTCODESIZE PUSH2 0x1160 JUMPI PUSH1 0x40 MLOAD PUSH3 0x461BCD PUSH1 0xE5 SHL DUP2 MSTORE PUSH1 0x20 PUSH1 0x4 DUP3 ADD MSTORE PUSH1 0x1D PUSH1 0x24 DUP3 ADD MSTORE PUSH32 0x416464726573733A2063616C6C20746F206E6F6E2D636F6E7472616374000000 PUSH1 0x44 DUP3 ADD MSTORE PUSH1 0x64 ADD PUSH2 0x47F JUMP JUMPDEST PUSH1 0x0 DUP1 DUP7 PUSH1 0x1 PUSH1 0x1 PUSH1 0xA0 SHL SUB AND DUP6 DUP8 PUSH1 0x40 MLOAD PUSH2 0x117C SWAP2 SWAP1 PUSH2 0x1A8C JUMP JUMPDEST PUSH1 0x0 PUSH1 0x40 MLOAD DUP1 DUP4 SUB DUP2 DUP6 DUP8 GAS CALL SWAP3 POP POP POP RETURNDATASIZE DUP1 PUSH1 0x0 DUP2 EQ PUSH2 0x11B9 JUMPI PUSH1 0x40 MLOAD SWAP2 POP PUSH1 0x1F NOT PUSH1 0x3F RETURNDATASIZE ADD AND DUP3 ADD PUSH1 0x40 MSTORE RETURNDATASIZE DUP3 MSTORE RETURNDATASIZE PUSH1 0x0 PUSH1 0x20 DUP5 ADD RETURNDATACOPY PUSH2 0x11BE JUMP JUMPDEST PUSH1 0x60 SWAP2 POP JUMPDEST POP SWAP2 POP SWAP2 POP PUSH2 0x11CE DUP3 DUP3 DUP7 PUSH2 0x11D9 JUMP JUMPDEST SWAP8 SWAP7 POP POP POP POP POP POP POP JUMP JUMPDEST PUSH1 0x60 DUP4 ISZERO PUSH2 0x11E8 JUMPI POP DUP2 PUSH2 0x10A1 JUMP JUMPDEST DUP3 MLOAD ISZERO PUSH2 0x11F8 JUMPI DUP3 MLOAD DUP1 DUP5 PUSH1 0x20 ADD REVERT JUMPDEST DUP2 PUSH1 0x40 MLOAD PUSH3 0x461BCD PUSH1 0xE5 SHL DUP2 MSTORE PUSH1 0x4 ADD PUSH2 0x47F SWAP2 SWAP1 PUSH2 0x184C JUMP JUMPDEST DUP1 CALLDATALOAD PUSH3 0xFFFFFF DUP2 AND DUP2 EQ PUSH2 0x1225 JUMPI PUSH1 0x0 DUP1 REVERT JUMPDEST SWAP2 SWAP1 POP JUMP JUMPDEST PUSH1 0x0 PUSH1 0x20 DUP3 DUP5 SUB SLT ISZERO PUSH2 0x123C JUMPI PUSH1 0x0 DUP1 REVERT JUMPDEST PUSH2 0x10A1 DUP3 PUSH2 0x1212 JUMP JUMPDEST DUP1 ISZERO ISZERO DUP2 EQ PUSH2 0xE2A JUMPI PUSH1 0x0 DUP1 REVERT JUMPDEST PUSH1 0x0 DUP1 PUSH1 0x40 DUP4 DUP6 SUB SLT ISZERO PUSH2 0x1266 JUMPI PUSH1 0x0 DUP1 REVERT JUMPDEST PUSH2 0x126F DUP4 PUSH2 0x1212 JUMP JUMPDEST SWAP2 POP PUSH1 0x20 DUP4 ADD CALLDATALOAD PUSH2 0x127F DUP2 PUSH2 0x1245 JUMP JUMPDEST DUP1 SWAP2 POP POP SWAP3 POP SWAP3 SWAP1 POP JUMP JUMPDEST PUSH1 0x0 DUP1 PUSH1 0x40 DUP4 DUP6 SUB SLT ISZERO PUSH2 0x129D JUMPI PUSH1 0x0 DUP1 REVERT JUMPDEST DUP3 CALLDATALOAD SWAP2 POP PUSH1 0x20 DUP4 ADD CALLDATALOAD PUSH2 0x127F DUP2 PUSH2 0x1245 JUMP JUMPDEST PUSH1 0x0 DUP1 PUSH1 0x40 DUP4 DUP6 SUB SLT ISZERO PUSH2 0x12C2 JUMPI PUSH1 0x0 DUP1 REVERT JUMPDEST DUP3 CALLDATALOAD SWAP2 POP PUSH2 0x12D2 PUSH1 0x20 DUP5 ADD PUSH2 0x1212 JUMP JUMPDEST SWAP1 POP SWAP3 POP SWAP3 SWAP1 POP JUMP JUMPDEST PUSH2 0xFFFF DUP2 AND DUP2 EQ PUSH2 0xE2A JUMPI PUSH1 0x0 DUP1 REVERT JUMPDEST PUSH1 0x0 DUP1 PUSH1 0x0 DUP1 PUSH1 0x80 DUP6 DUP8 SUB SLT ISZERO PUSH2 0x1301 JUMPI PUSH1 0x0 DUP1 REVERT JUMPDEST PUSH2 0x130A DUP6 PUSH2 0x1212 JUMP JUMPDEST SWAP4 POP PUSH1 0x20 DUP6 ADD CALLDATALOAD SWAP3 POP PUSH1 0x40 DUP6 ADD CALLDATALOAD PUSH2 0x1321 DUP2 PUSH2 0x12DB JUMP JUMPDEST SWAP2 POP PUSH1 0x60 DUP6 ADD CALLDATALOAD PUSH4 0xFFFFFFFF DUP2 AND DUP2 EQ PUSH2 0x133A JUMPI PUSH1 0x0 DUP1 REVERT JUMPDEST SWAP4 SWAP7 SWAP3 SWAP6 POP SWAP1 SWAP4 POP POP JUMP JUMPDEST PUSH1 0xFF DUP2 AND DUP2 EQ PUSH2 0xE2A JUMPI PUSH1 0x0 DUP1 REVERT JUMPDEST PUSH1 0x0 PUSH1 0x20 DUP3 DUP5 SUB SLT ISZERO PUSH2 0x1366 JUMPI PUSH1 0x0 DUP1 REVERT JUMPDEST DUP2 CALLDATALOAD PUSH2 0x10A1 DUP2 PUSH2 0x1345 JUMP JUMPDEST PUSH1 0x1 PUSH1 0x1 PUSH1 0xA0 SHL SUB DUP2 AND DUP2 EQ PUSH2 0xE2A JUMPI PUSH1 0x0 DUP1 REVERT JUMPDEST PUSH1 0x0 PUSH1 0x20 DUP3 DUP5 SUB SLT ISZERO PUSH2 0x1398 JUMPI PUSH1 0x0 DUP1 REVERT JUMPDEST DUP2 CALLDATALOAD PUSH2 0x10A1 DUP2 PUSH2 0x1371 JUMP JUMPDEST PUSH1 0x1F DUP3 ADD PUSH1 0x1F NOT AND DUP2 ADD PUSH8 0xFFFFFFFFFFFFFFFF DUP2 GT DUP3 DUP3 LT OR ISZERO PUSH2 0x13D7 JUMPI PUSH4 0x4E487B71 PUSH1 0xE0 SHL PUSH1 0x0 MSTORE PUSH1 0x41 PUSH1 0x4 MSTORE PUSH1 0x24 PUSH1 0x0 REVERT JUMPDEST PUSH1 0x40 MSTORE POP POP JUMP JUMPDEST PUSH1 0x40 MLOAD PUSH2 0x260 DUP2 ADD PUSH8 0xFFFFFFFFFFFFFFFF DUP2 GT DUP3 DUP3 LT OR ISZERO PUSH2 0x1410 JUMPI PUSH4 0x4E487B71 PUSH1 0xE0 SHL PUSH1 0x0 MSTORE PUSH1 0x41 PUSH1 0x4 MSTORE PUSH1 0x24 PUSH1 0x0 REVERT JUMPDEST PUSH1 0x40 MSTORE SWAP1 JUMP JUMPDEST DUP1 MLOAD PUSH1 0xF DUP2 SWAP1 SIGNEXTEND DUP2 EQ PUSH2 0x1225 JUMPI PUSH1 0x0 DUP1 REVERT JUMPDEST DUP1 MLOAD PUSH8 0xFFFFFFFFFFFFFFFF DUP2 AND DUP2 EQ PUSH2 0x1225 JUMPI PUSH1 0x0 DUP1 REVERT JUMPDEST DUP1 MLOAD PUSH2 0x1225 DUP2 PUSH2 0x12DB JUMP JUMPDEST DUP1 MLOAD PUSH16 0xFFFFFFFFFFFFFFFFFFFFFFFFFFFFFFFF NOT DUP2 AND DUP2 EQ PUSH2 0x1225 JUMPI PUSH1 0x0 DUP1 REVERT JUMPDEST PUSH1 0x0 PUSH2 0x100 DUP1 DUP4 DUP6 SUB SLT ISZERO PUSH2 0x1480 JUMPI PUSH1 0x0 DUP1 REVERT JUMPDEST PUSH1 0x40 MLOAD SWAP1 DUP2 ADD SWAP1 PUSH8 0xFFFFFFFFFFFFFFFF DUP3 GT DUP2 DUP4 LT OR ISZERO PUSH2 0x14B1 JUMPI PUSH4 0x4E487B71 PUSH1 0xE0 SHL PUSH1 0x0 MSTORE PUSH1 0x41 PUSH1 0x4 MSTORE PUSH1 0x24 PUSH1 0x0 REVERT JUMPDEST DUP2 PUSH1 0x40 MSTORE PUSH2 0x14BE DUP5 PUSH2 0x1416 JUMP JUMPDEST DUP2 MSTORE PUSH2 0x14CC PUSH1 0x20 DUP6 ADD PUSH2 0x1416 JUMP JUMPDEST PUSH1 0x20 DUP3 ADD MSTORE PUSH2 0x14DD PUSH1 0x40 DUP6 ADD PUSH2 0x1416 JUMP JUMPDEST PUSH1 0x40 DUP3 ADD MSTORE PUSH2 0x14EE PUSH1 0x60 DUP6 ADD PUSH2 0x1416 JUMP JUMPDEST PUSH1 0x60 DUP3 ADD MSTORE PUSH2 0x14FF PUSH1 0x80 DUP6 ADD PUSH2 0x1428 JUMP JUMPDEST PUSH1 0x80 DUP3 ADD MSTORE PUSH2 0x1510 PUSH1 0xA0 DUP6 ADD PUSH2 0x1440 JUMP JUMPDEST PUSH1 0xA0 DUP3 ADD MSTORE PUSH2 0x1521 PUSH1 0xC0 DUP6 ADD PUSH2 0x1440 JUMP JUMPDEST PUSH1 0xC0 DUP3 ADD MSTORE PUSH2 0x1532 PUSH1 0xE0 DUP6 ADD PUSH2 0x144B JUMP JUMPDEST PUSH1 0xE0 DUP3 ADD MSTORE SWAP5 SWAP4 POP POP POP POP JUMP JUMPDEST PUSH1 0x0 PUSH1 0x20 DUP3 DUP5 SUB SLT ISZERO PUSH2 0x1551 JUMPI PUSH1 0x0 DUP1 REVERT JUMPDEST PUSH2 0x10A1 DUP3 PUSH2 0x1416 JUMP JUMPDEST PUSH4 0x4E487B71 PUSH1 0xE0 SHL PUSH1 0x0 MSTORE PUSH1 0x12 PUSH1 0x4 MSTORE PUSH1 0x24 PUSH1 0x0 REVERT JUMPDEST PUSH4 0x4E487B71 PUSH1 0xE0 SHL PUSH1 0x0 MSTORE PUSH1 0x11 PUSH1 0x4 MSTORE PUSH1 0x24 PUSH1 0x0 REVERT JUMPDEST PUSH1 0x0 PUSH3 0xFFFFFF DUP1 DUP5 AND DUP1 PUSH2 0x159C JUMPI PUSH2 0x159C PUSH2 0x155A JUMP JUMPDEST SWAP3 AND SWAP2 SWAP1 SWAP2 DIV SWAP3 SWAP2 POP POP JUMP JUMPDEST PUSH1 0x0 PUSH1 0x20 DUP3 DUP5 SUB SLT ISZERO PUSH2 0x15BA JUMPI PUSH1 0x0 DUP1 REVERT JUMPDEST POP MLOAD SWAP2 SWAP1 POP JUMP JUMPDEST DUP1 MLOAD PUSH2 0x1225 DUP2 PUSH2 0x1245 JUMP JUMPDEST PUSH1 0x0 PUSH1 0x20 DUP3 DUP5 SUB SLT ISZERO PUSH2 0x15DE JUMPI PUSH1 0x0 DUP1 REVERT JUMPDEST DUP2 MLOAD PUSH2 0x10A1 DUP2 PUSH2 0x1245 JUMP JUMPDEST DUP1 DUP3 ADD DUP1 DUP3 GT ISZERO PUSH2 0x3E5 JUMPI PUSH2 0x3E5 PUSH2 0x1570 JUMP JUMPDEST PUSH1 0x0 JUMPDEST DUP4 DUP2 LT ISZERO PUSH2 0x1617 JUMPI DUP2 DUP2 ADD MLOAD DUP4 DUP3 ADD MSTORE PUSH1 0x20 ADD PUSH2 0x15FF JUMP JUMPDEST POP POP PUSH1 0x0 SWAP2 ADD MSTORE JUMP JUMPDEST PUSH1 0x0 DUP2 MLOAD DUP1 DUP5 MSTORE PUSH2 0x1638 DUP2 PUSH1 0x20 DUP7 ADD PUSH1 0x20 DUP7 ADD PUSH2 0x15FC JUMP JUMPDEST PUSH1 0x1F ADD PUSH1 0x1F NOT AND SWAP3 SWAP1 SWAP3 ADD PUSH1 0x20 ADD SWAP3 SWAP2 POP POP JUMP JUMPDEST PUSH1 0x40 DUP2 MSTORE PUSH2 0x1662 PUSH1 0x40 DUP3 ADD DUP5 MLOAD PUSH3 0xFFFFFF AND SWAP1 MSTORE JUMP JUMPDEST PUSH1 0x0 PUSH1 0x20 DUP5 ADD MLOAD PUSH2 0x1678 PUSH1 0x60 DUP5 ADD DUP3 PUSH1 0xF SIGNEXTEND SWAP1 MSTORE JUMP JUMPDEST POP PUSH1 0x40 DUP5 ADD MLOAD PUSH2 0xFFFF DUP2 AND PUSH1 0x80 DUP5 ADD MSTORE POP PUSH1 0x60 DUP5 ADD MLOAD PUSH4 0xFFFFFFFF DUP2 AND PUSH1 0xA0 DUP5 ADD MSTORE POP PUSH1 0x80 DUP5 ADD MLOAD PUSH4 0xFFFFFFFF DUP2 AND PUSH1 0xC0 DUP5 ADD MSTORE POP PUSH1 0xA0 DUP5 ADD MLOAD PUSH4 0xFFFFFFFF DUP2 AND PUSH1 0xE0 DUP5 ADD MSTORE POP PUSH1 0xC0 DUP5 ADD MLOAD PUSH2 0x100 PUSH2 0x16DB DUP2 DUP6 ADD DUP4 PUSH1 0x1 PUSH1 0x1 PUSH1 0xA0 SHL SUB AND SWAP1 MSTORE JUMP JUMPDEST PUSH1 0xE0 DUP7 ADD MLOAD SWAP2 POP PUSH2 0x120 PUSH2 0x16F3 DUP2 DUP7 ADD DUP5 PUSH1 0xF SIGNEXTEND SWAP1 MSTORE JUMP JUMPDEST SWAP1 DUP7 ADD MLOAD SWAP2 POP PUSH2 0x140 SWAP1 PUSH2 0x170B DUP6 DUP4 ADD DUP5 PUSH1 0xF SIGNEXTEND SWAP1 MSTORE JUMP JUMPDEST DUP7 ADD MLOAD PUSH2 0x160 DUP6 DUP2 ADD SWAP2 SWAP1 SWAP2 MSTORE SWAP1 DUP7 ADD MLOAD SWAP2 POP PUSH2 0x180 SWAP1 PUSH2 0x1736 DUP3 DUP7 ADD DUP5 PUSH1 0x1 PUSH1 0x1 PUSH1 0xA0 SHL SUB AND SWAP1 MSTORE JUMP JUMPDEST DUP7 ADD MLOAD PUSH2 0x1A0 DUP6 DUP2 ADD SWAP2 SWAP1 SWAP2 MSTORE SWAP1 DUP7 ADD MLOAD SWAP2 POP PUSH2 0x1C0 SWAP1 PUSH2 0x175C DUP3 DUP7 ADD DUP5 PUSH2 0xFFFF AND SWAP1 MSTORE JUMP JUMPDEST DUP7 ADD MLOAD PUSH2 0x1E0 DUP6 DUP2 ADD MSTORE SWAP2 POP PUSH2 0x1776 PUSH2 0x220 DUP6 ADD DUP4 PUSH2 0x1620 JUMP JUMPDEST SWAP1 DUP7 ADD MLOAD PUSH1 0x1 PUSH1 0x1 PUSH1 0xA0 SHL SUB AND PUSH2 0x200 DUP6 ADD MSTORE DUP4 DUP2 SUB PUSH1 0x20 DUP6 ADD MSTORE SWAP1 POP PUSH2 0x179D DUP2 DUP6 PUSH2 0x1620 JUMP JUMPDEST SWAP6 SWAP5 POP POP POP POP POP JUMP JUMPDEST PUSH1 0x0 PUSH1 0x3 RETURNDATASIZE GT ISZERO PUSH2 0x17BF JUMPI PUSH1 0x4 PUSH1 0x0 DUP1 RETURNDATACOPY POP PUSH1 0x0 MLOAD PUSH1 0xE0 SHR JUMPDEST SWAP1 JUMP JUMPDEST PUSH1 0x0 PUSH1 0x44 RETURNDATASIZE LT ISZERO PUSH2 0x17D0 JUMPI SWAP1 JUMP JUMPDEST PUSH1 0x40 MLOAD PUSH1 0x3 NOT RETURNDATASIZE DUP2 ADD PUSH1 0x4 DUP4 RETURNDATACOPY DUP2 MLOAD RETURNDATASIZE PUSH8 0xFFFFFFFFFFFFFFFF DUP2 PUSH1 0x24 DUP5 ADD GT DUP2 DUP5 GT OR ISZERO PUSH2 0x1800 JUMPI POP POP POP POP POP SWAP1 JUMP JUMPDEST DUP3 DUP6 ADD SWAP2 POP DUP2 MLOAD DUP2 DUP2 GT ISZERO PUSH2 0x1818 JUMPI POP POP POP POP POP POP SWAP1 JUMP JUMPDEST DUP5 RETURNDATASIZE DUP8 ADD ADD PUSH1 0x20 DUP3 DUP6 ADD ADD GT ISZERO PUSH2 0x1832 JUMPI POP POP POP POP POP POP SWAP1 JUMP JUMPDEST PUSH2 0x1841 PUSH1 0x20 DUP3 DUP7 ADD ADD DUP8 PUSH2 0x13A3 JUMP JUMPDEST POP SWAP1 SWAP6 SWAP5 POP POP POP POP POP JUMP JUMPDEST PUSH1 0x20 DUP2 MSTORE PUSH1 0x0 PUSH2 0x10A1 PUSH1 0x20 DUP4 ADD DUP5 PUSH2 0x1620 JUMP JUMPDEST DUP1 MLOAD PUSH2 0x1225 DUP2 PUSH2 0x1371 JUMP JUMPDEST PUSH1 0x0 PUSH1 0x20 DUP3 DUP5 SUB SLT ISZERO PUSH2 0x187C JUMPI PUSH1 0x0 DUP1 REVERT JUMPDEST DUP2 MLOAD PUSH2 0x10A1 DUP2 PUSH2 0x1371 JUMP JUMPDEST DUP1 MLOAD PUSH2 0x1225 DUP2 PUSH2 0x1345 JUMP JUMPDEST DUP1 MLOAD PUSH1 0x3 DUP2 SWAP1 SIGNEXTEND DUP2 EQ PUSH2 0x1225 JUMPI PUSH1 0x0 DUP1 REVERT JUMPDEST DUP1 MLOAD PUSH16 0xFFFFFFFFFFFFFFFFFFFFFFFFFFFFFFFF DUP2 AND DUP2 EQ PUSH2 0x1225 JUMPI PUSH1 0x0 DUP1 REVERT JUMPDEST PUSH1 0x0 PUSH2 0x260 DUP3 DUP5 SUB SLT ISZERO PUSH2 0x18D7 JUMPI PUSH1 0x0 DUP1 REVERT JUMPDEST PUSH2 0x18DF PUSH2 0x13DE JUMP JUMPDEST PUSH2 0x18E8 DUP4 PUSH2 0x15C1 JUMP JUMPDEST DUP2 MSTORE PUSH2 0x18F6 PUSH1 0x20 DUP5 ADD PUSH2 0x1887 JUMP JUMPDEST PUSH1 0x20 DUP3 ADD MSTORE PUSH2 0x1907 PUSH1 0x40 DUP5 ADD PUSH2 0x1887 JUMP JUMPDEST PUSH1 0x40 DUP3 ADD MSTORE PUSH2 0x1918 PUSH1 0x60 DUP5 ADD PUSH2 0x1892 JUMP JUMPDEST PUSH1 0x60 DUP3 ADD MSTORE PUSH2 0x1929 PUSH1 0x80 DUP5 ADD PUSH2 0x1887 JUMP JUMPDEST PUSH1 0x80 DUP3 ADD MSTORE PUSH2 0x193A PUSH1 0xA0 DUP5 ADD PUSH2 0x1440 JUMP JUMPDEST PUSH1 0xA0 DUP3 ADD MSTORE PUSH2 0x194B PUSH1 0xC0 DUP5 ADD PUSH2 0x185F JUMP JUMPDEST PUSH1 0xC0 DUP3 ADD MSTORE PUSH2 0x195C PUSH1 0xE0 DUP5 ADD PUSH2 0x1428 JUMP JUMPDEST PUSH1 0xE0 DUP3 ADD MSTORE PUSH2 0x100 PUSH2 0x196F DUP2 DUP6 ADD PUSH2 0x1416 JUMP JUMPDEST SWAP1 DUP3 ADD MSTORE PUSH2 0x120 PUSH2 0x1981 DUP5 DUP3 ADD PUSH2 0x185F JUMP JUMPDEST SWAP1 DUP3 ADD MSTORE PUSH2 0x140 PUSH2 0x1993 DUP5 DUP3 ADD PUSH2 0x1416 JUMP JUMPDEST SWAP1 DUP3 ADD MSTORE PUSH2 0x160 PUSH2 0x19A5 DUP5 DUP3 ADD PUSH2 0x1416 JUMP JUMPDEST SWAP1 DUP3 ADD MSTORE PUSH2 0x180 PUSH2 0x19B7 DUP5 DUP3 ADD PUSH2 0x1416 JUMP JUMPDEST SWAP1 DUP3 ADD MSTORE PUSH2 0x1A0 PUSH2 0x19C9 DUP5 DUP3 ADD PUSH2 0x1416 JUMP JUMPDEST SWAP1 DUP3 ADD MSTORE PUSH2 0x1C0 PUSH2 0x19DB DUP5 DUP3 ADD PUSH2 0x1416 JUMP JUMPDEST SWAP1 DUP3 ADD MSTORE PUSH2 0x1E0 PUSH2 0x19ED DUP5 DUP3 ADD PUSH2 0x18A4 JUMP JUMPDEST SWAP1 DUP3 ADD MSTORE PUSH2 0x200 PUSH2 0x19FF DUP5 DUP3 ADD PUSH2 0x18A4 JUMP JUMPDEST SWAP1 DUP3 ADD MSTORE PUSH2 0x220 PUSH2 0x1A11 DUP5 DUP3 ADD PUSH2 0x18A4 JUMP JUMPDEST SWAP1 DUP3 ADD MSTORE PUSH2 0x240 PUSH2 0x1A23 DUP5 DUP3 ADD PUSH2 0x1416 JUMP JUMPDEST SWAP1 DUP3 ADD MSTORE SWAP4 SWAP3 POP POP POP JUMP JUMPDEST DUP1 DUP3 MUL PUSH1 0x0 DUP3 SLT PUSH1 0x1 PUSH1 0xFF SHL DUP5 EQ AND ISZERO PUSH2 0x1A4A JUMPI PUSH2 0x1A4A PUSH2 0x1570 JUMP JUMPDEST DUP2 DUP2 SDIV DUP4 EQ DUP3 ISZERO OR PUSH2 0x3E5 JUMPI PUSH2 0x3E5 PUSH2 0x1570 JUMP JUMPDEST PUSH1 0x0 DUP3 PUSH2 0x1A6D JUMPI PUSH2 0x1A6D PUSH2 0x155A JUMP JUMPDEST PUSH1 0x1 PUSH1 0xFF SHL DUP3 EQ PUSH1 0x0 NOT DUP5 EQ AND ISZERO PUSH2 0x1A87 JUMPI PUSH2 0x1A87 PUSH2 0x1570 JUMP JUMPDEST POP SDIV SWAP1 JUMP JUMPDEST PUSH1 0x0 DUP3 MLOAD PUSH2 0x1A9E DUP2 DUP5 PUSH1 0x20 DUP8 ADD PUSH2 0x15FC JUMP JUMPDEST SWAP2 SWAP1 SWAP2 ADD SWAP3 SWAP2 POP POP JUMP INVALID LOG2 PUSH5 0x6970667358 0x22 SLT KECCAK256 BALANCE 0x21 EQ SWAP7 DUP10 0x49 PUSH30 0x39CE33D819AC2504E0DB298B9DCA307DD831EA8E628241CC3C64736F6C63 NUMBER STOP ADDMOD SGT STOP CALLER "},"gasEstimates":{"creation":{"codeDepositCost":"1375600","executionCost":"infinite","totalCost":"infinite"},"external":{"addPerpetual(uint24)":"infinite","approveAmountForPerpetualMgnTkn(uint256,uint24)":"infinite","d8xExecutionCallback(bytes32,bool)":"1724","getMarginAccount(uint24)":"infinite","getMaxTradeAmount(uint24,bool)":"infinite","mgnTknAddrOfPool(uint8)":"2595","orderBookOfPerpetual(uint24)":"2559","owner()":"2387","perpetualProxy()":"infinite","postOrder(uint24,int256,uint16,uint32)":"infinite","renounceOwnership()":"28159","transferMarginCollateralTo(uint24)":"infinite","transferOwnership(address)":"infinite"},"internal":{"_fromDec18(int256)":"infinite","_fromInt(int256)":"infinite","toDec18(int128)":"infinite"}},"methodIdentifiers":{"addPerpetual(uint24)":"b1bd155e","approveAmountForPerpetualMgnTkn(uint256,uint24)":"5db35a04","d8xExecutionCallback(bytes32,bool)":"22ad65db","getMarginAccount(uint24)":"9fbb0a3b","getMaxTradeAmount(uint24,bool)":"0df3ad4c","mgnTknAddrOfPool(uint8)":"ba0e9399","orderBookOfPerpetual(uint24)":"0330d0c0","owner()":"8da5cb5b","perpetualProxy()":"3e99a53b","postOrder(uint24,int256,uint16,uint32)":"62bcc258","renounceOwnership()":"715018a6","transferMarginCollateralTo(uint24)":"230f2384","transferOwnership(address)":"f2fde38b"}},"storageLayout":{"storage":[{"astId":552,"contract":"contracts/OnChainTrader.sol:OnChainTrader","label":"_owner","offset":0,"slot":"0","type":"t_address"},{"astId":1594,"contract":"contracts/OnChainTrader.sol:OnChainTrader","label":"orderBookOfPerpetual","offset":0,"slot":"1","type":"t_mapping(t_uint24,t_address)"},{"astId":1598,"contract":"contracts/OnChainTrader.sol:OnChainTrader","label":"mgnTknAddrOfPool","offset":0,"slot":"2","type":"t_mapping(t_uint8,t_address)"}],"types":{"t_address":{"encoding":"inplace","label":"address","numberOfBytes":"20"},"t_mapping(t_uint24,t_address)":{"encoding":"mapping","key":"t_uint24","label":"mapping(uint24 => address)","numberOfBytes":"32","value":"t_address"},"t_mapping(t_uint8,t_address)":{"encoding":"mapping","key":"t_uint8","label":"mapping(uint8 => address)","numberOfBytes":"32","value":"t_address"},"t_uint24":{"encoding":"inplace","label":"uint24","numberOfBytes":"3"},"t_uint8":{"encoding":"inplace","label":"uint8","numberOfBytes":"1"}}},"userdoc":{"kind":"user","methods":{"addPerpetual(uint24)":{"notice":"Anyone add a perpetual. Needs to be set once per perpetual. The function sets the order book address for an existing perpetual-id and ensures the margin token address is stored. "},"approveAmountForPerpetualMgnTkn(uint256,uint24)":{"notice":"Approve the margin-token to be spent by perpetuals contract. Required to trade."},"d8xExecutionCallback(bytes32,bool)":{"notice":"Callback function that will be called once the order is executed or cancelled"},"getMarginAccount(uint24)":{"notice":"Return margin account information in decimal 18 format"},"getMaxTradeAmount(uint24,bool)":{"notice":"Get maximal trade amount for the contract accounting for its current position"},"postOrder(uint24,int256,uint16,uint32)":{"notice":"Post an order to the order book. Order will be executed by external \"executors\". * Available order flags:  uint32 internal constant MASK_CLOSE_ONLY = 0x80000000;  uint32 internal constant MASK_MARKET_ORDER = 0x40000000;  uint32 internal constant MASK_STOP_ORDER = 0x20000000;  uint32 internal constant MASK_FILL_OR_KILL = 0x10000000;  uint32 internal constant MASK_KEEP_POS_LEVERAGE = 0x08000000;  uint32 internal constant MASK_LIMIT_ORDER = 0x04000000;"}},"version":1}}}}