{"contracts/OnChainTrader.sol":{"OnChainTrader":{"abi":[{"inputs":[{"internalType":"address","name":"_perpetualProxy","type":"address"}],"stateMutability":"nonpayable","type":"constructor"},{"anonymous":false,"inputs":[{"indexed":false,"internalType":"bytes32","name":"orderDigest","type":"bytes32"},{"indexed":false,"internalType":"bool","name":"isExecuted","type":"bool"}],"name":"CallbackReceived","type":"event"},{"anonymous":false,"inputs":[{"indexed":false,"internalType":"uint24","name":"perpetualId","type":"uint24"},{"indexed":false,"internalType":"address","name":"to","type":"address"},{"indexed":false,"internalType":"uint256","name":"amountDecN","type":"uint256"}],"name":"MarginTokenSent","type":"event"},{"anonymous":false,"inputs":[{"indexed":true,"internalType":"address","name":"previousOwner","type":"address"},{"indexed":true,"internalType":"address","name":"newOwner","type":"address"}],"name":"OwnershipTransferred","type":"event"},{"anonymous":false,"inputs":[{"indexed":false,"internalType":"uint24","name":"perpetualId","type":"uint24"},{"indexed":false,"internalType":"address","name":"lobAddr","type":"address"},{"indexed":false,"internalType":"address","name":"mgnTknAddrOfPool","type":"address"}],"name":"PerpetualAdded","type":"event"},{"anonymous":false,"inputs":[{"indexed":false,"internalType":"string","name":"reason","type":"string"}],"name":"PerpetualOrderSubmitFailed","type":"event"},{"anonymous":false,"inputs":[{"indexed":false,"internalType":"int256","name":"amountDec18","type":"int256"},{"indexed":false,"internalType":"uint16","name":"leverageTDR","type":"uint16"}],"name":"PerpetualOrderSubmitSuccess","type":"event"},{"inputs":[{"internalType":"uint24","name":"_iPerpetualId","type":"uint24"}],"name":"addPerpetual","outputs":[],"stateMutability":"nonpayable","type":"function"},{"inputs":[{"internalType":"uint256","name":"_amount","type":"uint256"},{"internalType":"uint24","name":"_iPerpetualId","type":"uint24"}],"name":"approveAmountForPerpetualMgnTkn","outputs":[],"stateMutability":"nonpayable","type":"function"},{"inputs":[{"internalType":"bytes32","name":"orderDigest","type":"bytes32"},{"internalType":"bool","name":"isExecuted","type":"bool"}],"name":"d8xExecutionCallback","outputs":[],"stateMutability":"nonpayable","type":"function"},{"inputs":[{"internalType":"uint24","name":"_iPerpetualId","type":"uint24"}],"name":"getMarginAccount","outputs":[{"components":[{"internalType":"int256","name":"lockedInValueQCD18","type":"int256"},{"internalType":"int256","name":"cashCCD18","type":"int256"},{"internalType":"int256","name":"positionSizeBCD18","type":"int256"},{"internalType":"bytes16","name":"positionId","type":"bytes16"}],"internalType":"struct D18MarginAccount","name":"","type":"tuple"}],"stateMutability":"view","type":"function"},{"inputs":[{"internalType":"uint24","name":"_iPerpetualId","type":"uint24"},{"internalType":"bool","name":"isBuy","type":"bool"}],"name":"getMaxTradeAmount","outputs":[{"internalType":"int256","name":"","type":"int256"}],"stateMutability":"view","type":"function"},{"inputs":[{"internalType":"uint8","name":"","type":"uint8"}],"name":"mgnTknAddrOfPool","outputs":[{"internalType":"address","name":"","type":"address"}],"stateMutability":"view","type":"function"},{"inputs":[{"internalType":"uint24","name":"","type":"uint24"}],"name":"orderBookOfPerpetual","outputs":[{"internalType":"address","name":"","type":"address"}],"stateMutability":"view","type":"function"},{"inputs":[],"name":"owner","outputs":[{"internalType":"address","name":"","type":"address"}],"stateMutability":"view","type":"function"},{"inputs":[],"name":"perpetualProxy","outputs":[{"internalType":"address","name":"","type":"address"}],"stateMutability":"view","type":"function"},{"inputs":[{"internalType":"uint24","name":"_iPerpetualId","type":"uint24"},{"internalType":"int256","name":"_amountDec18","type":"int256"},{"internalType":"uint16","name":"_leverageTDR","type":"uint16"},{"internalType":"uint32","name":"_flags","type":"uint32"}],"name":"postOrder","outputs":[{"internalType":"bool","name":"","type":"bool"}],"stateMutability":"nonpayable","type":"function"},{"inputs":[],"name":"renounceOwnership","outputs":[],"stateMutability":"nonpayable","type":"function"},{"inputs":[{"internalType":"uint24","name":"_iPerpetualId","type":"uint24"}],"name":"transferMarginCollateralTo","outputs":[],"stateMutability":"nonpayable","type":"function"},{"inputs":[{"internalType":"address","name":"newOwner","type":"address"}],"name":"transferOwnership","outputs":[],"stateMutability":"nonpayable","type":"function"}],"devdoc":{"kind":"dev","methods":{"addPerpetual(uint24)":{"params":{"_iPerpetualId":"id of the perpetual to be traded"}},"approveAmountForPerpetualMgnTkn(uint256,uint24)":{"params":{"_amount":"spend amount"}},"d8xExecutionCallback(bytes32,bool)":{"params":{"isExecuted":"true if order was succesfully executed","orderDigest":"unique identifier for the order"}},"getMarginAccount(uint24)":{"params":{"_iPerpetualId":"id of perpetual "}},"getMaxTradeAmount(uint24,bool)":{"params":{"_iPerpetualId":"id of perpetual","isBuy":"true if we go long, false if we go short"},"returns":{"_0":"signed maximal trade size (negative if resulting position is short, positive otherwise)"}},"owner()":{"details":"Returns the address of the current owner."},"postOrder(uint24,int256,uint16,uint32)":{"params":{"_amountDec18":"signed amount to be traded in base currency","_flags":"order-flags, can be left 0 for a market order","_iPerpetualId":"perpetual id for which we execute","_leverageTDR":"leverage two-digit-integer), e.g. 210 for 2.1x leverage"},"returns":{"_0":"true if posting order succeeded"}},"renounceOwnership()":{"details":"Leaves the contract without owner. It will not be possible to call `onlyOwner` functions anymore. Can only be called by the current owner. NOTE: Renouncing ownership will leave the contract without an owner, thereby removing any functionality that is only available to the owner."},"transferOwnership(address)":{"details":"Transfers ownership of the contract to a new account (`newOwner`). Can only be called by the current owner."}},"version":1},"evm":{"bytecode":{"linkReferences":{},"object":"60a06040523480156200001157600080fd5b5060405162001e4538038062001e458339810160408190526200003491620000a1565b6200003f3362000051565b6001600160a01b0316608052620000d3565b600080546001600160a01b038381166001600160a01b0319831681178455604051919092169283917f8be0079c531659141344cd1fd0a4f28419497f9722a3daafe3b4186f6b6457e09190a35050565b600060208284031215620000b457600080fd5b81516001600160a01b0381168114620000cc57600080fd5b9392505050565b608051611d2c6200011960003960008181610178015281816102be0152818161036a015281816105fc01528181610c0401528181610d2c0152610e1a0152611d2c6000f3fe608060405234801561001057600080fd5b50600436106100df5760003560e01c806362bcc2581161008c5780639fbb0a3b116100665780639fbb0a3b146101e9578063b1bd155e14610242578063ba0e939914610255578063f2fde38b1461027e57600080fd5b806362bcc258146101ad578063715018a6146101d05780638da5cb5b146101d857600080fd5b8063230f2384116100bd578063230f2384146101605780633e99a53b146101735780635db35a041461019a57600080fd5b80630330d0c0146100e45780630df3ad4c1461012a57806322ad65db1461014b575b600080fd5b61010d6100f23660046113f5565b6001602052600090815260409020546001600160a01b031681565b6040516001600160a01b0390911681526020015b60405180910390f35b61013d61013836600461141e565b610291565b604051908152602001610121565b61015e610159366004611455565b6103eb565b005b61015e61016e3660046113f5565b610429565b61010d7f000000000000000000000000000000000000000000000000000000000000000081565b61015e6101a836600461147a565b61057b565b6101c06101bb3660046114b6565b61067f565b6040519015158152602001610121565b61015e610b3d565b6000546001600160a01b031661010d565b6101fc6101f73660046113f5565b610ba3565b60405161012191908151815260208083015190820152604080830151908201526060918201516fffffffffffffffffffffffffffffffff19169181019190915260800190565b61015e6102503660046113f5565b610d0f565b61010d61026336600461151f565b6002602052600090815260409020546001600160a01b031681565b61015e61028c366004611551565b610f2d565b604051633d53a26b60e11b815262ffffff8316600482015230602482015260009081906001600160a01b037f00000000000000000000000000000000000000000000000000000000000000001690637aa744d69060440161010060405180830381865afa158015610306573d6000803e3d6000fd5b505050506040513d601f19601f8201168201806040525081019061032a9190611637565b6040808201519051633ef0eb0f60e21b815262ffffff87166004820152600f9190910b602482015284151560448201529091506000906001600160a01b037f0000000000000000000000000000000000000000000000000000000000000000169063fbc3ac3c90606401602060405180830381865afa1580156103b1573d6000803e3d6000fd5b505050506040513d601f19601f820116820180604052508101906103d5919061170a565b90506103e081610ff8565b925050505b92915050565b6040805183815282151560208201527fdd31864b23bd4f09a8914c3ee2c028bd0cbf0186a8eec21258681488239b92dd910160405180910390a15050565b6000546001600160a01b031633146104885760405162461bcd60e51b815260206004820181905260248201527f4f776e61626c653a2063616c6c6572206973206e6f7420746865206f776e657260448201526064015b60405180910390fd5b6000610497620186a083611751565b60ff81166000908152600260205260408082205490516370a0823160e01b81523060048201529293506001600160a01b03169182919082906370a0823190602401602060405180830381865afa1580156104f5573d6000803e3d6000fd5b505050506040513d601f19601f820116820180604052508101906105199190611773565b905061052f6001600160a01b0383163383611024565b6040805162ffffff871681523360208201529081018290527fd7089a64efa4caccaea095308c4da0682a70797771cee9b36ab4a639054035929060600160405180910390a15050505050565b600061058a620186a083611751565b60ff81166000908152600260205260409020549091506001600160a01b0316806105e55760405162461bcd60e51b815260206004820152600c60248201526b736574206f6220616464727360a01b604482015260640161047f565b60405163095ea7b360e01b81526001600160a01b037f0000000000000000000000000000000000000000000000000000000000000000811660048301526024820186905282169063095ea7b3906044016020604051808303816000875af1158015610654573d6000803e3d6000fd5b505050506040513d601f19601f820116820180604052508101906106789190611797565b5050505050565b600080546001600160a01b031633146106da5760405162461bcd60e51b815260206004820181905260248201527f4f776e61626c653a2063616c6c6572206973206e6f7420746865206f776e6572604482015260640161047f565b62ffffff85166000908152600160205260409020546001600160a01b0316806107455760405162461bcd60e51b815260206004820152601260248201527f6f7264657220626f6f6b20756e6b6e6f776e0000000000000000000000000000604482015260640161047f565b600061075086611090565b90508363ffffffff1660000361076857634000000093505b604080516001808252818301909252600091816020015b604080516101e0810182526000808252602080830182905292820181905260608083018290526080830182905260a0830182905260c0830182905260e08301829052610100830182905261012083018290526101408301829052610160830182905261018083018290526101a08301526101c0820152825260001990920191018161077f579050509050848160008151811061081d5761081d6117b4565b60200260200101516080019063ffffffff16908163ffffffff1681525050878160008151811061084f5761084f6117b4565b60200260200101516000019062ffffff16908162ffffff1681525050308160008151811061087f5761087f6117b4565b602002602001015161014001906001600160a01b031690816001600160a01b03168152505081816000815181106108b8576108b86117b4565b60200260200101516101000190600f0b9081600f0b81525050600082600f0b136108e35760006108f5565b6f7fffffffffffffffffffffffffffffff5b81600081518110610908576109086117b4565b602002602001015160200190600f0b9081600f0b815250508581600081518110610934576109346117b4565b602090810291909101015161ffff909116604090910152610958426203f4806117ca565b8160008151811061096b5761096b6117b4565b602002602001015160a0019063ffffffff16908163ffffffff1681525050428160008151811061099d5761099d6117b4565b60200260200101516060019063ffffffff16908163ffffffff168152505030816000815181106109cf576109cf6117b4565b60209081029190910101516001600160a01b03919091166101c090910152604080516001808252818301909252600091816020015b6060815260200190600190039081610a04575050604051632a69792760e21b81529091506001600160a01b0385169063a9a5e49c90610a499085908590600401611882565b600060405180830381600087803b158015610a6357600080fd5b505af1925050508015610a74575060015b610af057610a806119f4565b806308c379a003610ae45750610a94611a10565b80610a9f5750610ae6565b7f2858238d037e52471d3ad4944d280cdb1fd3b479a3fdf698bb04e99572e6efa881604051610ace9190611a9a565b60405180910390a1600095505050505050610b35565b505b3d6000803e3d6000fd5b6040805189815261ffff891660208201527f742895f70ed9b3e00487db3827a00b9c91de8360cd96129050b8a82c99de4862910160405180910390a160019450505050505b949350505050565b6000546001600160a01b03163314610b975760405162461bcd60e51b815260206004820181905260248201527f4f776e61626c653a2063616c6c6572206973206e6f7420746865206f776e6572604482015260640161047f565b610ba16000611138565b565b610be1604051806080016040528060008152602001600081526020016000815260200160006fffffffffffffffffffffffffffffffff191681525090565b604051633d53a26b60e11b815262ffffff831660048201523060248201526000907f00000000000000000000000000000000000000000000000000000000000000006001600160a01b031690637aa744d69060440161010060405180830381865afa158015610c54573d6000803e3d6000fd5b505050506040513d601f19601f82011682018060405250810190610c789190611637565b9050610cb8604051806080016040528060008152602001600081526020016000815260200160006fffffffffffffffffffffffffffffffff191681525090565b8151610cc390610ff8565b81526020820151610cd390610ff8565b60208201526040820151610ce690610ff8565b604082015260e0909101516fffffffffffffffffffffffffffffffff1916606082015292915050565b60405163079e02e960e21b815262ffffff821660048201526000907f00000000000000000000000000000000000000000000000000000000000000006001600160a01b031690631e780ba490602401602060405180830381865afa158015610d7b573d6000803e3d6000fd5b505050506040513d601f19601f82011682018060405250810190610d9f9190611ab8565b62ffffff8316600090815260016020526040812080546001600160a01b0319166001600160a01b038416179055909150610ddc620186a084611751565b60ff81166000908152600260205260409020549091506001600160a01b0316610ec357604051631857be3960e11b815260ff821660048201526000907f00000000000000000000000000000000000000000000000000000000000000006001600160a01b0316906330af7c729060240161026060405180830381865afa158015610e6a573d6000803e3d6000fd5b505050506040513d601f19601f82011682018060405250810190610e8e9190611b12565b60c0015160ff8316600090815260026020526040902080546001600160a01b0319166001600160a01b03909216919091179055505b60ff811660009081526002602090815260409182902054825162ffffff871681526001600160a01b038681169382019390935291168183015290517f5222a91cec499c7c85c5fcb8b8ddfb81880ec40273d8cda372740d8a97fa6ec79181900360600190a1505050565b6000546001600160a01b03163314610f875760405162461bcd60e51b815260206004820181905260248201527f4f776e61626c653a2063616c6c6572206973206e6f7420746865206f776e6572604482015260640161047f565b6001600160a01b038116610fec5760405162461bcd60e51b815260206004820152602660248201527f4f776e61626c653a206e6577206f776e657220697320746865207a65726f206160448201526564647265737360d01b606482015260840161047f565b610ff581611138565b50565b60006801000000000000000061101a670de0b6b3a7640000600f85900b611c7c565b6103e59190611cac565b604080516001600160a01b038416602482015260448082018490528251808303909101815260649091019091526020810180517bffffffffffffffffffffffffffffffffffffffffffffffffffffffff1663a9059cbb60e01b17905261108b908490611188565b505050565b600080670de0b6b3a76400006110af6801000000000000000085611c7c565b6110b99190611cac565b90506f7fffffffffffffffffffffffffffffff1983128015906110ec57506f7fffffffffffffffffffffffffffffff8313155b6103e55760405162461bcd60e51b815260206004820152601360248201527f726573756c74206f7574206f662072616e676500000000000000000000000000604482015260640161047f565b600080546001600160a01b038381166001600160a01b0319831681178455604051919092169283917f8be0079c531659141344cd1fd0a4f28419497f9722a3daafe3b4186f6b6457e09190a35050565b60006111dd826040518060400160405280602081526020017f5361666545524332303a206c6f772d6c6576656c2063616c6c206661696c6564815250856001600160a01b031661125a9092919063ffffffff16565b80519091501561108b57808060200190518101906111fb9190611797565b61108b5760405162461bcd60e51b815260206004820152602a60248201527f5361666545524332303a204552433230206f7065726174696f6e20646964206e6044820152691bdd081cdd58d8d9595960b21b606482015260840161047f565b60606112698484600085611273565b90505b9392505050565b6060824710156112d45760405162461bcd60e51b815260206004820152602660248201527f416464726573733a20696e73756666696369656e742062616c616e636520666f6044820152651c8818d85b1b60d21b606482015260840161047f565b6001600160a01b0385163b61132b5760405162461bcd60e51b815260206004820152601d60248201527f416464726573733a2063616c6c20746f206e6f6e2d636f6e7472616374000000604482015260640161047f565b600080866001600160a01b031685876040516113479190611cda565b60006040518083038185875af1925050503d8060008114611384576040519150601f19603f3d011682016040523d82523d6000602084013e611389565b606091505b50915091506113998282866113a4565b979650505050505050565b606083156113b357508161126c565b8251156113c35782518084602001fd5b8160405162461bcd60e51b815260040161047f9190611a9a565b803562ffffff811681146113f057600080fd5b919050565b60006020828403121561140757600080fd5b61126c826113dd565b8015158114610ff557600080fd5b6000806040838503121561143157600080fd5b61143a836113dd565b9150602083013561144a81611410565b809150509250929050565b6000806040838503121561146857600080fd5b82359150602083013561144a81611410565b6000806040838503121561148d57600080fd5b8235915061149d602084016113dd565b90509250929050565b61ffff81168114610ff557600080fd5b600080600080608085870312156114cc57600080fd5b6114d5856113dd565b93506020850135925060408501356114ec816114a6565b9150606085013563ffffffff8116811461150557600080fd5b939692955090935050565b60ff81168114610ff557600080fd5b60006020828403121561153157600080fd5b813561126c81611510565b6001600160a01b0381168114610ff557600080fd5b60006020828403121561156357600080fd5b813561126c8161153c565b601f8201601f1916810167ffffffffffffffff811182821017156115a257634e487b7160e01b600052604160045260246000fd5b6040525050565b604051610260810167ffffffffffffffff811182821017156115db57634e487b7160e01b600052604160045260246000fd5b60405290565b8051600f81900b81146113f057600080fd5b805167ffffffffffffffff811681146113f057600080fd5b80516113f0816114a6565b80516fffffffffffffffffffffffffffffffff19811681146113f057600080fd5b600061010080838503121561164b57600080fd5b6040519081019067ffffffffffffffff8211818310171561167c57634e487b7160e01b600052604160045260246000fd5b81604052611689846115e1565b8152611697602085016115e1565b60208201526116a8604085016115e1565b60408201526116b9606085016115e1565b60608201526116ca608085016115f3565b60808201526116db60a0850161160b565b60a08201526116ec60c0850161160b565b60c08201526116fd60e08501611616565b60e0820152949350505050565b60006020828403121561171c57600080fd5b61126c826115e1565b634e487b7160e01b600052601260045260246000fd5b634e487b7160e01b600052601160045260246000fd5b600062ffffff8084168061176757611767611725565b92169190910492915050565b60006020828403121561178557600080fd5b5051919050565b80516113f081611410565b6000602082840312156117a957600080fd5b815161126c81611410565b634e487b7160e01b600052603260045260246000fd5b808201808211156103e5576103e561173b565b60005b838110156117f85781810151838201526020016117e0565b50506000910152565b600081518084526118198160208601602086016117dd565b601f01601f19169290920160200192915050565b600081518084526020808501808196508360051b8101915082860160005b85811015611875578284038952611863848351611801565b9885019893509084019060010161184b565b5091979650505050505050565b60006040808301818452808651808352606092508286019150828160051b8701016020808a0160005b848110156119d457898403605f190186528151805162ffffff1685526101e0848201516118dc86880182600f0b9052565b508982015161ffff16868b01528882015163ffffffff9081168a88015260808084015182169088015260a0808401519091169087015260c0808301516001600160a01b03169087015260e080830151600f81900b8289015250506101008083015161194b82890182600f0b9052565b50506101208281015190870152610140808301516001600160a01b03169087015261016080830151908701526101808083015161ffff16908701526101a08083015181880183905261199f83890182611801565b925050506101c08083015192506119c0818801846001600160a01b03169052565b5096840196945050908201906001016118ab565b5050878203908801526119e7818961182d565b9998505050505050505050565b600060033d1115611a0d5760046000803e5060005160e01c5b90565b600060443d1015611a1e5790565b6040516003193d81016004833e81513d67ffffffffffffffff8160248401118184111715611a4e57505050505090565b8285019150815181811115611a665750505050505090565b843d8701016020828501011115611a805750505050505090565b611a8f6020828601018761156e565b509095945050505050565b60208152600061126c6020830184611801565b80516113f08161153c565b600060208284031215611aca57600080fd5b815161126c8161153c565b80516113f081611510565b8051600381900b81146113f057600080fd5b80516fffffffffffffffffffffffffffffffff811681146113f057600080fd5b60006102608284031215611b2557600080fd5b611b2d6115a9565b611b368361178c565b8152611b4460208401611ad5565b6020820152611b5560408401611ad5565b6040820152611b6660608401611ae0565b6060820152611b7760808401611ad5565b6080820152611b8860a0840161160b565b60a0820152611b9960c08401611aad565b60c0820152611baa60e084016115f3565b60e0820152610100611bbd8185016115e1565b90820152610120611bcf848201611aad565b90820152610140611be18482016115e1565b90820152610160611bf38482016115e1565b90820152610180611c058482016115e1565b908201526101a0611c178482016115e1565b908201526101c0611c298482016115e1565b908201526101e0611c3b848201611af2565b90820152610200611c4d848201611af2565b90820152610220611c5f848201611af2565b90820152610240611c718482016115e1565b908201529392505050565b80820260008212600160ff1b84141615611c9857611c9861173b565b81810583148215176103e5576103e561173b565b600082611cbb57611cbb611725565b600160ff1b821460001984141615611cd557611cd561173b565b500590565b60008251611cec8184602087016117dd565b919091019291505056fea26469706673582212200acb5d577bc15303d485c9ed365e0790d6fddfb4f4926986705a6fbd2ae6e7aa64736f6c63430008130033","opcodes":"PUSH1 0xA0 PUSH1 0x40 MSTORE CALLVALUE DUP1 ISZERO PUSH3 0x11 JUMPI PUSH1 0x0 DUP1 REVERT JUMPDEST POP PUSH1 0x40 MLOAD PUSH3 0x1E45 CODESIZE SUB DUP1 PUSH3 0x1E45 DUP4 CODECOPY DUP2 ADD PUSH1 0x40 DUP2 SWAP1 MSTORE PUSH3 0x34 SWAP2 PUSH3 0xA1 JUMP JUMPDEST PUSH3 0x3F CALLER PUSH3 0x51 JUMP JUMPDEST PUSH1 0x1 PUSH1 0x1 PUSH1 0xA0 SHL SUB AND PUSH1 0x80 MSTORE PUSH3 0xD3 JUMP JUMPDEST PUSH1 0x0 DUP1 SLOAD PUSH1 0x1 PUSH1 0x1 PUSH1 0xA0 SHL SUB DUP4 DUP2 AND PUSH1 0x1 PUSH1 0x1 PUSH1 0xA0 SHL SUB NOT DUP4 AND DUP2 OR DUP5 SSTORE PUSH1 0x40 MLOAD SWAP2 SWAP1 SWAP3 AND SWAP3 DUP4 SWAP2 PUSH32 0x8BE0079C531659141344CD1FD0A4F28419497F9722A3DAAFE3B4186F6B6457E0 SWAP2 SWAP1 LOG3 POP POP JUMP JUMPDEST PUSH1 0x0 PUSH1 0x20 DUP3 DUP5 SUB SLT ISZERO PUSH3 0xB4 JUMPI PUSH1 0x0 DUP1 REVERT JUMPDEST DUP2 MLOAD PUSH1 0x1 PUSH1 0x1 PUSH1 0xA0 SHL SUB DUP2 AND DUP2 EQ PUSH3 0xCC JUMPI PUSH1 0x0 DUP1 REVERT JUMPDEST SWAP4 SWAP3 POP POP POP JUMP JUMPDEST PUSH1 0x80 MLOAD PUSH2 0x1D2C PUSH3 0x119 PUSH1 0x0 CODECOPY PUSH1 0x0 DUP2 DUP2 PUSH2 0x178 ADD MSTORE DUP2 DUP2 PUSH2 0x2BE ADD MSTORE DUP2 DUP2 PUSH2 0x36A ADD MSTORE DUP2 DUP2 PUSH2 0x5FC ADD MSTORE DUP2 DUP2 PUSH2 0xC04 ADD MSTORE DUP2 DUP2 PUSH2 0xD2C ADD MSTORE PUSH2 0xE1A ADD MSTORE PUSH2 0x1D2C PUSH1 0x0 RETURN INVALID PUSH1 0x80 PUSH1 0x40 MSTORE CALLVALUE DUP1 ISZERO PUSH2 0x10 JUMPI PUSH1 0x0 DUP1 REVERT JUMPDEST POP PUSH1 0x4 CALLDATASIZE LT PUSH2 0xDF JUMPI PUSH1 0x0 CALLDATALOAD PUSH1 0xE0 SHR DUP1 PUSH4 0x62BCC258 GT PUSH2 0x8C JUMPI DUP1 PUSH4 0x9FBB0A3B GT PUSH2 0x66 JUMPI DUP1 PUSH4 0x9FBB0A3B EQ PUSH2 0x1E9 JUMPI DUP1 PUSH4 0xB1BD155E EQ PUSH2 0x242 JUMPI DUP1 PUSH4 0xBA0E9399 EQ PUSH2 0x255 JUMPI DUP1 PUSH4 0xF2FDE38B EQ PUSH2 0x27E JUMPI PUSH1 0x0 DUP1 REVERT JUMPDEST DUP1 PUSH4 0x62BCC258 EQ PUSH2 0x1AD JUMPI DUP1 PUSH4 0x715018A6 EQ PUSH2 0x1D0 JUMPI DUP1 PUSH4 0x8DA5CB5B EQ PUSH2 0x1D8 JUMPI PUSH1 0x0 DUP1 REVERT JUMPDEST DUP1 PUSH4 0x230F2384 GT PUSH2 0xBD JUMPI DUP1 PUSH4 0x230F2384 EQ PUSH2 0x160 JUMPI DUP1 PUSH4 0x3E99A53B EQ PUSH2 0x173 JUMPI DUP1 PUSH4 0x5DB35A04 EQ PUSH2 0x19A JUMPI PUSH1 0x0 DUP1 REVERT JUMPDEST DUP1 PUSH4 0x330D0C0 EQ PUSH2 0xE4 JUMPI DUP1 PUSH4 0xDF3AD4C EQ PUSH2 0x12A JUMPI DUP1 PUSH4 0x22AD65DB EQ PUSH2 0x14B JUMPI JUMPDEST PUSH1 0x0 DUP1 REVERT JUMPDEST PUSH2 0x10D PUSH2 0xF2 CALLDATASIZE PUSH1 0x4 PUSH2 0x13F5 JUMP JUMPDEST PUSH1 0x1 PUSH1 0x20 MSTORE PUSH1 0x0 SWAP1 DUP2 MSTORE PUSH1 0x40 SWAP1 KECCAK256 SLOAD PUSH1 0x1 PUSH1 0x1 PUSH1 0xA0 SHL SUB AND DUP2 JUMP JUMPDEST PUSH1 0x40 MLOAD PUSH1 0x1 PUSH1 0x1 PUSH1 0xA0 SHL SUB SWAP1 SWAP2 AND DUP2 MSTORE PUSH1 0x20 ADD JUMPDEST PUSH1 0x40 MLOAD DUP1 SWAP2 SUB SWAP1 RETURN JUMPDEST PUSH2 0x13D PUSH2 0x138 CALLDATASIZE PUSH1 0x4 PUSH2 0x141E JUMP JUMPDEST PUSH2 0x291 JUMP JUMPDEST PUSH1 0x40 MLOAD SWAP1 DUP2 MSTORE PUSH1 0x20 ADD PUSH2 0x121 JUMP JUMPDEST PUSH2 0x15E PUSH2 0x159 CALLDATASIZE PUSH1 0x4 PUSH2 0x1455 JUMP JUMPDEST PUSH2 0x3EB JUMP JUMPDEST STOP JUMPDEST PUSH2 0x15E PUSH2 0x16E CALLDATASIZE PUSH1 0x4 PUSH2 0x13F5 JUMP JUMPDEST PUSH2 0x429 JUMP JUMPDEST PUSH2 0x10D PUSH32 0x0 DUP2 JUMP JUMPDEST PUSH2 0x15E PUSH2 0x1A8 CALLDATASIZE PUSH1 0x4 PUSH2 0x147A JUMP JUMPDEST PUSH2 0x57B JUMP JUMPDEST PUSH2 0x1C0 PUSH2 0x1BB CALLDATASIZE PUSH1 0x4 PUSH2 0x14B6 JUMP JUMPDEST PUSH2 0x67F JUMP JUMPDEST PUSH1 0x40 MLOAD SWAP1 ISZERO ISZERO DUP2 MSTORE PUSH1 0x20 ADD PUSH2 0x121 JUMP JUMPDEST PUSH2 0x15E PUSH2 0xB3D JUMP JUMPDEST PUSH1 0x0 SLOAD PUSH1 0x1 PUSH1 0x1 PUSH1 0xA0 SHL SUB AND PUSH2 0x10D JUMP JUMPDEST PUSH2 0x1FC PUSH2 0x1F7 CALLDATASIZE PUSH1 0x4 PUSH2 0x13F5 JUMP JUMPDEST PUSH2 0xBA3 JUMP JUMPDEST PUSH1 0x40 MLOAD PUSH2 0x121 SWAP2 SWAP1 DUP2 MLOAD DUP2 MSTORE PUSH1 0x20 DUP1 DUP4 ADD MLOAD SWAP1 DUP3 ADD MSTORE PUSH1 0x40 DUP1 DUP4 ADD MLOAD SWAP1 DUP3 ADD MSTORE PUSH1 0x60 SWAP2 DUP3 ADD MLOAD PUSH16 0xFFFFFFFFFFFFFFFFFFFFFFFFFFFFFFFF NOT AND SWAP2 DUP2 ADD SWAP2 SWAP1 SWAP2 MSTORE PUSH1 0x80 ADD SWAP1 JUMP JUMPDEST PUSH2 0x15E PUSH2 0x250 CALLDATASIZE PUSH1 0x4 PUSH2 0x13F5 JUMP JUMPDEST PUSH2 0xD0F JUMP JUMPDEST PUSH2 0x10D PUSH2 0x263 CALLDATASIZE PUSH1 0x4 PUSH2 0x151F JUMP JUMPDEST PUSH1 0x2 PUSH1 0x20 MSTORE PUSH1 0x0 SWAP1 DUP2 MSTORE PUSH1 0x40 SWAP1 KECCAK256 SLOAD PUSH1 0x1 PUSH1 0x1 PUSH1 0xA0 SHL SUB AND DUP2 JUMP JUMPDEST PUSH2 0x15E PUSH2 0x28C CALLDATASIZE PUSH1 0x4 PUSH2 0x1551 JUMP JUMPDEST PUSH2 0xF2D JUMP JUMPDEST PUSH1 0x40 MLOAD PUSH4 0x3D53A26B PUSH1 0xE1 SHL DUP2 MSTORE PUSH3 0xFFFFFF DUP4 AND PUSH1 0x4 DUP3 ADD MSTORE ADDRESS PUSH1 0x24 DUP3 ADD MSTORE PUSH1 0x0 SWAP1 DUP2 SWAP1 PUSH1 0x1 PUSH1 0x1 PUSH1 0xA0 SHL SUB PUSH32 0x0 AND SWAP1 PUSH4 0x7AA744D6 SWAP1 PUSH1 0x44 ADD PUSH2 0x100 PUSH1 0x40 MLOAD DUP1 DUP4 SUB DUP2 DUP7 GAS STATICCALL ISZERO DUP1 ISZERO PUSH2 0x306 JUMPI RETURNDATASIZE PUSH1 0x0 DUP1 RETURNDATACOPY RETURNDATASIZE PUSH1 0x0 REVERT JUMPDEST POP POP POP POP PUSH1 0x40 MLOAD RETURNDATASIZE PUSH1 0x1F NOT PUSH1 0x1F DUP3 ADD AND DUP3 ADD DUP1 PUSH1 0x40 MSTORE POP DUP2 ADD SWAP1 PUSH2 0x32A SWAP2 SWAP1 PUSH2 0x1637 JUMP JUMPDEST PUSH1 0x40 DUP1 DUP3 ADD MLOAD SWAP1 MLOAD PUSH4 0x3EF0EB0F PUSH1 0xE2 SHL DUP2 MSTORE PUSH3 0xFFFFFF DUP8 AND PUSH1 0x4 DUP3 ADD MSTORE PUSH1 0xF SWAP2 SWAP1 SWAP2 SIGNEXTEND PUSH1 0x24 DUP3 ADD MSTORE DUP5 ISZERO ISZERO PUSH1 0x44 DUP3 ADD MSTORE SWAP1 SWAP2 POP PUSH1 0x0 SWAP1 PUSH1 0x1 PUSH1 0x1 PUSH1 0xA0 SHL SUB PUSH32 0x0 AND SWAP1 PUSH4 0xFBC3AC3C SWAP1 PUSH1 0x64 ADD PUSH1 0x20 PUSH1 0x40 MLOAD DUP1 DUP4 SUB DUP2 DUP7 GAS STATICCALL ISZERO DUP1 ISZERO PUSH2 0x3B1 JUMPI RETURNDATASIZE PUSH1 0x0 DUP1 RETURNDATACOPY RETURNDATASIZE PUSH1 0x0 REVERT JUMPDEST POP POP POP POP PUSH1 0x40 MLOAD RETURNDATASIZE PUSH1 0x1F NOT PUSH1 0x1F DUP3 ADD AND DUP3 ADD DUP1 PUSH1 0x40 MSTORE POP DUP2 ADD SWAP1 PUSH2 0x3D5 SWAP2 SWAP1 PUSH2 0x170A JUMP JUMPDEST SWAP1 POP PUSH2 0x3E0 DUP2 PUSH2 0xFF8 JUMP JUMPDEST SWAP3 POP POP POP JUMPDEST SWAP3 SWAP2 POP POP JUMP JUMPDEST PUSH1 0x40 DUP1 MLOAD DUP4 DUP2 MSTORE DUP3 ISZERO ISZERO PUSH1 0x20 DUP3 ADD MSTORE PUSH32 0xDD31864B23BD4F09A8914C3EE2C028BD0CBF0186A8EEC21258681488239B92DD SWAP2 ADD PUSH1 0x40 MLOAD DUP1 SWAP2 SUB SWAP1 LOG1 POP POP JUMP JUMPDEST PUSH1 0x0 SLOAD PUSH1 0x1 PUSH1 0x1 PUSH1 0xA0 SHL SUB AND CALLER EQ PUSH2 0x488 JUMPI PUSH1 0x40 MLOAD PUSH3 0x461BCD PUSH1 0xE5 SHL DUP2 MSTORE PUSH1 0x20 PUSH1 0x4 DUP3 ADD DUP2 SWAP1 MSTORE PUSH1 0x24 DUP3 ADD MSTORE PUSH32 0x4F776E61626C653A2063616C6C6572206973206E6F7420746865206F776E6572 PUSH1 0x44 DUP3 ADD MSTORE PUSH1 0x64 ADD JUMPDEST PUSH1 0x40 MLOAD DUP1 SWAP2 SUB SWAP1 REVERT JUMPDEST PUSH1 0x0 PUSH2 0x497 PUSH3 0x186A0 DUP4 PUSH2 0x1751 JUMP JUMPDEST PUSH1 0xFF DUP2 AND PUSH1 0x0 SWAP1 DUP2 MSTORE PUSH1 0x2 PUSH1 0x20 MSTORE PUSH1 0x40 DUP1 DUP3 KECCAK256 SLOAD SWAP1 MLOAD PUSH4 0x70A08231 PUSH1 0xE0 SHL DUP2 MSTORE ADDRESS PUSH1 0x4 DUP3 ADD MSTORE SWAP3 SWAP4 POP PUSH1 0x1 PUSH1 0x1 PUSH1 0xA0 SHL SUB AND SWAP2 DUP3 SWAP2 SWAP1 DUP3 SWAP1 PUSH4 0x70A08231 SWAP1 PUSH1 0x24 ADD PUSH1 0x20 PUSH1 0x40 MLOAD DUP1 DUP4 SUB DUP2 DUP7 GAS STATICCALL ISZERO DUP1 ISZERO PUSH2 0x4F5 JUMPI RETURNDATASIZE PUSH1 0x0 DUP1 RETURNDATACOPY RETURNDATASIZE PUSH1 0x0 REVERT JUMPDEST POP POP POP POP PUSH1 0x40 MLOAD RETURNDATASIZE PUSH1 0x1F NOT PUSH1 0x1F DUP3 ADD AND DUP3 ADD DUP1 PUSH1 0x40 MSTORE POP DUP2 ADD SWAP1 PUSH2 0x519 SWAP2 SWAP1 PUSH2 0x1773 JUMP JUMPDEST SWAP1 POP PUSH2 0x52F PUSH1 0x1 PUSH1 0x1 PUSH1 0xA0 SHL SUB DUP4 AND CALLER DUP4 PUSH2 0x1024 JUMP JUMPDEST PUSH1 0x40 DUP1 MLOAD PUSH3 0xFFFFFF DUP8 AND DUP2 MSTORE CALLER PUSH1 0x20 DUP3 ADD MSTORE SWAP1 DUP2 ADD DUP3 SWAP1 MSTORE PUSH32 0xD7089A64EFA4CACCAEA095308C4DA0682A70797771CEE9B36AB4A63905403592 SWAP1 PUSH1 0x60 ADD PUSH1 0x40 MLOAD DUP1 SWAP2 SUB SWAP1 LOG1 POP POP POP POP POP JUMP JUMPDEST PUSH1 0x0 PUSH2 0x58A PUSH3 0x186A0 DUP4 PUSH2 0x1751 JUMP JUMPDEST PUSH1 0xFF DUP2 AND PUSH1 0x0 SWAP1 DUP2 MSTORE PUSH1 0x2 PUSH1 0x20 MSTORE PUSH1 0x40 SWAP1 KECCAK256 SLOAD SWAP1 SWAP2 POP PUSH1 0x1 PUSH1 0x1 PUSH1 0xA0 SHL SUB AND DUP1 PUSH2 0x5E5 JUMPI PUSH1 0x40 MLOAD PUSH3 0x461BCD PUSH1 0xE5 SHL DUP2 MSTORE PUSH1 0x20 PUSH1 0x4 DUP3 ADD MSTORE PUSH1 0xC PUSH1 0x24 DUP3 ADD MSTORE PUSH12 0x736574206F62206164647273 PUSH1 0xA0 SHL PUSH1 0x44 DUP3 ADD MSTORE PUSH1 0x64 ADD PUSH2 0x47F JUMP JUMPDEST PUSH1 0x40 MLOAD PUSH4 0x95EA7B3 PUSH1 0xE0 SHL DUP2 MSTORE PUSH1 0x1 PUSH1 0x1 PUSH1 0xA0 SHL SUB PUSH32 0x0 DUP2 AND PUSH1 0x4 DUP4 ADD MSTORE PUSH1 0x24 DUP3 ADD DUP7 SWAP1 MSTORE DUP3 AND SWAP1 PUSH4 0x95EA7B3 SWAP1 PUSH1 0x44 ADD PUSH1 0x20 PUSH1 0x40 MLOAD DUP1 DUP4 SUB DUP2 PUSH1 0x0 DUP8 GAS CALL ISZERO DUP1 ISZERO PUSH2 0x654 JUMPI RETURNDATASIZE PUSH1 0x0 DUP1 RETURNDATACOPY RETURNDATASIZE PUSH1 0x0 REVERT JUMPDEST POP POP POP POP PUSH1 0x40 MLOAD RETURNDATASIZE PUSH1 0x1F NOT PUSH1 0x1F DUP3 ADD AND DUP3 ADD DUP1 PUSH1 0x40 MSTORE POP DUP2 ADD SWAP1 PUSH2 0x678 SWAP2 SWAP1 PUSH2 0x1797 JUMP JUMPDEST POP POP POP POP POP JUMP JUMPDEST PUSH1 0x0 DUP1 SLOAD PUSH1 0x1 PUSH1 0x1 PUSH1 0xA0 SHL SUB AND CALLER EQ PUSH2 0x6DA JUMPI PUSH1 0x40 MLOAD PUSH3 0x461BCD PUSH1 0xE5 SHL DUP2 MSTORE PUSH1 0x20 PUSH1 0x4 DUP3 ADD DUP2 SWAP1 MSTORE PUSH1 0x24 DUP3 ADD MSTORE PUSH32 0x4F776E61626C653A2063616C6C6572206973206E6F7420746865206F776E6572 PUSH1 0x44 DUP3 ADD MSTORE PUSH1 0x64 ADD PUSH2 0x47F JUMP JUMPDEST PUSH3 0xFFFFFF DUP6 AND PUSH1 0x0 SWAP1 DUP2 MSTORE PUSH1 0x1 PUSH1 0x20 MSTORE PUSH1 0x40 SWAP1 KECCAK256 SLOAD PUSH1 0x1 PUSH1 0x1 PUSH1 0xA0 SHL SUB AND DUP1 PUSH2 0x745 JUMPI PUSH1 0x40 MLOAD PUSH3 0x461BCD PUSH1 0xE5 SHL DUP2 MSTORE PUSH1 0x20 PUSH1 0x4 DUP3 ADD MSTORE PUSH1 0x12 PUSH1 0x24 DUP3 ADD MSTORE PUSH32 0x6F7264657220626F6F6B20756E6B6E6F776E0000000000000000000000000000 PUSH1 0x44 DUP3 ADD MSTORE PUSH1 0x64 ADD PUSH2 0x47F JUMP JUMPDEST PUSH1 0x0 PUSH2 0x750 DUP7 PUSH2 0x1090 JUMP JUMPDEST SWAP1 POP DUP4 PUSH4 0xFFFFFFFF AND PUSH1 0x0 SUB PUSH2 0x768 JUMPI PUSH4 0x40000000 SWAP4 POP JUMPDEST PUSH1 0x40 DUP1 MLOAD PUSH1 0x1 DUP1 DUP3 MSTORE DUP2 DUP4 ADD SWAP1 SWAP3 MSTORE PUSH1 0x0 SWAP2 DUP2 PUSH1 0x20 ADD JUMPDEST PUSH1 0x40 DUP1 MLOAD PUSH2 0x1E0 DUP2 ADD DUP3 MSTORE PUSH1 0x0 DUP1 DUP3 MSTORE PUSH1 0x20 DUP1 DUP4 ADD DUP3 SWAP1 MSTORE SWAP3 DUP3 ADD DUP2 SWAP1 MSTORE PUSH1 0x60 DUP1 DUP4 ADD DUP3 SWAP1 MSTORE PUSH1 0x80 DUP4 ADD DUP3 SWAP1 MSTORE PUSH1 0xA0 DUP4 ADD DUP3 SWAP1 MSTORE PUSH1 0xC0 DUP4 ADD DUP3 SWAP1 MSTORE PUSH1 0xE0 DUP4 ADD DUP3 SWAP1 MSTORE PUSH2 0x100 DUP4 ADD DUP3 SWAP1 MSTORE PUSH2 0x120 DUP4 ADD DUP3 SWAP1 MSTORE PUSH2 0x140 DUP4 ADD DUP3 SWAP1 MSTORE PUSH2 0x160 DUP4 ADD DUP3 SWAP1 MSTORE PUSH2 0x180 DUP4 ADD DUP3 SWAP1 MSTORE PUSH2 0x1A0 DUP4 ADD MSTORE PUSH2 0x1C0 DUP3 ADD MSTORE DUP3 MSTORE PUSH1 0x0 NOT SWAP1 SWAP3 ADD SWAP2 ADD DUP2 PUSH2 0x77F JUMPI SWAP1 POP POP SWAP1 POP DUP5 DUP2 PUSH1 0x0 DUP2 MLOAD DUP2 LT PUSH2 0x81D JUMPI PUSH2 0x81D PUSH2 0x17B4 JUMP JUMPDEST PUSH1 0x20 MUL PUSH1 0x20 ADD ADD MLOAD PUSH1 0x80 ADD SWAP1 PUSH4 0xFFFFFFFF AND SWAP1 DUP2 PUSH4 0xFFFFFFFF AND DUP2 MSTORE POP POP DUP8 DUP2 PUSH1 0x0 DUP2 MLOAD DUP2 LT PUSH2 0x84F JUMPI PUSH2 0x84F PUSH2 0x17B4 JUMP JUMPDEST PUSH1 0x20 MUL PUSH1 0x20 ADD ADD MLOAD PUSH1 0x0 ADD SWAP1 PUSH3 0xFFFFFF AND SWAP1 DUP2 PUSH3 0xFFFFFF AND DUP2 MSTORE POP POP ADDRESS DUP2 PUSH1 0x0 DUP2 MLOAD DUP2 LT PUSH2 0x87F JUMPI PUSH2 0x87F PUSH2 0x17B4 JUMP JUMPDEST PUSH1 0x20 MUL PUSH1 0x20 ADD ADD MLOAD PUSH2 0x140 ADD SWAP1 PUSH1 0x1 PUSH1 0x1 PUSH1 0xA0 SHL SUB AND SWAP1 DUP2 PUSH1 0x1 PUSH1 0x1 PUSH1 0xA0 SHL SUB AND DUP2 MSTORE POP POP DUP2 DUP2 PUSH1 0x0 DUP2 MLOAD DUP2 LT PUSH2 0x8B8 JUMPI PUSH2 0x8B8 PUSH2 0x17B4 JUMP JUMPDEST PUSH1 0x20 MUL PUSH1 0x20 ADD ADD MLOAD PUSH2 0x100 ADD SWAP1 PUSH1 0xF SIGNEXTEND SWAP1 DUP2 PUSH1 0xF SIGNEXTEND DUP2 MSTORE POP POP PUSH1 0x0 DUP3 PUSH1 0xF SIGNEXTEND SGT PUSH2 0x8E3 JUMPI PUSH1 0x0 PUSH2 0x8F5 JUMP JUMPDEST PUSH16 0x7FFFFFFFFFFFFFFFFFFFFFFFFFFFFFFF JUMPDEST DUP2 PUSH1 0x0 DUP2 MLOAD DUP2 LT PUSH2 0x908 JUMPI PUSH2 0x908 PUSH2 0x17B4 JUMP JUMPDEST PUSH1 0x20 MUL PUSH1 0x20 ADD ADD MLOAD PUSH1 0x20 ADD SWAP1 PUSH1 0xF SIGNEXTEND SWAP1 DUP2 PUSH1 0xF SIGNEXTEND DUP2 MSTORE POP POP DUP6 DUP2 PUSH1 0x0 DUP2 MLOAD DUP2 LT PUSH2 0x934 JUMPI PUSH2 0x934 PUSH2 0x17B4 JUMP JUMPDEST PUSH1 0x20 SWAP1 DUP2 MUL SWAP2 SWAP1 SWAP2 ADD ADD MLOAD PUSH2 0xFFFF SWAP1 SWAP2 AND PUSH1 0x40 SWAP1 SWAP2 ADD MSTORE PUSH2 0x958 TIMESTAMP PUSH3 0x3F480 PUSH2 0x17CA JUMP JUMPDEST DUP2 PUSH1 0x0 DUP2 MLOAD DUP2 LT PUSH2 0x96B JUMPI PUSH2 0x96B PUSH2 0x17B4 JUMP JUMPDEST PUSH1 0x20 MUL PUSH1 0x20 ADD ADD MLOAD PUSH1 0xA0 ADD SWAP1 PUSH4 0xFFFFFFFF AND SWAP1 DUP2 PUSH4 0xFFFFFFFF AND DUP2 MSTORE POP POP TIMESTAMP DUP2 PUSH1 0x0 DUP2 MLOAD DUP2 LT PUSH2 0x99D JUMPI PUSH2 0x99D PUSH2 0x17B4 JUMP JUMPDEST PUSH1 0x20 MUL PUSH1 0x20 ADD ADD MLOAD PUSH1 0x60 ADD SWAP1 PUSH4 0xFFFFFFFF AND SWAP1 DUP2 PUSH4 0xFFFFFFFF AND DUP2 MSTORE POP POP ADDRESS DUP2 PUSH1 0x0 DUP2 MLOAD DUP2 LT PUSH2 0x9CF JUMPI PUSH2 0x9CF PUSH2 0x17B4 JUMP JUMPDEST PUSH1 0x20 SWAP1 DUP2 MUL SWAP2 SWAP1 SWAP2 ADD ADD MLOAD PUSH1 0x1 PUSH1 0x1 PUSH1 0xA0 SHL SUB SWAP2 SWAP1 SWAP2 AND PUSH2 0x1C0 SWAP1 SWAP2 ADD MSTORE PUSH1 0x40 DUP1 MLOAD PUSH1 0x1 DUP1 DUP3 MSTORE DUP2 DUP4 ADD SWAP1 SWAP3 MSTORE PUSH1 0x0 SWAP2 DUP2 PUSH1 0x20 ADD JUMPDEST PUSH1 0x60 DUP2 MSTORE PUSH1 0x20 ADD SWAP1 PUSH1 0x1 SWAP1 SUB SWAP1 DUP2 PUSH2 0xA04 JUMPI POP POP PUSH1 0x40 MLOAD PUSH4 0x2A697927 PUSH1 0xE2 SHL DUP2 MSTORE SWAP1 SWAP2 POP PUSH1 0x1 PUSH1 0x1 PUSH1 0xA0 SHL SUB DUP6 AND SWAP1 PUSH4 0xA9A5E49C SWAP1 PUSH2 0xA49 SWAP1 DUP6 SWAP1 DUP6 SWAP1 PUSH1 0x4 ADD PUSH2 0x1882 JUMP JUMPDEST PUSH1 0x0 PUSH1 0x40 MLOAD DUP1 DUP4 SUB DUP2 PUSH1 0x0 DUP8 DUP1 EXTCODESIZE ISZERO DUP1 ISZERO PUSH2 0xA63 JUMPI PUSH1 0x0 DUP1 REVERT JUMPDEST POP GAS CALL SWAP3 POP POP POP DUP1 ISZERO PUSH2 0xA74 JUMPI POP PUSH1 0x1 JUMPDEST PUSH2 0xAF0 JUMPI PUSH2 0xA80 PUSH2 0x19F4 JUMP JUMPDEST DUP1 PUSH4 0x8C379A0 SUB PUSH2 0xAE4 JUMPI POP PUSH2 0xA94 PUSH2 0x1A10 JUMP JUMPDEST DUP1 PUSH2 0xA9F JUMPI POP PUSH2 0xAE6 JUMP JUMPDEST PUSH32 0x2858238D037E52471D3AD4944D280CDB1FD3B479A3FDF698BB04E99572E6EFA8 DUP2 PUSH1 0x40 MLOAD PUSH2 0xACE SWAP2 SWAP1 PUSH2 0x1A9A JUMP JUMPDEST PUSH1 0x40 MLOAD DUP1 SWAP2 SUB SWAP1 LOG1 PUSH1 0x0 SWAP6 POP POP POP POP POP POP PUSH2 0xB35 JUMP JUMPDEST POP JUMPDEST RETURNDATASIZE PUSH1 0x0 DUP1 RETURNDATACOPY RETURNDATASIZE PUSH1 0x0 REVERT JUMPDEST PUSH1 0x40 DUP1 MLOAD DUP10 DUP2 MSTORE PUSH2 0xFFFF DUP10 AND PUSH1 0x20 DUP3 ADD MSTORE PUSH32 0x742895F70ED9B3E00487DB3827A00B9C91DE8360CD96129050B8A82C99DE4862 SWAP2 ADD PUSH1 0x40 MLOAD DUP1 SWAP2 SUB SWAP1 LOG1 PUSH1 0x1 SWAP5 POP POP POP POP POP JUMPDEST SWAP5 SWAP4 POP POP POP POP JUMP JUMPDEST PUSH1 0x0 SLOAD PUSH1 0x1 PUSH1 0x1 PUSH1 0xA0 SHL SUB AND CALLER EQ PUSH2 0xB97 JUMPI PUSH1 0x40 MLOAD PUSH3 0x461BCD PUSH1 0xE5 SHL DUP2 MSTORE PUSH1 0x20 PUSH1 0x4 DUP3 ADD DUP2 SWAP1 MSTORE PUSH1 0x24 DUP3 ADD MSTORE PUSH32 0x4F776E61626C653A2063616C6C6572206973206E6F7420746865206F776E6572 PUSH1 0x44 DUP3 ADD MSTORE PUSH1 0x64 ADD PUSH2 0x47F JUMP JUMPDEST PUSH2 0xBA1 PUSH1 0x0 PUSH2 0x1138 JUMP JUMPDEST JUMP JUMPDEST PUSH2 0xBE1 PUSH1 0x40 MLOAD DUP1 PUSH1 0x80 ADD PUSH1 0x40 MSTORE DUP1 PUSH1 0x0 DUP2 MSTORE PUSH1 0x20 ADD PUSH1 0x0 DUP2 MSTORE PUSH1 0x20 ADD PUSH1 0x0 DUP2 MSTORE PUSH1 0x20 ADD PUSH1 0x0 PUSH16 0xFFFFFFFFFFFFFFFFFFFFFFFFFFFFFFFF NOT AND DUP2 MSTORE POP SWAP1 JUMP JUMPDEST PUSH1 0x40 MLOAD PUSH4 0x3D53A26B PUSH1 0xE1 SHL DUP2 MSTORE PUSH3 0xFFFFFF DUP4 AND PUSH1 0x4 DUP3 ADD MSTORE ADDRESS PUSH1 0x24 DUP3 ADD MSTORE PUSH1 0x0 SWAP1 PUSH32 0x0 PUSH1 0x1 PUSH1 0x1 PUSH1 0xA0 SHL SUB AND SWAP1 PUSH4 0x7AA744D6 SWAP1 PUSH1 0x44 ADD PUSH2 0x100 PUSH1 0x40 MLOAD DUP1 DUP4 SUB DUP2 DUP7 GAS STATICCALL ISZERO DUP1 ISZERO PUSH2 0xC54 JUMPI RETURNDATASIZE PUSH1 0x0 DUP1 RETURNDATACOPY RETURNDATASIZE PUSH1 0x0 REVERT JUMPDEST POP POP POP POP PUSH1 0x40 MLOAD RETURNDATASIZE PUSH1 0x1F NOT PUSH1 0x1F DUP3 ADD AND DUP3 ADD DUP1 PUSH1 0x40 MSTORE POP DUP2 ADD SWAP1 PUSH2 0xC78 SWAP2 SWAP1 PUSH2 0x1637 JUMP JUMPDEST SWAP1 POP PUSH2 0xCB8 PUSH1 0x40 MLOAD DUP1 PUSH1 0x80 ADD PUSH1 0x40 MSTORE DUP1 PUSH1 0x0 DUP2 MSTORE PUSH1 0x20 ADD PUSH1 0x0 DUP2 MSTORE PUSH1 0x20 ADD PUSH1 0x0 DUP2 MSTORE PUSH1 0x20 ADD PUSH1 0x0 PUSH16 0xFFFFFFFFFFFFFFFFFFFFFFFFFFFFFFFF NOT AND DUP2 MSTORE POP SWAP1 JUMP JUMPDEST DUP2 MLOAD PUSH2 0xCC3 SWAP1 PUSH2 0xFF8 JUMP JUMPDEST DUP2 MSTORE PUSH1 0x20 DUP3 ADD MLOAD PUSH2 0xCD3 SWAP1 PUSH2 0xFF8 JUMP JUMPDEST PUSH1 0x20 DUP3 ADD MSTORE PUSH1 0x40 DUP3 ADD MLOAD PUSH2 0xCE6 SWAP1 PUSH2 0xFF8 JUMP JUMPDEST PUSH1 0x40 DUP3 ADD MSTORE PUSH1 0xE0 SWAP1 SWAP2 ADD MLOAD PUSH16 0xFFFFFFFFFFFFFFFFFFFFFFFFFFFFFFFF NOT AND PUSH1 0x60 DUP3 ADD MSTORE SWAP3 SWAP2 POP POP JUMP JUMPDEST PUSH1 0x40 MLOAD PUSH4 0x79E02E9 PUSH1 0xE2 SHL DUP2 MSTORE PUSH3 0xFFFFFF DUP3 AND PUSH1 0x4 DUP3 ADD MSTORE PUSH1 0x0 SWAP1 PUSH32 0x0 PUSH1 0x1 PUSH1 0x1 PUSH1 0xA0 SHL SUB AND SWAP1 PUSH4 0x1E780BA4 SWAP1 PUSH1 0x24 ADD PUSH1 0x20 PUSH1 0x40 MLOAD DUP1 DUP4 SUB DUP2 DUP7 GAS STATICCALL ISZERO DUP1 ISZERO PUSH2 0xD7B JUMPI RETURNDATASIZE PUSH1 0x0 DUP1 RETURNDATACOPY RETURNDATASIZE PUSH1 0x0 REVERT JUMPDEST POP POP POP POP PUSH1 0x40 MLOAD RETURNDATASIZE PUSH1 0x1F NOT PUSH1 0x1F DUP3 ADD AND DUP3 ADD DUP1 PUSH1 0x40 MSTORE POP DUP2 ADD SWAP1 PUSH2 0xD9F SWAP2 SWAP1 PUSH2 0x1AB8 JUMP JUMPDEST PUSH3 0xFFFFFF DUP4 AND PUSH1 0x0 SWAP1 DUP2 MSTORE PUSH1 0x1 PUSH1 0x20 MSTORE PUSH1 0x40 DUP2 KECCAK256 DUP1 SLOAD PUSH1 0x1 PUSH1 0x1 PUSH1 0xA0 SHL SUB NOT AND PUSH1 0x1 PUSH1 0x1 PUSH1 0xA0 SHL SUB DUP5 AND OR SWAP1 SSTORE SWAP1 SWAP2 POP PUSH2 0xDDC PUSH3 0x186A0 DUP5 PUSH2 0x1751 JUMP JUMPDEST PUSH1 0xFF DUP2 AND PUSH1 0x0 SWAP1 DUP2 MSTORE PUSH1 0x2 PUSH1 0x20 MSTORE PUSH1 0x40 SWAP1 KECCAK256 SLOAD SWAP1 SWAP2 POP PUSH1 0x1 PUSH1 0x1 PUSH1 0xA0 SHL SUB AND PUSH2 0xEC3 JUMPI PUSH1 0x40 MLOAD PUSH4 0x1857BE39 PUSH1 0xE1 SHL DUP2 MSTORE PUSH1 0xFF DUP3 AND PUSH1 0x4 DUP3 ADD MSTORE PUSH1 0x0 SWAP1 PUSH32 0x0 PUSH1 0x1 PUSH1 0x1 PUSH1 0xA0 SHL SUB AND SWAP1 PUSH4 0x30AF7C72 SWAP1 PUSH1 0x24 ADD PUSH2 0x260 PUSH1 0x40 MLOAD DUP1 DUP4 SUB DUP2 DUP7 GAS STATICCALL ISZERO DUP1 ISZERO PUSH2 0xE6A JUMPI RETURNDATASIZE PUSH1 0x0 DUP1 RETURNDATACOPY RETURNDATASIZE PUSH1 0x0 REVERT JUMPDEST POP POP POP POP PUSH1 0x40 MLOAD RETURNDATASIZE PUSH1 0x1F NOT PUSH1 0x1F DUP3 ADD AND DUP3 ADD DUP1 PUSH1 0x40 MSTORE POP DUP2 ADD SWAP1 PUSH2 0xE8E SWAP2 SWAP1 PUSH2 0x1B12 JUMP JUMPDEST PUSH1 0xC0 ADD MLOAD PUSH1 0xFF DUP4 AND PUSH1 0x0 SWAP1 DUP2 MSTORE PUSH1 0x2 PUSH1 0x20 MSTORE PUSH1 0x40 SWAP1 KECCAK256 DUP1 SLOAD PUSH1 0x1 PUSH1 0x1 PUSH1 0xA0 SHL SUB NOT AND PUSH1 0x1 PUSH1 0x1 PUSH1 0xA0 SHL SUB SWAP1 SWAP3 AND SWAP2 SWAP1 SWAP2 OR SWAP1 SSTORE POP JUMPDEST PUSH1 0xFF DUP2 AND PUSH1 0x0 SWAP1 DUP2 MSTORE PUSH1 0x2 PUSH1 0x20 SWAP1 DUP2 MSTORE PUSH1 0x40 SWAP2 DUP3 SWAP1 KECCAK256 SLOAD DUP3 MLOAD PUSH3 0xFFFFFF DUP8 AND DUP2 MSTORE PUSH1 0x1 PUSH1 0x1 PUSH1 0xA0 SHL SUB DUP7 DUP2 AND SWAP4 DUP3 ADD SWAP4 SWAP1 SWAP4 MSTORE SWAP2 AND DUP2 DUP4 ADD MSTORE SWAP1 MLOAD PUSH32 0x5222A91CEC499C7C85C5FCB8B8DDFB81880EC40273D8CDA372740D8A97FA6EC7 SWAP2 DUP2 SWAP1 SUB PUSH1 0x60 ADD SWAP1 LOG1 POP POP POP JUMP JUMPDEST PUSH1 0x0 SLOAD PUSH1 0x1 PUSH1 0x1 PUSH1 0xA0 SHL SUB AND CALLER EQ PUSH2 0xF87 JUMPI PUSH1 0x40 MLOAD PUSH3 0x461BCD PUSH1 0xE5 SHL DUP2 MSTORE PUSH1 0x20 PUSH1 0x4 DUP3 ADD DUP2 SWAP1 MSTORE PUSH1 0x24 DUP3 ADD MSTORE PUSH32 0x4F776E61626C653A2063616C6C6572206973206E6F7420746865206F776E6572 PUSH1 0x44 DUP3 ADD MSTORE PUSH1 0x64 ADD PUSH2 0x47F JUMP JUMPDEST PUSH1 0x1 PUSH1 0x1 PUSH1 0xA0 SHL SUB DUP2 AND PUSH2 0xFEC JUMPI PUSH1 0x40 MLOAD PUSH3 0x461BCD PUSH1 0xE5 SHL DUP2 MSTORE PUSH1 0x20 PUSH1 0x4 DUP3 ADD MSTORE PUSH1 0x26 PUSH1 0x24 DUP3 ADD MSTORE PUSH32 0x4F776E61626C653A206E6577206F776E657220697320746865207A65726F2061 PUSH1 0x44 DUP3 ADD MSTORE PUSH6 0x646472657373 PUSH1 0xD0 SHL PUSH1 0x64 DUP3 ADD MSTORE PUSH1 0x84 ADD PUSH2 0x47F JUMP JUMPDEST PUSH2 0xFF5 DUP2 PUSH2 0x1138 JUMP JUMPDEST POP JUMP JUMPDEST PUSH1 0x0 PUSH9 0x10000000000000000 PUSH2 0x101A PUSH8 0xDE0B6B3A7640000 PUSH1 0xF DUP6 SWAP1 SIGNEXTEND PUSH2 0x1C7C JUMP JUMPDEST PUSH2 0x3E5 SWAP2 SWAP1 PUSH2 0x1CAC JUMP JUMPDEST PUSH1 0x40 DUP1 MLOAD PUSH1 0x1 PUSH1 0x1 PUSH1 0xA0 SHL SUB DUP5 AND PUSH1 0x24 DUP3 ADD MSTORE PUSH1 0x44 DUP1 DUP3 ADD DUP5 SWAP1 MSTORE DUP3 MLOAD DUP1 DUP4 SUB SWAP1 SWAP2 ADD DUP2 MSTORE PUSH1 0x64 SWAP1 SWAP2 ADD SWAP1 SWAP2 MSTORE PUSH1 0x20 DUP2 ADD DUP1 MLOAD PUSH28 0xFFFFFFFFFFFFFFFFFFFFFFFFFFFFFFFFFFFFFFFFFFFFFFFFFFFFFFFF AND PUSH4 0xA9059CBB PUSH1 0xE0 SHL OR SWAP1 MSTORE PUSH2 0x108B SWAP1 DUP5 SWAP1 PUSH2 0x1188 JUMP JUMPDEST POP POP POP JUMP JUMPDEST PUSH1 0x0 DUP1 PUSH8 0xDE0B6B3A7640000 PUSH2 0x10AF PUSH9 0x10000000000000000 DUP6 PUSH2 0x1C7C JUMP JUMPDEST PUSH2 0x10B9 SWAP2 SWAP1 PUSH2 0x1CAC JUMP JUMPDEST SWAP1 POP PUSH16 0x7FFFFFFFFFFFFFFFFFFFFFFFFFFFFFFF NOT DUP4 SLT DUP1 ISZERO SWAP1 PUSH2 0x10EC JUMPI POP PUSH16 0x7FFFFFFFFFFFFFFFFFFFFFFFFFFFFFFF DUP4 SGT ISZERO JUMPDEST PUSH2 0x3E5 JUMPI PUSH1 0x40 MLOAD PUSH3 0x461BCD PUSH1 0xE5 SHL DUP2 MSTORE PUSH1 0x20 PUSH1 0x4 DUP3 ADD MSTORE PUSH1 0x13 PUSH1 0x24 DUP3 ADD MSTORE PUSH32 0x726573756C74206F7574206F662072616E676500000000000000000000000000 PUSH1 0x44 DUP3 ADD MSTORE PUSH1 0x64 ADD PUSH2 0x47F JUMP JUMPDEST PUSH1 0x0 DUP1 SLOAD PUSH1 0x1 PUSH1 0x1 PUSH1 0xA0 SHL SUB DUP4 DUP2 AND PUSH1 0x1 PUSH1 0x1 PUSH1 0xA0 SHL SUB NOT DUP4 AND DUP2 OR DUP5 SSTORE PUSH1 0x40 MLOAD SWAP2 SWAP1 SWAP3 AND SWAP3 DUP4 SWAP2 PUSH32 0x8BE0079C531659141344CD1FD0A4F28419497F9722A3DAAFE3B4186F6B6457E0 SWAP2 SWAP1 LOG3 POP POP JUMP JUMPDEST PUSH1 0x0 PUSH2 0x11DD DUP3 PUSH1 0x40 MLOAD DUP1 PUSH1 0x40 ADD PUSH1 0x40 MSTORE DUP1 PUSH1 0x20 DUP2 MSTORE PUSH1 0x20 ADD PUSH32 0x5361666545524332303A206C6F772D6C6576656C2063616C6C206661696C6564 DUP2 MSTORE POP DUP6 PUSH1 0x1 PUSH1 0x1 PUSH1 0xA0 SHL SUB AND PUSH2 0x125A SWAP1 SWAP3 SWAP2 SWAP1 PUSH4 0xFFFFFFFF AND JUMP JUMPDEST DUP1 MLOAD SWAP1 SWAP2 POP ISZERO PUSH2 0x108B JUMPI DUP1 DUP1 PUSH1 0x20 ADD SWAP1 MLOAD DUP2 ADD SWAP1 PUSH2 0x11FB SWAP2 SWAP1 PUSH2 0x1797 JUMP JUMPDEST PUSH2 0x108B JUMPI PUSH1 0x40 MLOAD PUSH3 0x461BCD PUSH1 0xE5 SHL DUP2 MSTORE PUSH1 0x20 PUSH1 0x4 DUP3 ADD MSTORE PUSH1 0x2A PUSH1 0x24 DUP3 ADD MSTORE PUSH32 0x5361666545524332303A204552433230206F7065726174696F6E20646964206E PUSH1 0x44 DUP3 ADD MSTORE PUSH10 0x1BDD081CDD58D8D95959 PUSH1 0xB2 SHL PUSH1 0x64 DUP3 ADD MSTORE PUSH1 0x84 ADD PUSH2 0x47F JUMP JUMPDEST PUSH1 0x60 PUSH2 0x1269 DUP5 DUP5 PUSH1 0x0 DUP6 PUSH2 0x1273 JUMP JUMPDEST SWAP1 POP JUMPDEST SWAP4 SWAP3 POP POP POP JUMP JUMPDEST PUSH1 0x60 DUP3 SELFBALANCE LT ISZERO PUSH2 0x12D4 JUMPI PUSH1 0x40 MLOAD PUSH3 0x461BCD PUSH1 0xE5 SHL DUP2 MSTORE PUSH1 0x20 PUSH1 0x4 DUP3 ADD MSTORE PUSH1 0x26 PUSH1 0x24 DUP3 ADD MSTORE PUSH32 0x416464726573733A20696E73756666696369656E742062616C616E636520666F PUSH1 0x44 DUP3 ADD MSTORE PUSH6 0x1C8818D85B1B PUSH1 0xD2 SHL PUSH1 0x64 DUP3 ADD MSTORE PUSH1 0x84 ADD PUSH2 0x47F JUMP JUMPDEST PUSH1 0x1 PUSH1 0x1 PUSH1 0xA0 SHL SUB DUP6 AND EXTCODESIZE PUSH2 0x132B JUMPI PUSH1 0x40 MLOAD PUSH3 0x461BCD PUSH1 0xE5 SHL DUP2 MSTORE PUSH1 0x20 PUSH1 0x4 DUP3 ADD MSTORE PUSH1 0x1D PUSH1 0x24 DUP3 ADD MSTORE PUSH32 0x416464726573733A2063616C6C20746F206E6F6E2D636F6E7472616374000000 PUSH1 0x44 DUP3 ADD MSTORE PUSH1 0x64 ADD PUSH2 0x47F JUMP JUMPDEST PUSH1 0x0 DUP1 DUP7 PUSH1 0x1 PUSH1 0x1 PUSH1 0xA0 SHL SUB AND DUP6 DUP8 PUSH1 0x40 MLOAD PUSH2 0x1347 SWAP2 SWAP1 PUSH2 0x1CDA JUMP JUMPDEST PUSH1 0x0 PUSH1 0x40 MLOAD DUP1 DUP4 SUB DUP2 DUP6 DUP8 GAS CALL SWAP3 POP POP POP RETURNDATASIZE DUP1 PUSH1 0x0 DUP2 EQ PUSH2 0x1384 JUMPI PUSH1 0x40 MLOAD SWAP2 POP PUSH1 0x1F NOT PUSH1 0x3F RETURNDATASIZE ADD AND DUP3 ADD PUSH1 0x40 MSTORE RETURNDATASIZE DUP3 MSTORE RETURNDATASIZE PUSH1 0x0 PUSH1 0x20 DUP5 ADD RETURNDATACOPY PUSH2 0x1389 JUMP JUMPDEST PUSH1 0x60 SWAP2 POP JUMPDEST POP SWAP2 POP SWAP2 POP PUSH2 0x1399 DUP3 DUP3 DUP7 PUSH2 0x13A4 JUMP JUMPDEST SWAP8 SWAP7 POP POP POP POP POP POP POP JUMP JUMPDEST PUSH1 0x60 DUP4 ISZERO PUSH2 0x13B3 JUMPI POP DUP2 PUSH2 0x126C JUMP JUMPDEST DUP3 MLOAD ISZERO PUSH2 0x13C3 JUMPI DUP3 MLOAD DUP1 DUP5 PUSH1 0x20 ADD REVERT JUMPDEST DUP2 PUSH1 0x40 MLOAD PUSH3 0x461BCD PUSH1 0xE5 SHL DUP2 MSTORE PUSH1 0x4 ADD PUSH2 0x47F SWAP2 SWAP1 PUSH2 0x1A9A JUMP JUMPDEST DUP1 CALLDATALOAD PUSH3 0xFFFFFF DUP2 AND DUP2 EQ PUSH2 0x13F0 JUMPI PUSH1 0x0 DUP1 REVERT JUMPDEST SWAP2 SWAP1 POP JUMP JUMPDEST PUSH1 0x0 PUSH1 0x20 DUP3 DUP5 SUB SLT ISZERO PUSH2 0x1407 JUMPI PUSH1 0x0 DUP1 REVERT JUMPDEST PUSH2 0x126C DUP3 PUSH2 0x13DD JUMP JUMPDEST DUP1 ISZERO ISZERO DUP2 EQ PUSH2 0xFF5 JUMPI PUSH1 0x0 DUP1 REVERT JUMPDEST PUSH1 0x0 DUP1 PUSH1 0x40 DUP4 DUP6 SUB SLT ISZERO PUSH2 0x1431 JUMPI PUSH1 0x0 DUP1 REVERT JUMPDEST PUSH2 0x143A DUP4 PUSH2 0x13DD JUMP JUMPDEST SWAP2 POP PUSH1 0x20 DUP4 ADD CALLDATALOAD PUSH2 0x144A DUP2 PUSH2 0x1410 JUMP JUMPDEST DUP1 SWAP2 POP POP SWAP3 POP SWAP3 SWAP1 POP JUMP JUMPDEST PUSH1 0x0 DUP1 PUSH1 0x40 DUP4 DUP6 SUB SLT ISZERO PUSH2 0x1468 JUMPI PUSH1 0x0 DUP1 REVERT JUMPDEST DUP3 CALLDATALOAD SWAP2 POP PUSH1 0x20 DUP4 ADD CALLDATALOAD PUSH2 0x144A DUP2 PUSH2 0x1410 JUMP JUMPDEST PUSH1 0x0 DUP1 PUSH1 0x40 DUP4 DUP6 SUB SLT ISZERO PUSH2 0x148D JUMPI PUSH1 0x0 DUP1 REVERT JUMPDEST DUP3 CALLDATALOAD SWAP2 POP PUSH2 0x149D PUSH1 0x20 DUP5 ADD PUSH2 0x13DD JUMP JUMPDEST SWAP1 POP SWAP3 POP SWAP3 SWAP1 POP JUMP JUMPDEST PUSH2 0xFFFF DUP2 AND DUP2 EQ PUSH2 0xFF5 JUMPI PUSH1 0x0 DUP1 REVERT JUMPDEST PUSH1 0x0 DUP1 PUSH1 0x0 DUP1 PUSH1 0x80 DUP6 DUP8 SUB SLT ISZERO PUSH2 0x14CC JUMPI PUSH1 0x0 DUP1 REVERT JUMPDEST PUSH2 0x14D5 DUP6 PUSH2 0x13DD JUMP JUMPDEST SWAP4 POP PUSH1 0x20 DUP6 ADD CALLDATALOAD SWAP3 POP PUSH1 0x40 DUP6 ADD CALLDATALOAD PUSH2 0x14EC DUP2 PUSH2 0x14A6 JUMP JUMPDEST SWAP2 POP PUSH1 0x60 DUP6 ADD CALLDATALOAD PUSH4 0xFFFFFFFF DUP2 AND DUP2 EQ PUSH2 0x1505 JUMPI PUSH1 0x0 DUP1 REVERT JUMPDEST SWAP4 SWAP7 SWAP3 SWAP6 POP SWAP1 SWAP4 POP POP JUMP JUMPDEST PUSH1 0xFF DUP2 AND DUP2 EQ PUSH2 0xFF5 JUMPI PUSH1 0x0 DUP1 REVERT JUMPDEST PUSH1 0x0 PUSH1 0x20 DUP3 DUP5 SUB SLT ISZERO PUSH2 0x1531 JUMPI PUSH1 0x0 DUP1 REVERT JUMPDEST DUP2 CALLDATALOAD PUSH2 0x126C DUP2 PUSH2 0x1510 JUMP JUMPDEST PUSH1 0x1 PUSH1 0x1 PUSH1 0xA0 SHL SUB DUP2 AND DUP2 EQ PUSH2 0xFF5 JUMPI PUSH1 0x0 DUP1 REVERT JUMPDEST PUSH1 0x0 PUSH1 0x20 DUP3 DUP5 SUB SLT ISZERO PUSH2 0x1563 JUMPI PUSH1 0x0 DUP1 REVERT JUMPDEST DUP2 CALLDATALOAD PUSH2 0x126C DUP2 PUSH2 0x153C JUMP JUMPDEST PUSH1 0x1F DUP3 ADD PUSH1 0x1F NOT AND DUP2 ADD PUSH8 0xFFFFFFFFFFFFFFFF DUP2 GT DUP3 DUP3 LT OR ISZERO PUSH2 0x15A2 JUMPI PUSH4 0x4E487B71 PUSH1 0xE0 SHL PUSH1 0x0 MSTORE PUSH1 0x41 PUSH1 0x4 MSTORE PUSH1 0x24 PUSH1 0x0 REVERT JUMPDEST PUSH1 0x40 MSTORE POP POP JUMP JUMPDEST PUSH1 0x40 MLOAD PUSH2 0x260 DUP2 ADD PUSH8 0xFFFFFFFFFFFFFFFF DUP2 GT DUP3 DUP3 LT OR ISZERO PUSH2 0x15DB JUMPI PUSH4 0x4E487B71 PUSH1 0xE0 SHL PUSH1 0x0 MSTORE PUSH1 0x41 PUSH1 0x4 MSTORE PUSH1 0x24 PUSH1 0x0 REVERT JUMPDEST PUSH1 0x40 MSTORE SWAP1 JUMP JUMPDEST DUP1 MLOAD PUSH1 0xF DUP2 SWAP1 SIGNEXTEND DUP2 EQ PUSH2 0x13F0 JUMPI PUSH1 0x0 DUP1 REVERT JUMPDEST DUP1 MLOAD PUSH8 0xFFFFFFFFFFFFFFFF DUP2 AND DUP2 EQ PUSH2 0x13F0 JUMPI PUSH1 0x0 DUP1 REVERT JUMPDEST DUP1 MLOAD PUSH2 0x13F0 DUP2 PUSH2 0x14A6 JUMP JUMPDEST DUP1 MLOAD PUSH16 0xFFFFFFFFFFFFFFFFFFFFFFFFFFFFFFFF NOT DUP2 AND DUP2 EQ PUSH2 0x13F0 JUMPI PUSH1 0x0 DUP1 REVERT JUMPDEST PUSH1 0x0 PUSH2 0x100 DUP1 DUP4 DUP6 SUB SLT ISZERO PUSH2 0x164B JUMPI PUSH1 0x0 DUP1 REVERT JUMPDEST PUSH1 0x40 MLOAD SWAP1 DUP2 ADD SWAP1 PUSH8 0xFFFFFFFFFFFFFFFF DUP3 GT DUP2 DUP4 LT OR ISZERO PUSH2 0x167C JUMPI PUSH4 0x4E487B71 PUSH1 0xE0 SHL PUSH1 0x0 MSTORE PUSH1 0x41 PUSH1 0x4 MSTORE PUSH1 0x24 PUSH1 0x0 REVERT JUMPDEST DUP2 PUSH1 0x40 MSTORE PUSH2 0x1689 DUP5 PUSH2 0x15E1 JUMP JUMPDEST DUP2 MSTORE PUSH2 0x1697 PUSH1 0x20 DUP6 ADD PUSH2 0x15E1 JUMP JUMPDEST PUSH1 0x20 DUP3 ADD MSTORE PUSH2 0x16A8 PUSH1 0x40 DUP6 ADD PUSH2 0x15E1 JUMP JUMPDEST PUSH1 0x40 DUP3 ADD MSTORE PUSH2 0x16B9 PUSH1 0x60 DUP6 ADD PUSH2 0x15E1 JUMP JUMPDEST PUSH1 0x60 DUP3 ADD MSTORE PUSH2 0x16CA PUSH1 0x80 DUP6 ADD PUSH2 0x15F3 JUMP JUMPDEST PUSH1 0x80 DUP3 ADD MSTORE PUSH2 0x16DB PUSH1 0xA0 DUP6 ADD PUSH2 0x160B JUMP JUMPDEST PUSH1 0xA0 DUP3 ADD MSTORE PUSH2 0x16EC PUSH1 0xC0 DUP6 ADD PUSH2 0x160B JUMP JUMPDEST PUSH1 0xC0 DUP3 ADD MSTORE PUSH2 0x16FD PUSH1 0xE0 DUP6 ADD PUSH2 0x1616 JUMP JUMPDEST PUSH1 0xE0 DUP3 ADD MSTORE SWAP5 SWAP4 POP POP POP POP JUMP JUMPDEST PUSH1 0x0 PUSH1 0x20 DUP3 DUP5 SUB SLT ISZERO PUSH2 0x171C JUMPI PUSH1 0x0 DUP1 REVERT JUMPDEST PUSH2 0x126C DUP3 PUSH2 0x15E1 JUMP JUMPDEST PUSH4 0x4E487B71 PUSH1 0xE0 SHL PUSH1 0x0 MSTORE PUSH1 0x12 PUSH1 0x4 MSTORE PUSH1 0x24 PUSH1 0x0 REVERT JUMPDEST PUSH4 0x4E487B71 PUSH1 0xE0 SHL PUSH1 0x0 MSTORE PUSH1 0x11 PUSH1 0x4 MSTORE PUSH1 0x24 PUSH1 0x0 REVERT JUMPDEST PUSH1 0x0 PUSH3 0xFFFFFF DUP1 DUP5 AND DUP1 PUSH2 0x1767 JUMPI PUSH2 0x1767 PUSH2 0x1725 JUMP JUMPDEST SWAP3 AND SWAP2 SWAP1 SWAP2 DIV SWAP3 SWAP2 POP POP JUMP JUMPDEST PUSH1 0x0 PUSH1 0x20 DUP3 DUP5 SUB SLT ISZERO PUSH2 0x1785 JUMPI PUSH1 0x0 DUP1 REVERT JUMPDEST POP MLOAD SWAP2 SWAP1 POP JUMP JUMPDEST DUP1 MLOAD PUSH2 0x13F0 DUP2 PUSH2 0x1410 JUMP JUMPDEST PUSH1 0x0 PUSH1 0x20 DUP3 DUP5 SUB SLT ISZERO PUSH2 0x17A9 JUMPI PUSH1 0x0 DUP1 REVERT JUMPDEST DUP2 MLOAD PUSH2 0x126C DUP2 PUSH2 0x1410 JUMP JUMPDEST PUSH4 0x4E487B71 PUSH1 0xE0 SHL PUSH1 0x0 MSTORE PUSH1 0x32 PUSH1 0x4 MSTORE PUSH1 0x24 PUSH1 0x0 REVERT JUMPDEST DUP1 DUP3 ADD DUP1 DUP3 GT ISZERO PUSH2 0x3E5 JUMPI PUSH2 0x3E5 PUSH2 0x173B JUMP JUMPDEST PUSH1 0x0 JUMPDEST DUP4 DUP2 LT ISZERO PUSH2 0x17F8 JUMPI DUP2 DUP2 ADD MLOAD DUP4 DUP3 ADD MSTORE PUSH1 0x20 ADD PUSH2 0x17E0 JUMP JUMPDEST POP POP PUSH1 0x0 SWAP2 ADD MSTORE JUMP JUMPDEST PUSH1 0x0 DUP2 MLOAD DUP1 DUP5 MSTORE PUSH2 0x1819 DUP2 PUSH1 0x20 DUP7 ADD PUSH1 0x20 DUP7 ADD PUSH2 0x17DD JUMP JUMPDEST PUSH1 0x1F ADD PUSH1 0x1F NOT AND SWAP3 SWAP1 SWAP3 ADD PUSH1 0x20 ADD SWAP3 SWAP2 POP POP JUMP JUMPDEST PUSH1 0x0 DUP2 MLOAD DUP1 DUP5 MSTORE PUSH1 0x20 DUP1 DUP6 ADD DUP1 DUP2 SWAP7 POP DUP4 PUSH1 0x5 SHL DUP2 ADD SWAP2 POP DUP3 DUP7 ADD PUSH1 0x0 JUMPDEST DUP6 DUP2 LT ISZERO PUSH2 0x1875 JUMPI DUP3 DUP5 SUB DUP10 MSTORE PUSH2 0x1863 DUP5 DUP4 MLOAD PUSH2 0x1801 JUMP JUMPDEST SWAP9 DUP6 ADD SWAP9 SWAP4 POP SWAP1 DUP5 ADD SWAP1 PUSH1 0x1 ADD PUSH2 0x184B JUMP JUMPDEST POP SWAP2 SWAP8 SWAP7 POP POP POP POP POP POP POP JUMP JUMPDEST PUSH1 0x0 PUSH1 0x40 DUP1 DUP4 ADD DUP2 DUP5 MSTORE DUP1 DUP7 MLOAD DUP1 DUP4 MSTORE PUSH1 0x60 SWAP3 POP DUP3 DUP7 ADD SWAP2 POP DUP3 DUP2 PUSH1 0x5 SHL DUP8 ADD ADD PUSH1 0x20 DUP1 DUP11 ADD PUSH1 0x0 JUMPDEST DUP5 DUP2 LT ISZERO PUSH2 0x19D4 JUMPI DUP10 DUP5 SUB PUSH1 0x5F NOT ADD DUP7 MSTORE DUP2 MLOAD DUP1 MLOAD PUSH3 0xFFFFFF AND DUP6 MSTORE PUSH2 0x1E0 DUP5 DUP3 ADD MLOAD PUSH2 0x18DC DUP7 DUP9 ADD DUP3 PUSH1 0xF SIGNEXTEND SWAP1 MSTORE JUMP JUMPDEST POP DUP10 DUP3 ADD MLOAD PUSH2 0xFFFF AND DUP7 DUP12 ADD MSTORE DUP9 DUP3 ADD MLOAD PUSH4 0xFFFFFFFF SWAP1 DUP2 AND DUP11 DUP9 ADD MSTORE PUSH1 0x80 DUP1 DUP5 ADD MLOAD DUP3 AND SWAP1 DUP9 ADD MSTORE PUSH1 0xA0 DUP1 DUP5 ADD MLOAD SWAP1 SWAP2 AND SWAP1 DUP8 ADD MSTORE PUSH1 0xC0 DUP1 DUP4 ADD MLOAD PUSH1 0x1 PUSH1 0x1 PUSH1 0xA0 SHL SUB AND SWAP1 DUP8 ADD MSTORE PUSH1 0xE0 DUP1 DUP4 ADD MLOAD PUSH1 0xF DUP2 SWAP1 SIGNEXTEND DUP3 DUP10 ADD MSTORE POP POP PUSH2 0x100 DUP1 DUP4 ADD MLOAD PUSH2 0x194B DUP3 DUP10 ADD DUP3 PUSH1 0xF SIGNEXTEND SWAP1 MSTORE JUMP JUMPDEST POP POP PUSH2 0x120 DUP3 DUP2 ADD MLOAD SWAP1 DUP8 ADD MSTORE PUSH2 0x140 DUP1 DUP4 ADD MLOAD PUSH1 0x1 PUSH1 0x1 PUSH1 0xA0 SHL SUB AND SWAP1 DUP8 ADD MSTORE PUSH2 0x160 DUP1 DUP4 ADD MLOAD SWAP1 DUP8 ADD MSTORE PUSH2 0x180 DUP1 DUP4 ADD MLOAD PUSH2 0xFFFF AND SWAP1 DUP8 ADD MSTORE PUSH2 0x1A0 DUP1 DUP4 ADD MLOAD DUP2 DUP9 ADD DUP4 SWAP1 MSTORE PUSH2 0x199F DUP4 DUP10 ADD DUP3 PUSH2 0x1801 JUMP JUMPDEST SWAP3 POP POP POP PUSH2 0x1C0 DUP1 DUP4 ADD MLOAD SWAP3 POP PUSH2 0x19C0 DUP2 DUP9 ADD DUP5 PUSH1 0x1 PUSH1 0x1 PUSH1 0xA0 SHL SUB AND SWAP1 MSTORE JUMP JUMPDEST POP SWAP7 DUP5 ADD SWAP7 SWAP5 POP POP SWAP1 DUP3 ADD SWAP1 PUSH1 0x1 ADD PUSH2 0x18AB JUMP JUMPDEST POP POP DUP8 DUP3 SUB SWAP1 DUP9 ADD MSTORE PUSH2 0x19E7 DUP2 DUP10 PUSH2 0x182D JUMP JUMPDEST SWAP10 SWAP9 POP POP POP POP POP POP POP POP POP JUMP JUMPDEST PUSH1 0x0 PUSH1 0x3 RETURNDATASIZE GT ISZERO PUSH2 0x1A0D JUMPI PUSH1 0x4 PUSH1 0x0 DUP1 RETURNDATACOPY POP PUSH1 0x0 MLOAD PUSH1 0xE0 SHR JUMPDEST SWAP1 JUMP JUMPDEST PUSH1 0x0 PUSH1 0x44 RETURNDATASIZE LT ISZERO PUSH2 0x1A1E JUMPI SWAP1 JUMP JUMPDEST PUSH1 0x40 MLOAD PUSH1 0x3 NOT RETURNDATASIZE DUP2 ADD PUSH1 0x4 DUP4 RETURNDATACOPY DUP2 MLOAD RETURNDATASIZE PUSH8 0xFFFFFFFFFFFFFFFF DUP2 PUSH1 0x24 DUP5 ADD GT DUP2 DUP5 GT OR ISZERO PUSH2 0x1A4E JUMPI POP POP POP POP POP SWAP1 JUMP JUMPDEST DUP3 DUP6 ADD SWAP2 POP DUP2 MLOAD DUP2 DUP2 GT ISZERO PUSH2 0x1A66 JUMPI POP POP POP POP POP POP SWAP1 JUMP JUMPDEST DUP5 RETURNDATASIZE DUP8 ADD ADD PUSH1 0x20 DUP3 DUP6 ADD ADD GT ISZERO PUSH2 0x1A80 JUMPI POP POP POP POP POP POP SWAP1 JUMP JUMPDEST PUSH2 0x1A8F PUSH1 0x20 DUP3 DUP7 ADD ADD DUP8 PUSH2 0x156E JUMP JUMPDEST POP SWAP1 SWAP6 SWAP5 POP POP POP POP POP JUMP JUMPDEST PUSH1 0x20 DUP2 MSTORE PUSH1 0x0 PUSH2 0x126C PUSH1 0x20 DUP4 ADD DUP5 PUSH2 0x1801 JUMP JUMPDEST DUP1 MLOAD PUSH2 0x13F0 DUP2 PUSH2 0x153C JUMP JUMPDEST PUSH1 0x0 PUSH1 0x20 DUP3 DUP5 SUB SLT ISZERO PUSH2 0x1ACA JUMPI PUSH1 0x0 DUP1 REVERT JUMPDEST DUP2 MLOAD PUSH2 0x126C DUP2 PUSH2 0x153C JUMP JUMPDEST DUP1 MLOAD PUSH2 0x13F0 DUP2 PUSH2 0x1510 JUMP JUMPDEST DUP1 MLOAD PUSH1 0x3 DUP2 SWAP1 SIGNEXTEND DUP2 EQ PUSH2 0x13F0 JUMPI PUSH1 0x0 DUP1 REVERT JUMPDEST DUP1 MLOAD PUSH16 0xFFFFFFFFFFFFFFFFFFFFFFFFFFFFFFFF DUP2 AND DUP2 EQ PUSH2 0x13F0 JUMPI PUSH1 0x0 DUP1 REVERT JUMPDEST PUSH1 0x0 PUSH2 0x260 DUP3 DUP5 SUB SLT ISZERO PUSH2 0x1B25 JUMPI PUSH1 0x0 DUP1 REVERT JUMPDEST PUSH2 0x1B2D PUSH2 0x15A9 JUMP JUMPDEST PUSH2 0x1B36 DUP4 PUSH2 0x178C JUMP JUMPDEST DUP2 MSTORE PUSH2 0x1B44 PUSH1 0x20 DUP5 ADD PUSH2 0x1AD5 JUMP JUMPDEST PUSH1 0x20 DUP3 ADD MSTORE PUSH2 0x1B55 PUSH1 0x40 DUP5 ADD PUSH2 0x1AD5 JUMP JUMPDEST PUSH1 0x40 DUP3 ADD MSTORE PUSH2 0x1B66 PUSH1 0x60 DUP5 ADD PUSH2 0x1AE0 JUMP JUMPDEST PUSH1 0x60 DUP3 ADD MSTORE PUSH2 0x1B77 PUSH1 0x80 DUP5 ADD PUSH2 0x1AD5 JUMP JUMPDEST PUSH1 0x80 DUP3 ADD MSTORE PUSH2 0x1B88 PUSH1 0xA0 DUP5 ADD PUSH2 0x160B JUMP JUMPDEST PUSH1 0xA0 DUP3 ADD MSTORE PUSH2 0x1B99 PUSH1 0xC0 DUP5 ADD PUSH2 0x1AAD JUMP JUMPDEST PUSH1 0xC0 DUP3 ADD MSTORE PUSH2 0x1BAA PUSH1 0xE0 DUP5 ADD PUSH2 0x15F3 JUMP JUMPDEST PUSH1 0xE0 DUP3 ADD MSTORE PUSH2 0x100 PUSH2 0x1BBD DUP2 DUP6 ADD PUSH2 0x15E1 JUMP JUMPDEST SWAP1 DUP3 ADD MSTORE PUSH2 0x120 PUSH2 0x1BCF DUP5 DUP3 ADD PUSH2 0x1AAD JUMP JUMPDEST SWAP1 DUP3 ADD MSTORE PUSH2 0x140 PUSH2 0x1BE1 DUP5 DUP3 ADD PUSH2 0x15E1 JUMP JUMPDEST SWAP1 DUP3 ADD MSTORE PUSH2 0x160 PUSH2 0x1BF3 DUP5 DUP3 ADD PUSH2 0x15E1 JUMP JUMPDEST SWAP1 DUP3 ADD MSTORE PUSH2 0x180 PUSH2 0x1C05 DUP5 DUP3 ADD PUSH2 0x15E1 JUMP JUMPDEST SWAP1 DUP3 ADD MSTORE PUSH2 0x1A0 PUSH2 0x1C17 DUP5 DUP3 ADD PUSH2 0x15E1 JUMP JUMPDEST SWAP1 DUP3 ADD MSTORE PUSH2 0x1C0 PUSH2 0x1C29 DUP5 DUP3 ADD PUSH2 0x15E1 JUMP JUMPDEST SWAP1 DUP3 ADD MSTORE PUSH2 0x1E0 PUSH2 0x1C3B DUP5 DUP3 ADD PUSH2 0x1AF2 JUMP JUMPDEST SWAP1 DUP3 ADD MSTORE PUSH2 0x200 PUSH2 0x1C4D DUP5 DUP3 ADD PUSH2 0x1AF2 JUMP JUMPDEST SWAP1 DUP3 ADD MSTORE PUSH2 0x220 PUSH2 0x1C5F DUP5 DUP3 ADD PUSH2 0x1AF2 JUMP JUMPDEST SWAP1 DUP3 ADD MSTORE PUSH2 0x240 PUSH2 0x1C71 DUP5 DUP3 ADD PUSH2 0x15E1 JUMP JUMPDEST SWAP1 DUP3 ADD MSTORE SWAP4 SWAP3 POP POP POP JUMP JUMPDEST DUP1 DUP3 MUL PUSH1 0x0 DUP3 SLT PUSH1 0x1 PUSH1 0xFF SHL DUP5 EQ AND ISZERO PUSH2 0x1C98 JUMPI PUSH2 0x1C98 PUSH2 0x173B JUMP JUMPDEST DUP2 DUP2 SDIV DUP4 EQ DUP3 ISZERO OR PUSH2 0x3E5 JUMPI PUSH2 0x3E5 PUSH2 0x173B JUMP JUMPDEST PUSH1 0x0 DUP3 PUSH2 0x1CBB JUMPI PUSH2 0x1CBB PUSH2 0x1725 JUMP JUMPDEST PUSH1 0x1 PUSH1 0xFF SHL DUP3 EQ PUSH1 0x0 NOT DUP5 EQ AND ISZERO PUSH2 0x1CD5 JUMPI PUSH2 0x1CD5 PUSH2 0x173B JUMP JUMPDEST POP SDIV SWAP1 JUMP JUMPDEST PUSH1 0x0 DUP3 MLOAD PUSH2 0x1CEC DUP2 DUP5 PUSH1 0x20 DUP8 ADD PUSH2 0x17DD JUMP JUMPDEST SWAP2 SWAP1 SWAP2 ADD SWAP3 SWAP2 POP POP JUMP INVALID LOG2 PUSH5 0x6970667358 0x22 SLT KECCAK256 EXP 0xCB 0x5D JUMPI PUSH28 0xC15303D485C9ED365E0790D6FDDFB4F4926986705A6FBD2AE6E7AA64 PUSH20 0x6F6C634300081300330000000000000000000000 "},"gasEstimates":{"creation":{"codeDepositCost":"1493600","executionCost":"infinite","totalCost":"infinite"},"external":{"addPerpetual(uint24)":"infinite","approveAmountForPerpetualMgnTkn(uint256,uint24)":"infinite","d8xExecutionCallback(bytes32,bool)":"1724","getMarginAccount(uint24)":"infinite","getMaxTradeAmount(uint24,bool)":"infinite","mgnTknAddrOfPool(uint8)":"2595","orderBookOfPerpetual(uint24)":"2559","owner()":"2387","perpetualProxy()":"infinite","postOrder(uint24,int256,uint16,uint32)":"infinite","renounceOwnership()":"28159","transferMarginCollateralTo(uint24)":"infinite","transferOwnership(address)":"infinite"},"internal":{"_fromDec18(int256)":"infinite","_fromInt(int256)":"infinite","toDec18(int128)":"infinite"}},"methodIdentifiers":{"addPerpetual(uint24)":"b1bd155e","approveAmountForPerpetualMgnTkn(uint256,uint24)":"5db35a04","d8xExecutionCallback(bytes32,bool)":"22ad65db","getMarginAccount(uint24)":"9fbb0a3b","getMaxTradeAmount(uint24,bool)":"0df3ad4c","mgnTknAddrOfPool(uint8)":"ba0e9399","orderBookOfPerpetual(uint24)":"0330d0c0","owner()":"8da5cb5b","perpetualProxy()":"3e99a53b","postOrder(uint24,int256,uint16,uint32)":"62bcc258","renounceOwnership()":"715018a6","transferMarginCollateralTo(uint24)":"230f2384","transferOwnership(address)":"f2fde38b"}},"storageLayout":{"storage":[{"astId":552,"contract":"contracts/OnChainTrader.sol:OnChainTrader","label":"_owner","offset":0,"slot":"0","type":"t_address"},{"astId":1596,"contract":"contracts/OnChainTrader.sol:OnChainTrader","label":"orderBookOfPerpetual","offset":0,"slot":"1","type":"t_mapping(t_uint24,t_address)"},{"astId":1600,"contract":"contracts/OnChainTrader.sol:OnChainTrader","label":"mgnTknAddrOfPool","offset":0,"slot":"2","type":"t_mapping(t_uint8,t_address)"}],"types":{"t_address":{"encoding":"inplace","label":"address","numberOfBytes":"20"},"t_mapping(t_uint24,t_address)":{"encoding":"mapping","key":"t_uint24","label":"mapping(uint24 => address)","numberOfBytes":"32","value":"t_address"},"t_mapping(t_uint8,t_address)":{"encoding":"mapping","key":"t_uint8","label":"mapping(uint8 => address)","numberOfBytes":"32","value":"t_address"},"t_uint24":{"encoding":"inplace","label":"uint24","numberOfBytes":"3"},"t_uint8":{"encoding":"inplace","label":"uint8","numberOfBytes":"1"}}},"userdoc":{"kind":"user","methods":{"addPerpetual(uint24)":{"notice":"Anyone add a perpetual. Needs to be set once per perpetual. The function sets the order book address for an existing perpetual-id and ensures the margin token address is stored. "},"approveAmountForPerpetualMgnTkn(uint256,uint24)":{"notice":"Approve the margin-token to be spent by perpetuals contract. Required to trade."},"d8xExecutionCallback(bytes32,bool)":{"notice":"Callback function that will be called once the order is executed or cancelled"},"getMarginAccount(uint24)":{"notice":"Return margin account information in decimal 18 format"},"getMaxTradeAmount(uint24,bool)":{"notice":"Get maximal trade amount for the contract accounting for its current position"},"postOrder(uint24,int256,uint16,uint32)":{"notice":"Post an order to the order book. Order will be executed by external \"executors\". * Available order flags:  uint32 internal constant MASK_CLOSE_ONLY = 0x80000000;  uint32 internal constant MASK_MARKET_ORDER = 0x40000000;  uint32 internal constant MASK_STOP_ORDER = 0x20000000;  uint32 internal constant MASK_FILL_OR_KILL = 0x10000000;  uint32 internal constant MASK_KEEP_POS_LEVERAGE = 0x08000000;  uint32 internal constant MASK_LIMIT_ORDER = 0x04000000;"}},"version":1}}}}