{
  "_format": "hh-sol-artifact-1",
  "contractName": "OnChainTrader",
  "sourceName": "contracts/OnChainTrader.sol",
  "abi": [
    {
      "inputs": [
        {
          "internalType": "address",
          "name": "_perpetualProxy",
          "type": "address"
        }
      ],
      "stateMutability": "nonpayable",
      "type": "constructor"
    },
    {
      "anonymous": false,
      "inputs": [
        {
          "indexed": false,
          "internalType": "bytes32",
          "name": "orderDigest",
          "type": "bytes32"
        },
        {
          "indexed": false,
          "internalType": "bool",
          "name": "isExecuted",
          "type": "bool"
        }
      ],
      "name": "CallbackReceived",
      "type": "event"
    },
    {
      "anonymous": false,
      "inputs": [
        {
          "indexed": false,
          "internalType": "uint24",
          "name": "perpetualId",
          "type": "uint24"
        },
        {
          "indexed": false,
          "internalType": "address",
          "name": "to",
          "type": "address"
        },
        {
          "indexed": false,
          "internalType": "uint256",
          "name": "amountDecN",
          "type": "uint256"
        }
      ],
      "name": "MarginTokenSent",
      "type": "event"
    },
    {
      "anonymous": false,
      "inputs": [
        {
          "indexed": true,
          "internalType": "address",
          "name": "previousOwner",
          "type": "address"
        },
        {
          "indexed": true,
          "internalType": "address",
          "name": "newOwner",
          "type": "address"
        }
      ],
      "name": "OwnershipTransferred",
      "type": "event"
    },
    {
      "anonymous": false,
      "inputs": [
        {
          "indexed": false,
          "internalType": "uint24",
          "name": "perpetualId",
          "type": "uint24"
        },
        {
          "indexed": false,
          "internalType": "address",
          "name": "lobAddr",
          "type": "address"
        },
        {
          "indexed": false,
          "internalType": "address",
          "name": "mgnTknAddrOfPool",
          "type": "address"
        }
      ],
      "name": "PerpetualAdded",
      "type": "event"
    },
    {
      "anonymous": false,
      "inputs": [
        {
          "indexed": false,
          "internalType": "string",
          "name": "reason",
          "type": "string"
        }
      ],
      "name": "PerpetualOrderSubmitFailed",
      "type": "event"
    },
    {
      "anonymous": false,
      "inputs": [
        {
          "indexed": false,
          "internalType": "int256",
          "name": "amountDec18",
          "type": "int256"
        },
        {
          "indexed": false,
          "internalType": "uint16",
          "name": "leverageTDR",
          "type": "uint16"
        }
      ],
      "name": "PerpetualOrderSubmitSuccess",
      "type": "event"
    },
    {
      "inputs": [
        {
          "internalType": "uint24",
          "name": "_iPerpetualId",
          "type": "uint24"
        }
      ],
      "name": "addPerpetual",
      "outputs": [],
      "stateMutability": "nonpayable",
      "type": "function"
    },
    {
      "inputs": [
        {
          "internalType": "uint256",
          "name": "_amount",
          "type": "uint256"
        },
        {
          "internalType": "uint24",
          "name": "_iPerpetualId",
          "type": "uint24"
        }
      ],
      "name": "approveAmountForPerpetualMgnTkn",
      "outputs": [],
      "stateMutability": "nonpayable",
      "type": "function"
    },
    {
      "inputs": [
        {
          "internalType": "uint256",
          "name": "_amount",
          "type": "uint256"
        },
        {
          "internalType": "uint24",
          "name": "_iPerpetualId",
          "type": "uint24"
        },
        {
          "internalType": "address",
          "name": "_spendToken",
          "type": "address"
        }
      ],
      "name": "approveCompositeToken",
      "outputs": [],
      "stateMutability": "nonpayable",
      "type": "function"
    },
    {
      "inputs": [
        {
          "internalType": "bytes32",
          "name": "orderDigest",
          "type": "bytes32"
        },
        {
          "internalType": "bool",
          "name": "isExecuted",
          "type": "bool"
        }
      ],
      "name": "d8xExecutionCallback",
      "outputs": [],
      "stateMutability": "nonpayable",
      "type": "function"
    },
    {
      "inputs": [
        {
          "internalType": "uint24",
          "name": "_iPerpetualId",
          "type": "uint24"
        }
      ],
      "name": "getMarginAccount",
      "outputs": [
        {
          "components": [
            {
              "internalType": "int256",
              "name": "lockedInValueQCD18",
              "type": "int256"
            },
            {
              "internalType": "int256",
              "name": "cashCCD18",
              "type": "int256"
            },
            {
              "internalType": "int256",
              "name": "positionSizeBCD18",
              "type": "int256"
            }
          ],
          "internalType": "struct D18MarginAccount",
          "name": "",
          "type": "tuple"
        }
      ],
      "stateMutability": "view",
      "type": "function"
    },
    {
      "inputs": [
        {
          "internalType": "uint24",
          "name": "_iPerpetualId",
          "type": "uint24"
        },
        {
          "internalType": "bool",
          "name": "isBuy",
          "type": "bool"
        }
      ],
      "name": "getMaxTradeAmount",
      "outputs": [
        {
          "internalType": "int256",
          "name": "",
          "type": "int256"
        }
      ],
      "stateMutability": "view",
      "type": "function"
    },
    {
      "inputs": [
        {
          "internalType": "uint8",
          "name": "",
          "type": "uint8"
        }
      ],
      "name": "mgnTknAddrOfPool",
      "outputs": [
        {
          "internalType": "address",
          "name": "",
          "type": "address"
        }
      ],
      "stateMutability": "view",
      "type": "function"
    },
    {
      "inputs": [
        {
          "internalType": "uint24",
          "name": "",
          "type": "uint24"
        }
      ],
      "name": "orderBookOfPerpetual",
      "outputs": [
        {
          "internalType": "address",
          "name": "",
          "type": "address"
        }
      ],
      "stateMutability": "view",
      "type": "function"
    },
    {
      "inputs": [],
      "name": "owner",
      "outputs": [
        {
          "internalType": "address",
          "name": "",
          "type": "address"
        }
      ],
      "stateMutability": "view",
      "type": "function"
    },
    {
      "inputs": [],
      "name": "perpetualProxy",
      "outputs": [
        {
          "internalType": "address",
          "name": "",
          "type": "address"
        }
      ],
      "stateMutability": "view",
      "type": "function"
    },
    {
      "inputs": [
        {
          "internalType": "uint24",
          "name": "_iPerpetualId",
          "type": "uint24"
        },
        {
          "internalType": "int256",
          "name": "_amountDec18",
          "type": "int256"
        },
        {
          "internalType": "uint16",
          "name": "_leverageTDR",
          "type": "uint16"
        },
        {
          "internalType": "uint32",
          "name": "_flags",
          "type": "uint32"
        }
      ],
      "name": "postOrder",
      "outputs": [
        {
          "internalType": "bool",
          "name": "",
          "type": "bool"
        }
      ],
      "stateMutability": "nonpayable",
      "type": "function"
    },
    {
      "inputs": [],
      "name": "renounceOwnership",
      "outputs": [],
      "stateMutability": "nonpayable",
      "type": "function"
    },
    {
      "inputs": [
        {
          "internalType": "uint24",
          "name": "_iPerpetualId",
          "type": "uint24"
        }
      ],
      "name": "transferMarginCollateralTo",
      "outputs": [],
      "stateMutability": "nonpayable",
      "type": "function"
    },
    {
      "inputs": [
        {
          "internalType": "address",
          "name": "newOwner",
          "type": "address"
        }
      ],
      "name": "transferOwnership",
      "outputs": [],
      "stateMutability": "nonpayable",
      "type": "function"
    },
    {
      "inputs": [
        {
          "internalType": "address",
          "name": "_tokenAddr",
          "type": "address"
        }
      ],
      "name": "transferTokensTo",
      "outputs": [],
      "stateMutability": "nonpayable",
      "type": "function"
    }
  ],
  "bytecode": "0x60a06040523480156200001157600080fd5b5060405162002152380380620021528339810160408190526200003491620000a1565b6200003f3362000051565b6001600160a01b0316608052620000d3565b600080546001600160a01b038381166001600160a01b0319831681178455604051919092169283917f8be0079c531659141344cd1fd0a4f28419497f9722a3daafe3b4186f6b6457e09190a35050565b600060208284031215620000b457600080fd5b81516001600160a01b0381168114620000cc57600080fd5b9392505050565b608051612039620001196000396000818161018e015281816102d6015281816103810152818161061301528181610e5201528181610f42015261103001526120396000f3fe608060405234801561001057600080fd5b50600436106100f55760003560e01c80636735740311610097578063b1bd155e11610066578063b1bd155e14610247578063b6edd7431461025a578063ba0e93991461026d578063f2fde38b1461029657600080fd5b806367357403146101e6578063715018a6146101f95780638da5cb5b146102015780639fbb0a3b1461021257600080fd5b8063230f2384116100d3578063230f2384146101765780633e99a53b146101895780635db35a04146101b057806362bcc258146101c357600080fd5b80630330d0c0146100fa5780630df3ad4c1461014057806322ad65db14610161575b600080fd5b61012361010836600461172b565b6001602052600090815260409020546001600160a01b031681565b6040516001600160a01b0390911681526020015b60405180910390f35b61015361014e366004611754565b6102a9565b604051908152602001610137565b61017461016f36600461178b565b610402565b005b61017461018436600461172b565b610440565b6101237f000000000000000000000000000000000000000000000000000000000000000081565b6101746101be3660046117b0565b610592565b6101d66101d13660046117ec565b610696565b6040519015158152602001610137565b6101746101f436600461185b565b610b54565b610174610da5565b6000546001600160a01b0316610123565b61022561022036600461172b565b610e0b565b6040805182518152602080840151908201529181015190820152606001610137565b61017461025536600461172b565b610f25565b61017461026836600461189b565b611148565b61012361027b3660046118c7565b6002602052600090815260409020546001600160a01b031681565b6101746102a436600461189b565b611263565b604051633d53a26b60e11b815262ffffff8316600482015230602482015260009081906001600160a01b037f00000000000000000000000000000000000000000000000000000000000000001690637aa744d690604401608060405180830381865afa15801561031d573d6000803e3d6000fd5b505050506040513d601f19601f820116820180604052508101906103419190611969565b6040808201519051633ef0eb0f60e21b815262ffffff87166004820152600f9190910b602482015284151560448201529091506000906001600160a01b037f0000000000000000000000000000000000000000000000000000000000000000169063fbc3ac3c90606401602060405180830381865afa1580156103c8573d6000803e3d6000fd5b505050506040513d601f19601f820116820180604052508101906103ec91906119f4565b90506103f78161132e565b925050505b92915050565b6040805183815282151560208201527fdd31864b23bd4f09a8914c3ee2c028bd0cbf0186a8eec21258681488239b92dd910160405180910390a15050565b6000546001600160a01b0316331461049f5760405162461bcd60e51b815260206004820181905260248201527f4f776e61626c653a2063616c6c6572206973206e6f7420746865206f776e657260448201526064015b60405180910390fd5b60006104ae620186a083611a3b565b60ff81166000908152600260205260408082205490516370a0823160e01b81523060048201529293506001600160a01b03169182919082906370a0823190602401602060405180830381865afa15801561050c573d6000803e3d6000fd5b505050506040513d601f19601f820116820180604052508101906105309190611a5d565b90506105466001600160a01b038316338361135a565b6040805162ffffff871681523360208201529081018290527fd7089a64efa4caccaea095308c4da0682a70797771cee9b36ab4a639054035929060600160405180910390a15050505050565b60006105a1620186a083611a3b565b60ff81166000908152600260205260409020549091506001600160a01b0316806105fc5760405162461bcd60e51b815260206004820152600c60248201526b736574206f6220616464727360a01b6044820152606401610496565b60405163095ea7b360e01b81526001600160a01b037f0000000000000000000000000000000000000000000000000000000000000000811660048301526024820186905282169063095ea7b3906044016020604051808303816000875af115801561066b573d6000803e3d6000fd5b505050506040513d601f19601f8201168201806040525081019061068f9190611a81565b5050505050565b600080546001600160a01b031633146106f15760405162461bcd60e51b815260206004820181905260248201527f4f776e61626c653a2063616c6c6572206973206e6f7420746865206f776e65726044820152606401610496565b62ffffff85166000908152600160205260409020546001600160a01b03168061075c5760405162461bcd60e51b815260206004820152601260248201527f6f7264657220626f6f6b20756e6b6e6f776e00000000000000000000000000006044820152606401610496565b6000610767866113c6565b90508363ffffffff1660000361077f57634000000093505b604080516001808252818301909252600091816020015b604080516101e0810182526000808252602080830182905292820181905260608083018290526080830182905260a0830182905260c0830182905260e08301829052610100830182905261012083018290526101408301829052610160830182905261018083018290526101a08301526101c08201528252600019909201910181610796579050509050848160008151811061083457610834611a9e565b60200260200101516080019063ffffffff16908163ffffffff1681525050878160008151811061086657610866611a9e565b60200260200101516000019062ffffff16908162ffffff1681525050308160008151811061089657610896611a9e565b602002602001015161014001906001600160a01b031690816001600160a01b03168152505081816000815181106108cf576108cf611a9e565b60200260200101516101000190600f0b9081600f0b81525050600082600f0b136108fa57600061090c565b6f7fffffffffffffffffffffffffffffff5b8160008151811061091f5761091f611a9e565b602002602001015160200190600f0b9081600f0b81525050858160008151811061094b5761094b611a9e565b602090810291909101015161ffff90911660409091015261096f426203f480611ab4565b8160008151811061098257610982611a9e565b602002602001015160a0019063ffffffff16908163ffffffff168152505042816000815181106109b4576109b4611a9e565b60200260200101516060019063ffffffff16908163ffffffff168152505030816000815181106109e6576109e6611a9e565b60209081029190910101516001600160a01b03919091166101c090910152604080516001808252818301909252600091816020015b6060815260200190600190039081610a1b575050604051632a69792760e21b81529091506001600160a01b0385169063a9a5e49c90610a609085908590600401611b6c565b600060405180830381600087803b158015610a7a57600080fd5b505af1925050508015610a8b575060015b610b0757610a97611cde565b806308c379a003610afb5750610aab611cfa565b80610ab65750610afd565b7f2858238d037e52471d3ad4944d280cdb1fd3b479a3fdf698bb04e99572e6efa881604051610ae59190611d84565b60405180910390a1600095505050505050610b4c565b505b3d6000803e3d6000fd5b6040805189815261ffff891660208201527f742895f70ed9b3e00487db3827a00b9c91de8360cd96129050b8a82c99de4862910160405180910390a160019450505050505b949350505050565b6000610b63620186a084611a3b565b60ff81166000908152600260205260409020549091506001600160a01b031680610bbe5760405162461bcd60e51b815260206004820152600c60248201526b6e6f20636f6d706f7369746560a01b6044820152606401610496565b6001600160a01b038316610bff5760405162461bcd60e51b81526020600482015260086024820152673737903a37b5b2b760c11b6044820152606401610496565b6040516303c89c4960e41b81523060048201526000906001600160a01b03831690633c89c49090602401602060405180830381865afa158015610c46573d6000803e3d6000fd5b505050506040513d601f19601f82011682018060405250810190610c6a9190611da2565b90506001600160a01b038116610cda576040516397c414df60e01b81526001600160a01b0385811660048301528316906397c414df90602401600060405180830381600087803b158015610cbd57600080fd5b505af1158015610cd1573d6000803e3d6000fd5b50505050610d29565b836001600160a01b0316816001600160a01b031614610d295760405162461bcd60e51b815260206004820152600b60248201526a3bb937b733903a37b5b2b760a91b6044820152606401610496565b60405163095ea7b360e01b81526001600160a01b0383811660048301526024820188905285169063095ea7b3906044016020604051808303816000875af1158015610d78573d6000803e3d6000fd5b505050506040513d601f19601f82011682018060405250810190610d9c9190611a81565b50505050505050565b6000546001600160a01b03163314610dff5760405162461bcd60e51b815260206004820181905260248201527f4f776e61626c653a2063616c6c6572206973206e6f7420746865206f776e65726044820152606401610496565b610e09600061146e565b565b610e2f60405180606001604052806000815260200160008152602001600081525090565b604051633d53a26b60e11b815262ffffff831660048201523060248201526000907f00000000000000000000000000000000000000000000000000000000000000006001600160a01b031690637aa744d690604401608060405180830381865afa158015610ea1573d6000803e3d6000fd5b505050506040513d601f19601f82011682018060405250810190610ec59190611969565b9050610eeb60405180606001604052806000815260200160008152602001600081525090565b8151610ef69061132e565b81526020820151610f069061132e565b60208201526040820151610f199061132e565b60408201529392505050565b60405163079e02e960e21b815262ffffff821660048201526000907f00000000000000000000000000000000000000000000000000000000000000006001600160a01b031690631e780ba490602401602060405180830381865afa158015610f91573d6000803e3d6000fd5b505050506040513d601f19601f82011682018060405250810190610fb59190611da2565b62ffffff8316600090815260016020526040812080546001600160a01b0319166001600160a01b038416179055909150610ff2620186a084611a3b565b60ff81166000908152600260205260409020549091506001600160a01b03166110d957604051631857be3960e11b815260ff821660048201526000907f00000000000000000000000000000000000000000000000000000000000000006001600160a01b0316906330af7c729060240161026060405180830381865afa158015611080573d6000803e3d6000fd5b505050506040513d601f19601f820116820180604052508101906110a49190611e1f565b60c0015160ff8316600090815260026020526040902080546001600160a01b0319166001600160a01b03909216919091179055505b60ff811660009081526002602090815260409182902054825162ffffff871681526001600160a01b03808716938201939093529116918101919091527f5222a91cec499c7c85c5fcb8b8ddfb81880ec40273d8cda372740d8a97fa6ec7906060015b60405180910390a1505050565b6000546001600160a01b031633146111a25760405162461bcd60e51b815260206004820181905260248201527f4f776e61626c653a2063616c6c6572206973206e6f7420746865206f776e65726044820152606401610496565b6040516370a0823160e01b815230600482015281906000906001600160a01b038316906370a0823190602401602060405180830381865afa1580156111eb573d6000803e3d6000fd5b505050506040513d601f19601f8201168201806040525081019061120f9190611a5d565b90506112256001600160a01b038316338361135a565b60408051600081523360208201529081018290527fd7089a64efa4caccaea095308c4da0682a70797771cee9b36ab4a639054035929060600161113b565b6000546001600160a01b031633146112bd5760405162461bcd60e51b815260206004820181905260248201527f4f776e61626c653a2063616c6c6572206973206e6f7420746865206f776e65726044820152606401610496565b6001600160a01b0381166113225760405162461bcd60e51b815260206004820152602660248201527f4f776e61626c653a206e6577206f776e657220697320746865207a65726f206160448201526564647265737360d01b6064820152608401610496565b61132b8161146e565b50565b600068010000000000000000611350670de0b6b3a7640000600f85900b611f89565b6103fc9190611fb9565b604080516001600160a01b038416602482015260448082018490528251808303909101815260649091019091526020810180517bffffffffffffffffffffffffffffffffffffffffffffffffffffffff1663a9059cbb60e01b1790526113c19084906114be565b505050565b600080670de0b6b3a76400006113e56801000000000000000085611f89565b6113ef9190611fb9565b90506f7fffffffffffffffffffffffffffffff19831280159061142257506f7fffffffffffffffffffffffffffffff8313155b6103fc5760405162461bcd60e51b815260206004820152601360248201527f726573756c74206f7574206f662072616e6765000000000000000000000000006044820152606401610496565b600080546001600160a01b038381166001600160a01b0319831681178455604051919092169283917f8be0079c531659141344cd1fd0a4f28419497f9722a3daafe3b4186f6b6457e09190a35050565b6000611513826040518060400160405280602081526020017f5361666545524332303a206c6f772d6c6576656c2063616c6c206661696c6564815250856001600160a01b03166115909092919063ffffffff16565b8051909150156113c157808060200190518101906115319190611a81565b6113c15760405162461bcd60e51b815260206004820152602a60248201527f5361666545524332303a204552433230206f7065726174696f6e20646964206e6044820152691bdd081cdd58d8d9595960b21b6064820152608401610496565b606061159f84846000856115a9565b90505b9392505050565b60608247101561160a5760405162461bcd60e51b815260206004820152602660248201527f416464726573733a20696e73756666696369656e742062616c616e636520666f6044820152651c8818d85b1b60d21b6064820152608401610496565b6001600160a01b0385163b6116615760405162461bcd60e51b815260206004820152601d60248201527f416464726573733a2063616c6c20746f206e6f6e2d636f6e74726163740000006044820152606401610496565b600080866001600160a01b0316858760405161167d9190611fe7565b60006040518083038185875af1925050503d80600081146116ba576040519150601f19603f3d011682016040523d82523d6000602084013e6116bf565b606091505b50915091506116cf8282866116da565b979650505050505050565b606083156116e95750816115a2565b8251156116f95782518084602001fd5b8160405162461bcd60e51b81526004016104969190611d84565b803562ffffff8116811461172657600080fd5b919050565b60006020828403121561173d57600080fd5b6115a282611713565b801515811461132b57600080fd5b6000806040838503121561176757600080fd5b61177083611713565b9150602083013561178081611746565b809150509250929050565b6000806040838503121561179e57600080fd5b82359150602083013561178081611746565b600080604083850312156117c357600080fd5b823591506117d360208401611713565b90509250929050565b61ffff8116811461132b57600080fd5b6000806000806080858703121561180257600080fd5b61180b85611713565b9350602085013592506040850135611822816117dc565b9150606085013563ffffffff8116811461183b57600080fd5b939692955090935050565b6001600160a01b038116811461132b57600080fd5b60008060006060848603121561187057600080fd5b8335925061188060208501611713565b9150604084013561189081611846565b809150509250925092565b6000602082840312156118ad57600080fd5b81356115a281611846565b60ff8116811461132b57600080fd5b6000602082840312156118d957600080fd5b81356115a2816118b8565b601f8201601f1916810167ffffffffffffffff8111828210171561191857634e487b7160e01b600052604160045260246000fd5b6040525050565b604051610260810167ffffffffffffffff8111828210171561195157634e487b7160e01b600052604160045260246000fd5b60405290565b8051600f81900b811461172657600080fd5b60006080828403121561197b57600080fd5b6040516080810181811067ffffffffffffffff821117156119ac57634e487b7160e01b600052604160045260246000fd5b6040526119b883611957565b81526119c660208401611957565b60208201526119d760408401611957565b60408201526119e860608401611957565b60608201529392505050565b600060208284031215611a0657600080fd5b6115a282611957565b634e487b7160e01b600052601260045260246000fd5b634e487b7160e01b600052601160045260246000fd5b600062ffffff80841680611a5157611a51611a0f565b92169190910492915050565b600060208284031215611a6f57600080fd5b5051919050565b805161172681611746565b600060208284031215611a9357600080fd5b81516115a281611746565b634e487b7160e01b600052603260045260246000fd5b808201808211156103fc576103fc611a25565b60005b83811015611ae2578181015183820152602001611aca565b50506000910152565b60008151808452611b03816020860160208601611ac7565b601f01601f19169290920160200192915050565b600081518084526020808501808196508360051b8101915082860160005b85811015611b5f578284038952611b4d848351611aeb565b98850198935090840190600101611b35565b5091979650505050505050565b60006040808301818452808651808352606092508286019150828160051b8701016020808a0160005b84811015611cbe57898403605f190186528151805162ffffff1685526101e084820151611bc686880182600f0b9052565b508982015161ffff16868b01528882015163ffffffff9081168a88015260808084015182169088015260a0808401519091169087015260c0808301516001600160a01b03169087015260e080830151600f81900b82890152505061010080830151611c3582890182600f0b9052565b50506101208281015190870152610140808301516001600160a01b03169087015261016080830151908701526101808083015161ffff16908701526101a080830151818801839052611c8983890182611aeb565b925050506101c0808301519250611caa818801846001600160a01b03169052565b509684019694505090820190600101611b95565b505087820390880152611cd18189611b17565b9998505050505050505050565b600060033d1115611cf75760046000803e5060005160e01c5b90565b600060443d1015611d085790565b6040516003193d81016004833e81513d67ffffffffffffffff8160248401118184111715611d3857505050505090565b8285019150815181811115611d505750505050505090565b843d8701016020828501011115611d6a5750505050505090565b611d79602082860101876118e4565b509095945050505050565b6020815260006115a26020830184611aeb565b805161172681611846565b600060208284031215611db457600080fd5b81516115a281611846565b8051611726816118b8565b8051600381900b811461172657600080fd5b8051611726816117dc565b805167ffffffffffffffff8116811461172657600080fd5b80516fffffffffffffffffffffffffffffffff8116811461172657600080fd5b60006102608284031215611e3257600080fd5b611e3a61191f565b611e4383611a76565b8152611e5160208401611dbf565b6020820152611e6260408401611dbf565b6040820152611e7360608401611dca565b6060820152611e8460808401611dbf565b6080820152611e9560a08401611ddc565b60a0820152611ea660c08401611d97565b60c0820152611eb760e08401611de7565b60e0820152610100611eca818501611957565b90820152610120611edc848201611d97565b90820152610140611eee848201611957565b90820152610160611f00848201611957565b90820152610180611f12848201611957565b908201526101a0611f24848201611957565b908201526101c0611f36848201611957565b908201526101e0611f48848201611dff565b90820152610200611f5a848201611dff565b90820152610220611f6c848201611dff565b90820152610240611f7e848201611957565b908201529392505050565b80820260008212600160ff1b84141615611fa557611fa5611a25565b81810583148215176103fc576103fc611a25565b600082611fc857611fc8611a0f565b600160ff1b821460001984141615611fe257611fe2611a25565b500590565b60008251611ff9818460208701611ac7565b919091019291505056fea2646970667358221220a201f12ee9fd83b288424a954dd4babeb318757d120efc780a63d3eebdcfb5dd64736f6c63430008130033",
  "linkReferences": {},
  "deployedLinkReferences": {}
}