{
  "_format": "hh-sol-artifact-1",
  "contractName": "OnChainTrader",
  "sourceName": "contracts/OnChainTrader.sol",
  "abi": [
    {
      "inputs": [
        {
          "internalType": "address",
          "name": "_perpetualProxy",
          "type": "address"
        }
      ],
      "stateMutability": "nonpayable",
      "type": "constructor"
    },
    {
      "anonymous": false,
      "inputs": [
        {
          "indexed": false,
          "internalType": "uint24",
          "name": "perpetualId",
          "type": "uint24"
        },
        {
          "indexed": false,
          "internalType": "address",
          "name": "to",
          "type": "address"
        },
        {
          "indexed": false,
          "internalType": "uint256",
          "name": "amountDecN",
          "type": "uint256"
        }
      ],
      "name": "MarginTokenSent",
      "type": "event"
    },
    {
      "anonymous": false,
      "inputs": [
        {
          "indexed": true,
          "internalType": "address",
          "name": "previousOwner",
          "type": "address"
        },
        {
          "indexed": true,
          "internalType": "address",
          "name": "newOwner",
          "type": "address"
        }
      ],
      "name": "OwnershipTransferred",
      "type": "event"
    },
    {
      "anonymous": false,
      "inputs": [
        {
          "indexed": false,
          "internalType": "uint24",
          "name": "perpetualId",
          "type": "uint24"
        },
        {
          "indexed": false,
          "internalType": "address",
          "name": "lobAddr",
          "type": "address"
        },
        {
          "indexed": false,
          "internalType": "address",
          "name": "mgnTknAddrOfPool",
          "type": "address"
        }
      ],
      "name": "PerpetualAdded",
      "type": "event"
    },
    {
      "anonymous": false,
      "inputs": [
        {
          "indexed": false,
          "internalType": "string",
          "name": "reason",
          "type": "string"
        }
      ],
      "name": "PerpetualOrderSubmitFailed",
      "type": "event"
    },
    {
      "anonymous": false,
      "inputs": [
        {
          "indexed": false,
          "internalType": "int256",
          "name": "amountDec18",
          "type": "int256"
        },
        {
          "indexed": false,
          "internalType": "uint16",
          "name": "leverageTDR",
          "type": "uint16"
        }
      ],
      "name": "PerpetualOrderSubmitSuccess",
      "type": "event"
    },
    {
      "inputs": [
        {
          "internalType": "uint24",
          "name": "_iPerpetualId",
          "type": "uint24"
        }
      ],
      "name": "addPerpetual",
      "outputs": [],
      "stateMutability": "nonpayable",
      "type": "function"
    },
    {
      "inputs": [
        {
          "internalType": "uint256",
          "name": "_amount",
          "type": "uint256"
        },
        {
          "internalType": "uint24",
          "name": "_iPerpetualId",
          "type": "uint24"
        }
      ],
      "name": "approveAmountForPerpetualMgnTkn",
      "outputs": [],
      "stateMutability": "nonpayable",
      "type": "function"
    },
    {
      "inputs": [
        {
          "internalType": "uint24",
          "name": "_iPerpetualId",
          "type": "uint24"
        }
      ],
      "name": "getMarginAccount",
      "outputs": [
        {
          "components": [
            {
              "internalType": "int256",
              "name": "lockedInValueQCD18",
              "type": "int256"
            },
            {
              "internalType": "int256",
              "name": "cashCCD18",
              "type": "int256"
            },
            {
              "internalType": "int256",
              "name": "positionSizeBCD18",
              "type": "int256"
            },
            {
              "internalType": "bytes16",
              "name": "positionId",
              "type": "bytes16"
            }
          ],
          "internalType": "struct D18MarginAccount",
          "name": "",
          "type": "tuple"
        }
      ],
      "stateMutability": "view",
      "type": "function"
    },
    {
      "inputs": [
        {
          "internalType": "uint24",
          "name": "_iPerpetualId",
          "type": "uint24"
        },
        {
          "internalType": "bool",
          "name": "isBuy",
          "type": "bool"
        }
      ],
      "name": "getMaxTradeAmount",
      "outputs": [
        {
          "internalType": "int256",
          "name": "",
          "type": "int256"
        }
      ],
      "stateMutability": "view",
      "type": "function"
    },
    {
      "inputs": [
        {
          "internalType": "uint8",
          "name": "",
          "type": "uint8"
        }
      ],
      "name": "mgnTknAddrOfPool",
      "outputs": [
        {
          "internalType": "address",
          "name": "",
          "type": "address"
        }
      ],
      "stateMutability": "view",
      "type": "function"
    },
    {
      "inputs": [
        {
          "internalType": "uint24",
          "name": "",
          "type": "uint24"
        }
      ],
      "name": "orderBookOfPerpetual",
      "outputs": [
        {
          "internalType": "address",
          "name": "",
          "type": "address"
        }
      ],
      "stateMutability": "view",
      "type": "function"
    },
    {
      "inputs": [],
      "name": "owner",
      "outputs": [
        {
          "internalType": "address",
          "name": "",
          "type": "address"
        }
      ],
      "stateMutability": "view",
      "type": "function"
    },
    {
      "inputs": [],
      "name": "perpetualProxy",
      "outputs": [
        {
          "internalType": "address",
          "name": "",
          "type": "address"
        }
      ],
      "stateMutability": "view",
      "type": "function"
    },
    {
      "inputs": [
        {
          "internalType": "uint24",
          "name": "_iPerpetualId",
          "type": "uint24"
        },
        {
          "internalType": "int256",
          "name": "_amountDec18",
          "type": "int256"
        },
        {
          "internalType": "uint16",
          "name": "_leverageTDR",
          "type": "uint16"
        },
        {
          "internalType": "uint32",
          "name": "_flags",
          "type": "uint32"
        }
      ],
      "name": "postOrder",
      "outputs": [
        {
          "internalType": "bool",
          "name": "",
          "type": "bool"
        }
      ],
      "stateMutability": "nonpayable",
      "type": "function"
    },
    {
      "inputs": [],
      "name": "renounceOwnership",
      "outputs": [],
      "stateMutability": "nonpayable",
      "type": "function"
    },
    {
      "inputs": [
        {
          "internalType": "uint24",
          "name": "_iPerpetualId",
          "type": "uint24"
        }
      ],
      "name": "transferMarginCollateralTo",
      "outputs": [],
      "stateMutability": "nonpayable",
      "type": "function"
    },
    {
      "inputs": [
        {
          "internalType": "address",
          "name": "newOwner",
          "type": "address"
        }
      ],
      "name": "transferOwnership",
      "outputs": [],
      "stateMutability": "nonpayable",
      "type": "function"
    }
  ],
  "bytecode": "0x60a060405234801561001057600080fd5b5060405162001b4e38038062001b4e8339810160408190526100319161009b565b61003a3361004b565b6001600160a01b03166080526100cb565b600080546001600160a01b038381166001600160a01b0319831681178455604051919092169283917f8be0079c531659141344cd1fd0a4f28419497f9722a3daafe3b4186f6b6457e09190a35050565b6000602082840312156100ad57600080fd5b81516001600160a01b03811681146100c457600080fd5b9392505050565b608051611a3d620001116000396000818161015a015281816102a00152818161034c015281816105a0015281816109ce01528181610af60152610be40152611a3d6000f3fe608060405234801561001057600080fd5b50600436106100d45760003560e01c8063715018a611610081578063b1bd155e1161005b578063b1bd155e14610224578063ba0e939914610237578063f2fde38b1461026057600080fd5b8063715018a6146101b25780638da5cb5b146101ba5780639fbb0a3b146101cb57600080fd5b80633e99a53b116100b25780633e99a53b146101555780635db35a041461017c57806362bcc2581461018f57600080fd5b80630330d0c0146100d95780630df3ad4c1461011f578063230f238414610140575b600080fd5b6101026100e73660046111bf565b6001602052600090815260409020546001600160a01b031681565b6040516001600160a01b0390911681526020015b60405180910390f35b61013261012d3660046111e8565b610273565b604051908152602001610116565b61015361014e3660046111bf565b6103cd565b005b6101027f000000000000000000000000000000000000000000000000000000000000000081565b61015361018a36600461121f565b61051f565b6101a261019d36600461125b565b610623565b6040519015158152602001610116565b610153610907565b6000546001600160a01b0316610102565b6101de6101d93660046111bf565b61096d565b60405161011691908151815260208083015190820152604080830151908201526060918201516fffffffffffffffffffffffffffffffff19169181019190915260800190565b6101536102323660046111bf565b610ad9565b6101026102453660046112c4565b6002602052600090815260409020546001600160a01b031681565b61015361026e3660046112f6565b610cf7565b604051633d53a26b60e11b815262ffffff8316600482015230602482015260009081906001600160a01b037f00000000000000000000000000000000000000000000000000000000000000001690637aa744d69060440161010060405180830381865afa1580156102e8573d6000803e3d6000fd5b505050506040513d601f19601f8201168201806040525081019061030c91906113dc565b6040808201519051633ef0eb0f60e21b815262ffffff87166004820152600f9190910b602482015284151560448201529091506000906001600160a01b037f0000000000000000000000000000000000000000000000000000000000000000169063fbc3ac3c90606401602060405180830381865afa158015610393573d6000803e3d6000fd5b505050506040513d601f19601f820116820180604052508101906103b791906114af565b90506103c281610dc2565b925050505b92915050565b6000546001600160a01b0316331461042c5760405162461bcd60e51b815260206004820181905260248201527f4f776e61626c653a2063616c6c6572206973206e6f7420746865206f776e657260448201526064015b60405180910390fd5b600061043b620186a0836114f6565b60ff81166000908152600260205260408082205490516370a0823160e01b81523060048201529293506001600160a01b03169182919082906370a0823190602401602060405180830381865afa158015610499573d6000803e3d6000fd5b505050506040513d601f19601f820116820180604052508101906104bd9190611518565b90506104d36001600160a01b0383163383610dee565b6040805162ffffff871681523360208201529081018290527fd7089a64efa4caccaea095308c4da0682a70797771cee9b36ab4a639054035929060600160405180910390a15050505050565b600061052e620186a0836114f6565b60ff81166000908152600260205260409020549091506001600160a01b0316806105895760405162461bcd60e51b815260206004820152600c60248201526b736574206f6220616464727360a01b6044820152606401610423565b60405163095ea7b360e01b81526001600160a01b037f0000000000000000000000000000000000000000000000000000000000000000811660048301526024820186905282169063095ea7b3906044016020604051808303816000875af11580156105f8573d6000803e3d6000fd5b505050506040513d601f19601f8201168201806040525081019061061c919061153c565b5050505050565b600080546001600160a01b0316331461067e5760405162461bcd60e51b815260206004820181905260248201527f4f776e61626c653a2063616c6c6572206973206e6f7420746865206f776e65726044820152606401610423565b62ffffff85166000908152600160205260409020546001600160a01b0316806106e95760405162461bcd60e51b815260206004820152601260248201527f6f7264657220626f6f6b20756e6b6e6f776e00000000000000000000000000006044820152606401610423565b60006106f486610e5a565b90508363ffffffff1660000361070c57634000000093505b604080516101c081018252600060208201819052918101829052606080820183905260a0820183905260c0820183905260e082018390526101208201839052610160820183905261018082018390526101a082015263ffffffff8616608082015262ffffff8916815230610140820152600f83900b61010082018190529091126107975760006107a9565b6f7fffffffffffffffffffffffffffffff5b600f0b602082015261ffff861660408201526107c8426203f480611559565b63ffffffff90811660a0830152421660608201526040805160208101825260008152905163489cc5e960e01b81526001600160a01b0385169163489cc5e9916108159185916004016115bc565b600060405180830381600087803b15801561082f57600080fd5b505af1925050508015610840575060015b6108bb5761084c611705565b806308c379a0036108af5750610860611721565b8061086b57506108b1565b7f2858238d037e52471d3ad4944d280cdb1fd3b479a3fdf698bb04e99572e6efa88160405161089a91906117ab565b60405180910390a160009450505050506108ff565b505b3d6000803e3d6000fd5b6040805188815261ffff881660208201527f742895f70ed9b3e00487db3827a00b9c91de8360cd96129050b8a82c99de4862910160405180910390a1600193505050505b949350505050565b6000546001600160a01b031633146109615760405162461bcd60e51b815260206004820181905260248201527f4f776e61626c653a2063616c6c6572206973206e6f7420746865206f776e65726044820152606401610423565b61096b6000610f02565b565b6109ab604051806080016040528060008152602001600081526020016000815260200160006fffffffffffffffffffffffffffffffff191681525090565b604051633d53a26b60e11b815262ffffff831660048201523060248201526000907f00000000000000000000000000000000000000000000000000000000000000006001600160a01b031690637aa744d69060440161010060405180830381865afa158015610a1e573d6000803e3d6000fd5b505050506040513d601f19601f82011682018060405250810190610a4291906113dc565b9050610a82604051806080016040528060008152602001600081526020016000815260200160006fffffffffffffffffffffffffffffffff191681525090565b8151610a8d90610dc2565b81526020820151610a9d90610dc2565b60208201526040820151610ab090610dc2565b604082015260e0909101516fffffffffffffffffffffffffffffffff1916606082015292915050565b60405163079e02e960e21b815262ffffff821660048201526000907f00000000000000000000000000000000000000000000000000000000000000006001600160a01b031690631e780ba490602401602060405180830381865afa158015610b45573d6000803e3d6000fd5b505050506040513d601f19601f82011682018060405250810190610b6991906117c9565b62ffffff8316600090815260016020526040812080546001600160a01b0319166001600160a01b038416179055909150610ba6620186a0846114f6565b60ff81166000908152600260205260409020549091506001600160a01b0316610c8d57604051631857be3960e11b815260ff821660048201526000907f00000000000000000000000000000000000000000000000000000000000000006001600160a01b0316906330af7c729060240161026060405180830381865afa158015610c34573d6000803e3d6000fd5b505050506040513d601f19601f82011682018060405250810190610c589190611823565b60c0015160ff8316600090815260026020526040902080546001600160a01b0319166001600160a01b03909216919091179055505b60ff811660009081526002602090815260409182902054825162ffffff871681526001600160a01b038681169382019390935291168183015290517f5222a91cec499c7c85c5fcb8b8ddfb81880ec40273d8cda372740d8a97fa6ec79181900360600190a1505050565b6000546001600160a01b03163314610d515760405162461bcd60e51b815260206004820181905260248201527f4f776e61626c653a2063616c6c6572206973206e6f7420746865206f776e65726044820152606401610423565b6001600160a01b038116610db65760405162461bcd60e51b815260206004820152602660248201527f4f776e61626c653a206e6577206f776e657220697320746865207a65726f206160448201526564647265737360d01b6064820152608401610423565b610dbf81610f02565b50565b600068010000000000000000610de4670de0b6b3a7640000600f85900b61198d565b6103c791906119bd565b604080516001600160a01b038416602482015260448082018490528251808303909101815260649091019091526020810180517bffffffffffffffffffffffffffffffffffffffffffffffffffffffff1663a9059cbb60e01b179052610e55908490610f52565b505050565b600080670de0b6b3a7640000610e79680100000000000000008561198d565b610e8391906119bd565b90506f7fffffffffffffffffffffffffffffff198312801590610eb657506f7fffffffffffffffffffffffffffffff8313155b6103c75760405162461bcd60e51b815260206004820152601360248201527f726573756c74206f7574206f662072616e6765000000000000000000000000006044820152606401610423565b600080546001600160a01b038381166001600160a01b0319831681178455604051919092169283917f8be0079c531659141344cd1fd0a4f28419497f9722a3daafe3b4186f6b6457e09190a35050565b6000610fa7826040518060400160405280602081526020017f5361666545524332303a206c6f772d6c6576656c2063616c6c206661696c6564815250856001600160a01b03166110249092919063ffffffff16565b805190915015610e555780806020019051810190610fc5919061153c565b610e555760405162461bcd60e51b815260206004820152602a60248201527f5361666545524332303a204552433230206f7065726174696f6e20646964206e6044820152691bdd081cdd58d8d9595960b21b6064820152608401610423565b6060611033848460008561103d565b90505b9392505050565b60608247101561109e5760405162461bcd60e51b815260206004820152602660248201527f416464726573733a20696e73756666696369656e742062616c616e636520666f6044820152651c8818d85b1b60d21b6064820152608401610423565b6001600160a01b0385163b6110f55760405162461bcd60e51b815260206004820152601d60248201527f416464726573733a2063616c6c20746f206e6f6e2d636f6e74726163740000006044820152606401610423565b600080866001600160a01b0316858760405161111191906119eb565b60006040518083038185875af1925050503d806000811461114e576040519150601f19603f3d011682016040523d82523d6000602084013e611153565b606091505b509150915061116382828661116e565b979650505050505050565b6060831561117d575081611036565b82511561118d5782518084602001fd5b8160405162461bcd60e51b815260040161042391906117ab565b803562ffffff811681146111ba57600080fd5b919050565b6000602082840312156111d157600080fd5b611036826111a7565b8015158114610dbf57600080fd5b600080604083850312156111fb57600080fd5b611204836111a7565b91506020830135611214816111da565b809150509250929050565b6000806040838503121561123257600080fd5b82359150611242602084016111a7565b90509250929050565b61ffff81168114610dbf57600080fd5b6000806000806080858703121561127157600080fd5b61127a856111a7565b93506020850135925060408501356112918161124b565b9150606085013563ffffffff811681146112aa57600080fd5b939692955090935050565b60ff81168114610dbf57600080fd5b6000602082840312156112d657600080fd5b8135611036816112b5565b6001600160a01b0381168114610dbf57600080fd5b60006020828403121561130857600080fd5b8135611036816112e1565b601f8201601f1916810167ffffffffffffffff8111828210171561134757634e487b7160e01b600052604160045260246000fd5b6040525050565b604051610260810167ffffffffffffffff8111828210171561138057634e487b7160e01b600052604160045260246000fd5b60405290565b8051600f81900b81146111ba57600080fd5b805167ffffffffffffffff811681146111ba57600080fd5b80516111ba8161124b565b80516fffffffffffffffffffffffffffffffff19811681146111ba57600080fd5b60006101008083850312156113f057600080fd5b6040519081019067ffffffffffffffff8211818310171561142157634e487b7160e01b600052604160045260246000fd5b8160405261142e84611386565b815261143c60208501611386565b602082015261144d60408501611386565b604082015261145e60608501611386565b606082015261146f60808501611398565b608082015261148060a085016113b0565b60a082015261149160c085016113b0565b60c08201526114a260e085016113bb565b60e0820152949350505050565b6000602082840312156114c157600080fd5b61103682611386565b634e487b7160e01b600052601260045260246000fd5b634e487b7160e01b600052601160045260246000fd5b600062ffffff8084168061150c5761150c6114ca565b92169190910492915050565b60006020828403121561152a57600080fd5b5051919050565b80516111ba816111da565b60006020828403121561154e57600080fd5b8151611036816111da565b808201808211156103c7576103c76114e0565b60005b8381101561158757818101518382015260200161156f565b50506000910152565b600081518084526115a881602086016020860161156c565b601f01601f19169290920160200192915050565b604081526115d260408201845162ffffff169052565b600060208401516115e86060840182600f0b9052565b50604084015161ffff8116608084015250606084015163ffffffff811660a084015250608084015163ffffffff811660c08401525060a084015163ffffffff811660e08401525060c084015161010061164b818501836001600160a01b03169052565b60e0860151915061012061166381860184600f0b9052565b9086015191506101409061167b85830184600f0b9052565b86015161016085810191909152908601519150610180906116a6828601846001600160a01b03169052565b8601516101a0858101919091529086015191506101c0906116cc8286018461ffff169052565b8601516101e085019190915290506116e8610200840182611590565b905082810360208401526116fc8185611590565b95945050505050565b600060033d111561171e5760046000803e5060005160e01c5b90565b600060443d101561172f5790565b6040516003193d81016004833e81513d67ffffffffffffffff816024840111818411171561175f57505050505090565b82850191508151818111156117775750505050505090565b843d87010160208285010111156117915750505050505090565b6117a060208286010187611313565b509095945050505050565b6020815260006110366020830184611590565b80516111ba816112e1565b6000602082840312156117db57600080fd5b8151611036816112e1565b80516111ba816112b5565b8051600381900b81146111ba57600080fd5b80516fffffffffffffffffffffffffffffffff811681146111ba57600080fd5b6000610260828403121561183657600080fd5b61183e61134e565b61184783611531565b8152611855602084016117e6565b6020820152611866604084016117e6565b6040820152611877606084016117f1565b6060820152611888608084016117e6565b608082015261189960a084016113b0565b60a08201526118aa60c084016117be565b60c08201526118bb60e08401611398565b60e08201526101006118ce818501611386565b908201526101206118e08482016117be565b908201526101406118f2848201611386565b90820152610160611904848201611386565b90820152610180611916848201611386565b908201526101a0611928848201611386565b908201526101c061193a848201611386565b908201526101e061194c848201611803565b9082015261020061195e848201611803565b90820152610220611970848201611803565b90820152610240611982848201611386565b908201529392505050565b80820260008212600160ff1b841416156119a9576119a96114e0565b81810583148215176103c7576103c76114e0565b6000826119cc576119cc6114ca565b600160ff1b8214600019841416156119e6576119e66114e0565b500590565b600082516119fd81846020870161156c565b919091019291505056fea264697066735822122044e981601be4708bddca168ed09f7918febf6a576fcc3dc5a89777cc197ea44164736f6c63430008130033",
  "linkReferences": {},
  "deployedLinkReferences": {}
}