{
  "_format": "hh-sol-artifact-1",
  "contractName": "OnChainTrader",
  "sourceName": "contracts/OnChainTrader.sol",
  "abi": [
    {
      "inputs": [
        {
          "internalType": "address",
          "name": "_perpetualProxy",
          "type": "address"
        }
      ],
      "stateMutability": "nonpayable",
      "type": "constructor"
    },
    {
      "anonymous": false,
      "inputs": [
        {
          "indexed": false,
          "internalType": "bytes32",
          "name": "orderDigest",
          "type": "bytes32"
        },
        {
          "indexed": false,
          "internalType": "bool",
          "name": "isExecuted",
          "type": "bool"
        }
      ],
      "name": "CallbackReceived",
      "type": "event"
    },
    {
      "anonymous": false,
      "inputs": [
        {
          "indexed": false,
          "internalType": "uint24",
          "name": "perpetualId",
          "type": "uint24"
        },
        {
          "indexed": false,
          "internalType": "address",
          "name": "to",
          "type": "address"
        },
        {
          "indexed": false,
          "internalType": "uint256",
          "name": "amountDecN",
          "type": "uint256"
        }
      ],
      "name": "MarginTokenSent",
      "type": "event"
    },
    {
      "anonymous": false,
      "inputs": [
        {
          "indexed": true,
          "internalType": "address",
          "name": "previousOwner",
          "type": "address"
        },
        {
          "indexed": true,
          "internalType": "address",
          "name": "newOwner",
          "type": "address"
        }
      ],
      "name": "OwnershipTransferred",
      "type": "event"
    },
    {
      "anonymous": false,
      "inputs": [
        {
          "indexed": false,
          "internalType": "uint24",
          "name": "perpetualId",
          "type": "uint24"
        },
        {
          "indexed": false,
          "internalType": "address",
          "name": "lobAddr",
          "type": "address"
        },
        {
          "indexed": false,
          "internalType": "address",
          "name": "mgnTknAddrOfPool",
          "type": "address"
        }
      ],
      "name": "PerpetualAdded",
      "type": "event"
    },
    {
      "anonymous": false,
      "inputs": [
        {
          "indexed": false,
          "internalType": "string",
          "name": "reason",
          "type": "string"
        }
      ],
      "name": "PerpetualOrderSubmitFailed",
      "type": "event"
    },
    {
      "anonymous": false,
      "inputs": [
        {
          "indexed": false,
          "internalType": "int256",
          "name": "amountDec18",
          "type": "int256"
        },
        {
          "indexed": false,
          "internalType": "uint16",
          "name": "leverageTDR",
          "type": "uint16"
        }
      ],
      "name": "PerpetualOrderSubmitSuccess",
      "type": "event"
    },
    {
      "inputs": [
        {
          "internalType": "uint24",
          "name": "_iPerpetualId",
          "type": "uint24"
        }
      ],
      "name": "addPerpetual",
      "outputs": [],
      "stateMutability": "nonpayable",
      "type": "function"
    },
    {
      "inputs": [
        {
          "internalType": "uint256",
          "name": "_amount",
          "type": "uint256"
        },
        {
          "internalType": "uint24",
          "name": "_iPerpetualId",
          "type": "uint24"
        }
      ],
      "name": "approveAmountForPerpetualMgnTkn",
      "outputs": [],
      "stateMutability": "nonpayable",
      "type": "function"
    },
    {
      "inputs": [
        {
          "internalType": "bytes32",
          "name": "orderDigest",
          "type": "bytes32"
        },
        {
          "internalType": "bool",
          "name": "isExecuted",
          "type": "bool"
        }
      ],
      "name": "d8xExecutionCallback",
      "outputs": [],
      "stateMutability": "nonpayable",
      "type": "function"
    },
    {
      "inputs": [
        {
          "internalType": "uint24",
          "name": "_iPerpetualId",
          "type": "uint24"
        }
      ],
      "name": "getMarginAccount",
      "outputs": [
        {
          "components": [
            {
              "internalType": "int256",
              "name": "lockedInValueQCD18",
              "type": "int256"
            },
            {
              "internalType": "int256",
              "name": "cashCCD18",
              "type": "int256"
            },
            {
              "internalType": "int256",
              "name": "positionSizeBCD18",
              "type": "int256"
            },
            {
              "internalType": "bytes16",
              "name": "positionId",
              "type": "bytes16"
            }
          ],
          "internalType": "struct D18MarginAccount",
          "name": "",
          "type": "tuple"
        }
      ],
      "stateMutability": "view",
      "type": "function"
    },
    {
      "inputs": [
        {
          "internalType": "uint24",
          "name": "_iPerpetualId",
          "type": "uint24"
        },
        {
          "internalType": "bool",
          "name": "isBuy",
          "type": "bool"
        }
      ],
      "name": "getMaxTradeAmount",
      "outputs": [
        {
          "internalType": "int256",
          "name": "",
          "type": "int256"
        }
      ],
      "stateMutability": "view",
      "type": "function"
    },
    {
      "inputs": [
        {
          "internalType": "uint8",
          "name": "",
          "type": "uint8"
        }
      ],
      "name": "mgnTknAddrOfPool",
      "outputs": [
        {
          "internalType": "address",
          "name": "",
          "type": "address"
        }
      ],
      "stateMutability": "view",
      "type": "function"
    },
    {
      "inputs": [
        {
          "internalType": "uint24",
          "name": "",
          "type": "uint24"
        }
      ],
      "name": "orderBookOfPerpetual",
      "outputs": [
        {
          "internalType": "address",
          "name": "",
          "type": "address"
        }
      ],
      "stateMutability": "view",
      "type": "function"
    },
    {
      "inputs": [],
      "name": "owner",
      "outputs": [
        {
          "internalType": "address",
          "name": "",
          "type": "address"
        }
      ],
      "stateMutability": "view",
      "type": "function"
    },
    {
      "inputs": [],
      "name": "perpetualProxy",
      "outputs": [
        {
          "internalType": "address",
          "name": "",
          "type": "address"
        }
      ],
      "stateMutability": "view",
      "type": "function"
    },
    {
      "inputs": [
        {
          "internalType": "uint24",
          "name": "_iPerpetualId",
          "type": "uint24"
        },
        {
          "internalType": "int256",
          "name": "_amountDec18",
          "type": "int256"
        },
        {
          "internalType": "uint16",
          "name": "_leverageTDR",
          "type": "uint16"
        },
        {
          "internalType": "uint32",
          "name": "_flags",
          "type": "uint32"
        }
      ],
      "name": "postOrder",
      "outputs": [
        {
          "internalType": "bool",
          "name": "",
          "type": "bool"
        }
      ],
      "stateMutability": "nonpayable",
      "type": "function"
    },
    {
      "inputs": [],
      "name": "renounceOwnership",
      "outputs": [],
      "stateMutability": "nonpayable",
      "type": "function"
    },
    {
      "inputs": [
        {
          "internalType": "uint24",
          "name": "_iPerpetualId",
          "type": "uint24"
        }
      ],
      "name": "transferMarginCollateralTo",
      "outputs": [],
      "stateMutability": "nonpayable",
      "type": "function"
    },
    {
      "inputs": [
        {
          "internalType": "address",
          "name": "newOwner",
          "type": "address"
        }
      ],
      "name": "transferOwnership",
      "outputs": [],
      "stateMutability": "nonpayable",
      "type": "function"
    }
  ],
  "bytecode": "0x60a06040523480156200001157600080fd5b5060405162001e4538038062001e458339810160408190526200003491620000a1565b6200003f3362000051565b6001600160a01b0316608052620000d3565b600080546001600160a01b038381166001600160a01b0319831681178455604051919092169283917f8be0079c531659141344cd1fd0a4f28419497f9722a3daafe3b4186f6b6457e09190a35050565b600060208284031215620000b457600080fd5b81516001600160a01b0381168114620000cc57600080fd5b9392505050565b608051611d2c6200011960003960008181610178015281816102be0152818161036a015281816105fc01528181610c0401528181610d2c0152610e1a0152611d2c6000f3fe608060405234801561001057600080fd5b50600436106100df5760003560e01c806362bcc2581161008c5780639fbb0a3b116100665780639fbb0a3b146101e9578063b1bd155e14610242578063ba0e939914610255578063f2fde38b1461027e57600080fd5b806362bcc258146101ad578063715018a6146101d05780638da5cb5b146101d857600080fd5b8063230f2384116100bd578063230f2384146101605780633e99a53b146101735780635db35a041461019a57600080fd5b80630330d0c0146100e45780630df3ad4c1461012a57806322ad65db1461014b575b600080fd5b61010d6100f23660046113f5565b6001602052600090815260409020546001600160a01b031681565b6040516001600160a01b0390911681526020015b60405180910390f35b61013d61013836600461141e565b610291565b604051908152602001610121565b61015e610159366004611455565b6103eb565b005b61015e61016e3660046113f5565b610429565b61010d7f000000000000000000000000000000000000000000000000000000000000000081565b61015e6101a836600461147a565b61057b565b6101c06101bb3660046114b6565b61067f565b6040519015158152602001610121565b61015e610b3d565b6000546001600160a01b031661010d565b6101fc6101f73660046113f5565b610ba3565b60405161012191908151815260208083015190820152604080830151908201526060918201516fffffffffffffffffffffffffffffffff19169181019190915260800190565b61015e6102503660046113f5565b610d0f565b61010d61026336600461151f565b6002602052600090815260409020546001600160a01b031681565b61015e61028c366004611551565b610f2d565b604051633d53a26b60e11b815262ffffff8316600482015230602482015260009081906001600160a01b037f00000000000000000000000000000000000000000000000000000000000000001690637aa744d69060440161010060405180830381865afa158015610306573d6000803e3d6000fd5b505050506040513d601f19601f8201168201806040525081019061032a9190611637565b6040808201519051633ef0eb0f60e21b815262ffffff87166004820152600f9190910b602482015284151560448201529091506000906001600160a01b037f0000000000000000000000000000000000000000000000000000000000000000169063fbc3ac3c90606401602060405180830381865afa1580156103b1573d6000803e3d6000fd5b505050506040513d601f19601f820116820180604052508101906103d5919061170a565b90506103e081610ff8565b925050505b92915050565b6040805183815282151560208201527fdd31864b23bd4f09a8914c3ee2c028bd0cbf0186a8eec21258681488239b92dd910160405180910390a15050565b6000546001600160a01b031633146104885760405162461bcd60e51b815260206004820181905260248201527f4f776e61626c653a2063616c6c6572206973206e6f7420746865206f776e657260448201526064015b60405180910390fd5b6000610497620186a083611751565b60ff81166000908152600260205260408082205490516370a0823160e01b81523060048201529293506001600160a01b03169182919082906370a0823190602401602060405180830381865afa1580156104f5573d6000803e3d6000fd5b505050506040513d601f19601f820116820180604052508101906105199190611773565b905061052f6001600160a01b0383163383611024565b6040805162ffffff871681523360208201529081018290527fd7089a64efa4caccaea095308c4da0682a70797771cee9b36ab4a639054035929060600160405180910390a15050505050565b600061058a620186a083611751565b60ff81166000908152600260205260409020549091506001600160a01b0316806105e55760405162461bcd60e51b815260206004820152600c60248201526b736574206f6220616464727360a01b604482015260640161047f565b60405163095ea7b360e01b81526001600160a01b037f0000000000000000000000000000000000000000000000000000000000000000811660048301526024820186905282169063095ea7b3906044016020604051808303816000875af1158015610654573d6000803e3d6000fd5b505050506040513d601f19601f820116820180604052508101906106789190611797565b5050505050565b600080546001600160a01b031633146106da5760405162461bcd60e51b815260206004820181905260248201527f4f776e61626c653a2063616c6c6572206973206e6f7420746865206f776e6572604482015260640161047f565b62ffffff85166000908152600160205260409020546001600160a01b0316806107455760405162461bcd60e51b815260206004820152601260248201527f6f7264657220626f6f6b20756e6b6e6f776e0000000000000000000000000000604482015260640161047f565b600061075086611090565b90508363ffffffff1660000361076857634000000093505b604080516001808252818301909252600091816020015b604080516101e0810182526000808252602080830182905292820181905260608083018290526080830182905260a0830182905260c0830182905260e08301829052610100830182905261012083018290526101408301829052610160830182905261018083018290526101a08301526101c0820152825260001990920191018161077f579050509050848160008151811061081d5761081d6117b4565b60200260200101516080019063ffffffff16908163ffffffff1681525050878160008151811061084f5761084f6117b4565b60200260200101516000019062ffffff16908162ffffff1681525050308160008151811061087f5761087f6117b4565b602002602001015161014001906001600160a01b031690816001600160a01b03168152505081816000815181106108b8576108b86117b4565b60200260200101516101000190600f0b9081600f0b81525050600082600f0b136108e35760006108f5565b6f7fffffffffffffffffffffffffffffff5b81600081518110610908576109086117b4565b602002602001015160200190600f0b9081600f0b815250508581600081518110610934576109346117b4565b602090810291909101015161ffff909116604090910152610958426203f4806117ca565b8160008151811061096b5761096b6117b4565b602002602001015160a0019063ffffffff16908163ffffffff1681525050428160008151811061099d5761099d6117b4565b60200260200101516060019063ffffffff16908163ffffffff168152505030816000815181106109cf576109cf6117b4565b60209081029190910101516001600160a01b03919091166101c090910152604080516001808252818301909252600091816020015b6060815260200190600190039081610a04575050604051632a69792760e21b81529091506001600160a01b0385169063a9a5e49c90610a499085908590600401611882565b600060405180830381600087803b158015610a6357600080fd5b505af1925050508015610a74575060015b610af057610a806119f4565b806308c379a003610ae45750610a94611a10565b80610a9f5750610ae6565b7f2858238d037e52471d3ad4944d280cdb1fd3b479a3fdf698bb04e99572e6efa881604051610ace9190611a9a565b60405180910390a1600095505050505050610b35565b505b3d6000803e3d6000fd5b6040805189815261ffff891660208201527f742895f70ed9b3e00487db3827a00b9c91de8360cd96129050b8a82c99de4862910160405180910390a160019450505050505b949350505050565b6000546001600160a01b03163314610b975760405162461bcd60e51b815260206004820181905260248201527f4f776e61626c653a2063616c6c6572206973206e6f7420746865206f776e6572604482015260640161047f565b610ba16000611138565b565b610be1604051806080016040528060008152602001600081526020016000815260200160006fffffffffffffffffffffffffffffffff191681525090565b604051633d53a26b60e11b815262ffffff831660048201523060248201526000907f00000000000000000000000000000000000000000000000000000000000000006001600160a01b031690637aa744d69060440161010060405180830381865afa158015610c54573d6000803e3d6000fd5b505050506040513d601f19601f82011682018060405250810190610c789190611637565b9050610cb8604051806080016040528060008152602001600081526020016000815260200160006fffffffffffffffffffffffffffffffff191681525090565b8151610cc390610ff8565b81526020820151610cd390610ff8565b60208201526040820151610ce690610ff8565b604082015260e0909101516fffffffffffffffffffffffffffffffff1916606082015292915050565b60405163079e02e960e21b815262ffffff821660048201526000907f00000000000000000000000000000000000000000000000000000000000000006001600160a01b031690631e780ba490602401602060405180830381865afa158015610d7b573d6000803e3d6000fd5b505050506040513d601f19601f82011682018060405250810190610d9f9190611ab8565b62ffffff8316600090815260016020526040812080546001600160a01b0319166001600160a01b038416179055909150610ddc620186a084611751565b60ff81166000908152600260205260409020549091506001600160a01b0316610ec357604051631857be3960e11b815260ff821660048201526000907f00000000000000000000000000000000000000000000000000000000000000006001600160a01b0316906330af7c729060240161026060405180830381865afa158015610e6a573d6000803e3d6000fd5b505050506040513d601f19601f82011682018060405250810190610e8e9190611b12565b60c0015160ff8316600090815260026020526040902080546001600160a01b0319166001600160a01b03909216919091179055505b60ff811660009081526002602090815260409182902054825162ffffff871681526001600160a01b038681169382019390935291168183015290517f5222a91cec499c7c85c5fcb8b8ddfb81880ec40273d8cda372740d8a97fa6ec79181900360600190a1505050565b6000546001600160a01b03163314610f875760405162461bcd60e51b815260206004820181905260248201527f4f776e61626c653a2063616c6c6572206973206e6f7420746865206f776e6572604482015260640161047f565b6001600160a01b038116610fec5760405162461bcd60e51b815260206004820152602660248201527f4f776e61626c653a206e6577206f776e657220697320746865207a65726f206160448201526564647265737360d01b606482015260840161047f565b610ff581611138565b50565b60006801000000000000000061101a670de0b6b3a7640000600f85900b611c7c565b6103e59190611cac565b604080516001600160a01b038416602482015260448082018490528251808303909101815260649091019091526020810180517bffffffffffffffffffffffffffffffffffffffffffffffffffffffff1663a9059cbb60e01b17905261108b908490611188565b505050565b600080670de0b6b3a76400006110af6801000000000000000085611c7c565b6110b99190611cac565b90506f7fffffffffffffffffffffffffffffff1983128015906110ec57506f7fffffffffffffffffffffffffffffff8313155b6103e55760405162461bcd60e51b815260206004820152601360248201527f726573756c74206f7574206f662072616e676500000000000000000000000000604482015260640161047f565b600080546001600160a01b038381166001600160a01b0319831681178455604051919092169283917f8be0079c531659141344cd1fd0a4f28419497f9722a3daafe3b4186f6b6457e09190a35050565b60006111dd826040518060400160405280602081526020017f5361666545524332303a206c6f772d6c6576656c2063616c6c206661696c6564815250856001600160a01b031661125a9092919063ffffffff16565b80519091501561108b57808060200190518101906111fb9190611797565b61108b5760405162461bcd60e51b815260206004820152602a60248201527f5361666545524332303a204552433230206f7065726174696f6e20646964206e6044820152691bdd081cdd58d8d9595960b21b606482015260840161047f565b60606112698484600085611273565b90505b9392505050565b6060824710156112d45760405162461bcd60e51b815260206004820152602660248201527f416464726573733a20696e73756666696369656e742062616c616e636520666f6044820152651c8818d85b1b60d21b606482015260840161047f565b6001600160a01b0385163b61132b5760405162461bcd60e51b815260206004820152601d60248201527f416464726573733a2063616c6c20746f206e6f6e2d636f6e7472616374000000604482015260640161047f565b600080866001600160a01b031685876040516113479190611cda565b60006040518083038185875af1925050503d8060008114611384576040519150601f19603f3d011682016040523d82523d6000602084013e611389565b606091505b50915091506113998282866113a4565b979650505050505050565b606083156113b357508161126c565b8251156113c35782518084602001fd5b8160405162461bcd60e51b815260040161047f9190611a9a565b803562ffffff811681146113f057600080fd5b919050565b60006020828403121561140757600080fd5b61126c826113dd565b8015158114610ff557600080fd5b6000806040838503121561143157600080fd5b61143a836113dd565b9150602083013561144a81611410565b809150509250929050565b6000806040838503121561146857600080fd5b82359150602083013561144a81611410565b6000806040838503121561148d57600080fd5b8235915061149d602084016113dd565b90509250929050565b61ffff81168114610ff557600080fd5b600080600080608085870312156114cc57600080fd5b6114d5856113dd565b93506020850135925060408501356114ec816114a6565b9150606085013563ffffffff8116811461150557600080fd5b939692955090935050565b60ff81168114610ff557600080fd5b60006020828403121561153157600080fd5b813561126c81611510565b6001600160a01b0381168114610ff557600080fd5b60006020828403121561156357600080fd5b813561126c8161153c565b601f8201601f1916810167ffffffffffffffff811182821017156115a257634e487b7160e01b600052604160045260246000fd5b6040525050565b604051610260810167ffffffffffffffff811182821017156115db57634e487b7160e01b600052604160045260246000fd5b60405290565b8051600f81900b81146113f057600080fd5b805167ffffffffffffffff811681146113f057600080fd5b80516113f0816114a6565b80516fffffffffffffffffffffffffffffffff19811681146113f057600080fd5b600061010080838503121561164b57600080fd5b6040519081019067ffffffffffffffff8211818310171561167c57634e487b7160e01b600052604160045260246000fd5b81604052611689846115e1565b8152611697602085016115e1565b60208201526116a8604085016115e1565b60408201526116b9606085016115e1565b60608201526116ca608085016115f3565b60808201526116db60a0850161160b565b60a08201526116ec60c0850161160b565b60c08201526116fd60e08501611616565b60e0820152949350505050565b60006020828403121561171c57600080fd5b61126c826115e1565b634e487b7160e01b600052601260045260246000fd5b634e487b7160e01b600052601160045260246000fd5b600062ffffff8084168061176757611767611725565b92169190910492915050565b60006020828403121561178557600080fd5b5051919050565b80516113f081611410565b6000602082840312156117a957600080fd5b815161126c81611410565b634e487b7160e01b600052603260045260246000fd5b808201808211156103e5576103e561173b565b60005b838110156117f85781810151838201526020016117e0565b50506000910152565b600081518084526118198160208601602086016117dd565b601f01601f19169290920160200192915050565b600081518084526020808501808196508360051b8101915082860160005b85811015611875578284038952611863848351611801565b9885019893509084019060010161184b565b5091979650505050505050565b60006040808301818452808651808352606092508286019150828160051b8701016020808a0160005b848110156119d457898403605f190186528151805162ffffff1685526101e0848201516118dc86880182600f0b9052565b508982015161ffff16868b01528882015163ffffffff9081168a88015260808084015182169088015260a0808401519091169087015260c0808301516001600160a01b03169087015260e080830151600f81900b8289015250506101008083015161194b82890182600f0b9052565b50506101208281015190870152610140808301516001600160a01b03169087015261016080830151908701526101808083015161ffff16908701526101a08083015181880183905261199f83890182611801565b925050506101c08083015192506119c0818801846001600160a01b03169052565b5096840196945050908201906001016118ab565b5050878203908801526119e7818961182d565b9998505050505050505050565b600060033d1115611a0d5760046000803e5060005160e01c5b90565b600060443d1015611a1e5790565b6040516003193d81016004833e81513d67ffffffffffffffff8160248401118184111715611a4e57505050505090565b8285019150815181811115611a665750505050505090565b843d8701016020828501011115611a805750505050505090565b611a8f6020828601018761156e565b509095945050505050565b60208152600061126c6020830184611801565b80516113f08161153c565b600060208284031215611aca57600080fd5b815161126c8161153c565b80516113f081611510565b8051600381900b81146113f057600080fd5b80516fffffffffffffffffffffffffffffffff811681146113f057600080fd5b60006102608284031215611b2557600080fd5b611b2d6115a9565b611b368361178c565b8152611b4460208401611ad5565b6020820152611b5560408401611ad5565b6040820152611b6660608401611ae0565b6060820152611b7760808401611ad5565b6080820152611b8860a0840161160b565b60a0820152611b9960c08401611aad565b60c0820152611baa60e084016115f3565b60e0820152610100611bbd8185016115e1565b90820152610120611bcf848201611aad565b90820152610140611be18482016115e1565b90820152610160611bf38482016115e1565b90820152610180611c058482016115e1565b908201526101a0611c178482016115e1565b908201526101c0611c298482016115e1565b908201526101e0611c3b848201611af2565b90820152610200611c4d848201611af2565b90820152610220611c5f848201611af2565b90820152610240611c718482016115e1565b908201529392505050565b80820260008212600160ff1b84141615611c9857611c9861173b565b81810583148215176103e5576103e561173b565b600082611cbb57611cbb611725565b600160ff1b821460001984141615611cd557611cd561173b565b500590565b60008251611cec8184602087016117dd565b919091019291505056fea26469706673582212200acb5d577bc15303d485c9ed365e0790d6fddfb4f4926986705a6fbd2ae6e7aa64736f6c63430008130033",
  "linkReferences": {},
  "deployedLinkReferences": {}
}