{
  "_format": "hh-sol-artifact-1",
  "contractName": "OnChainTrader",
  "sourceName": "contracts/OnChainTrader.sol",
  "abi": [
    {
      "inputs": [
        {
          "internalType": "address",
          "name": "_perpetualProxy",
          "type": "address"
        }
      ],
      "stateMutability": "nonpayable",
      "type": "constructor"
    },
    {
      "anonymous": false,
      "inputs": [
        {
          "indexed": false,
          "internalType": "bytes32",
          "name": "orderDigest",
          "type": "bytes32"
        },
        {
          "indexed": false,
          "internalType": "bool",
          "name": "isExecuted",
          "type": "bool"
        }
      ],
      "name": "CallbackReceived",
      "type": "event"
    },
    {
      "anonymous": false,
      "inputs": [
        {
          "indexed": false,
          "internalType": "uint24",
          "name": "perpetualId",
          "type": "uint24"
        },
        {
          "indexed": false,
          "internalType": "address",
          "name": "to",
          "type": "address"
        },
        {
          "indexed": false,
          "internalType": "uint256",
          "name": "amountDecN",
          "type": "uint256"
        }
      ],
      "name": "MarginTokenSent",
      "type": "event"
    },
    {
      "anonymous": false,
      "inputs": [
        {
          "indexed": true,
          "internalType": "address",
          "name": "previousOwner",
          "type": "address"
        },
        {
          "indexed": true,
          "internalType": "address",
          "name": "newOwner",
          "type": "address"
        }
      ],
      "name": "OwnershipTransferred",
      "type": "event"
    },
    {
      "anonymous": false,
      "inputs": [
        {
          "indexed": false,
          "internalType": "uint24",
          "name": "perpetualId",
          "type": "uint24"
        },
        {
          "indexed": false,
          "internalType": "address",
          "name": "lobAddr",
          "type": "address"
        },
        {
          "indexed": false,
          "internalType": "address",
          "name": "mgnTknAddrOfPool",
          "type": "address"
        }
      ],
      "name": "PerpetualAdded",
      "type": "event"
    },
    {
      "anonymous": false,
      "inputs": [
        {
          "indexed": false,
          "internalType": "string",
          "name": "reason",
          "type": "string"
        }
      ],
      "name": "PerpetualOrderSubmitFailed",
      "type": "event"
    },
    {
      "anonymous": false,
      "inputs": [
        {
          "indexed": false,
          "internalType": "int256",
          "name": "amountDec18",
          "type": "int256"
        },
        {
          "indexed": false,
          "internalType": "uint16",
          "name": "leverageTDR",
          "type": "uint16"
        }
      ],
      "name": "PerpetualOrderSubmitSuccess",
      "type": "event"
    },
    {
      "inputs": [
        {
          "internalType": "uint24",
          "name": "_iPerpetualId",
          "type": "uint24"
        }
      ],
      "name": "addPerpetual",
      "outputs": [],
      "stateMutability": "nonpayable",
      "type": "function"
    },
    {
      "inputs": [
        {
          "internalType": "uint256",
          "name": "_amount",
          "type": "uint256"
        },
        {
          "internalType": "uint24",
          "name": "_iPerpetualId",
          "type": "uint24"
        }
      ],
      "name": "approveAmountForPerpetualMgnTkn",
      "outputs": [],
      "stateMutability": "nonpayable",
      "type": "function"
    },
    {
      "inputs": [
        {
          "internalType": "bytes32",
          "name": "orderDigest",
          "type": "bytes32"
        },
        {
          "internalType": "bool",
          "name": "isExecuted",
          "type": "bool"
        }
      ],
      "name": "d8xExecutionCallback",
      "outputs": [],
      "stateMutability": "nonpayable",
      "type": "function"
    },
    {
      "inputs": [
        {
          "internalType": "uint24",
          "name": "_iPerpetualId",
          "type": "uint24"
        }
      ],
      "name": "getMarginAccount",
      "outputs": [
        {
          "components": [
            {
              "internalType": "int256",
              "name": "lockedInValueQCD18",
              "type": "int256"
            },
            {
              "internalType": "int256",
              "name": "cashCCD18",
              "type": "int256"
            },
            {
              "internalType": "int256",
              "name": "positionSizeBCD18",
              "type": "int256"
            },
            {
              "internalType": "bytes16",
              "name": "positionId",
              "type": "bytes16"
            }
          ],
          "internalType": "struct D18MarginAccount",
          "name": "",
          "type": "tuple"
        }
      ],
      "stateMutability": "view",
      "type": "function"
    },
    {
      "inputs": [
        {
          "internalType": "uint24",
          "name": "_iPerpetualId",
          "type": "uint24"
        },
        {
          "internalType": "bool",
          "name": "isBuy",
          "type": "bool"
        }
      ],
      "name": "getMaxTradeAmount",
      "outputs": [
        {
          "internalType": "int256",
          "name": "",
          "type": "int256"
        }
      ],
      "stateMutability": "view",
      "type": "function"
    },
    {
      "inputs": [
        {
          "internalType": "uint8",
          "name": "",
          "type": "uint8"
        }
      ],
      "name": "mgnTknAddrOfPool",
      "outputs": [
        {
          "internalType": "address",
          "name": "",
          "type": "address"
        }
      ],
      "stateMutability": "view",
      "type": "function"
    },
    {
      "inputs": [
        {
          "internalType": "uint24",
          "name": "",
          "type": "uint24"
        }
      ],
      "name": "orderBookOfPerpetual",
      "outputs": [
        {
          "internalType": "address",
          "name": "",
          "type": "address"
        }
      ],
      "stateMutability": "view",
      "type": "function"
    },
    {
      "inputs": [],
      "name": "owner",
      "outputs": [
        {
          "internalType": "address",
          "name": "",
          "type": "address"
        }
      ],
      "stateMutability": "view",
      "type": "function"
    },
    {
      "inputs": [],
      "name": "perpetualProxy",
      "outputs": [
        {
          "internalType": "address",
          "name": "",
          "type": "address"
        }
      ],
      "stateMutability": "view",
      "type": "function"
    },
    {
      "inputs": [
        {
          "internalType": "uint24",
          "name": "_iPerpetualId",
          "type": "uint24"
        },
        {
          "internalType": "int256",
          "name": "_amountDec18",
          "type": "int256"
        },
        {
          "internalType": "uint16",
          "name": "_leverageTDR",
          "type": "uint16"
        },
        {
          "internalType": "uint32",
          "name": "_flags",
          "type": "uint32"
        }
      ],
      "name": "postOrder",
      "outputs": [
        {
          "internalType": "bool",
          "name": "",
          "type": "bool"
        }
      ],
      "stateMutability": "nonpayable",
      "type": "function"
    },
    {
      "inputs": [],
      "name": "renounceOwnership",
      "outputs": [],
      "stateMutability": "nonpayable",
      "type": "function"
    },
    {
      "inputs": [
        {
          "internalType": "uint24",
          "name": "_iPerpetualId",
          "type": "uint24"
        }
      ],
      "name": "transferMarginCollateralTo",
      "outputs": [],
      "stateMutability": "nonpayable",
      "type": "function"
    },
    {
      "inputs": [
        {
          "internalType": "address",
          "name": "newOwner",
          "type": "address"
        }
      ],
      "name": "transferOwnership",
      "outputs": [],
      "stateMutability": "nonpayable",
      "type": "function"
    }
  ],
  "bytecode": "0x60a060405234801561001057600080fd5b5060405162001bef38038062001bef8339810160408190526100319161009b565b61003a3361004b565b6001600160a01b03166080526100cb565b600080546001600160a01b038381166001600160a01b0319831681178455604051919092169283917f8be0079c531659141344cd1fd0a4f28419497f9722a3daafe3b4186f6b6457e09190a35050565b6000602082840312156100ad57600080fd5b81516001600160a01b03811681146100c457600080fd5b9392505050565b608051611ade6200011160003960008181610178015281816102be0152818161036a015281816105fc01528181610a3901528181610b610152610c4f0152611ade6000f3fe608060405234801561001057600080fd5b50600436106100df5760003560e01c806362bcc2581161008c5780639fbb0a3b116100665780639fbb0a3b146101e9578063b1bd155e14610242578063ba0e939914610255578063f2fde38b1461027e57600080fd5b806362bcc258146101ad578063715018a6146101d05780638da5cb5b146101d857600080fd5b8063230f2384116100bd578063230f2384146101605780633e99a53b146101735780635db35a041461019a57600080fd5b80630330d0c0146100e45780630df3ad4c1461012a57806322ad65db1461014b575b600080fd5b61010d6100f236600461122a565b6001602052600090815260409020546001600160a01b031681565b6040516001600160a01b0390911681526020015b60405180910390f35b61013d610138366004611253565b610291565b604051908152602001610121565b61015e61015936600461128a565b6103eb565b005b61015e61016e36600461122a565b610429565b61010d7f000000000000000000000000000000000000000000000000000000000000000081565b61015e6101a83660046112af565b61057b565b6101c06101bb3660046112eb565b61067f565b6040519015158152602001610121565b61015e610972565b6000546001600160a01b031661010d565b6101fc6101f736600461122a565b6109d8565b60405161012191908151815260208083015190820152604080830151908201526060918201516fffffffffffffffffffffffffffffffff19169181019190915260800190565b61015e61025036600461122a565b610b44565b61010d610263366004611354565b6002602052600090815260409020546001600160a01b031681565b61015e61028c366004611386565b610d62565b604051633d53a26b60e11b815262ffffff8316600482015230602482015260009081906001600160a01b037f00000000000000000000000000000000000000000000000000000000000000001690637aa744d69060440161010060405180830381865afa158015610306573d6000803e3d6000fd5b505050506040513d601f19601f8201168201806040525081019061032a919061146c565b6040808201519051633ef0eb0f60e21b815262ffffff87166004820152600f9190910b602482015284151560448201529091506000906001600160a01b037f0000000000000000000000000000000000000000000000000000000000000000169063fbc3ac3c90606401602060405180830381865afa1580156103b1573d6000803e3d6000fd5b505050506040513d601f19601f820116820180604052508101906103d5919061153f565b90506103e081610e2d565b925050505b92915050565b6040805183815282151560208201527fdd31864b23bd4f09a8914c3ee2c028bd0cbf0186a8eec21258681488239b92dd910160405180910390a15050565b6000546001600160a01b031633146104885760405162461bcd60e51b815260206004820181905260248201527f4f776e61626c653a2063616c6c6572206973206e6f7420746865206f776e657260448201526064015b60405180910390fd5b6000610497620186a083611586565b60ff81166000908152600260205260408082205490516370a0823160e01b81523060048201529293506001600160a01b03169182919082906370a0823190602401602060405180830381865afa1580156104f5573d6000803e3d6000fd5b505050506040513d601f19601f8201168201806040525081019061051991906115a8565b905061052f6001600160a01b0383163383610e59565b6040805162ffffff871681523360208201529081018290527fd7089a64efa4caccaea095308c4da0682a70797771cee9b36ab4a639054035929060600160405180910390a15050505050565b600061058a620186a083611586565b60ff81166000908152600260205260409020549091506001600160a01b0316806105e55760405162461bcd60e51b815260206004820152600c60248201526b736574206f6220616464727360a01b604482015260640161047f565b60405163095ea7b360e01b81526001600160a01b037f0000000000000000000000000000000000000000000000000000000000000000811660048301526024820186905282169063095ea7b3906044016020604051808303816000875af1158015610654573d6000803e3d6000fd5b505050506040513d601f19601f8201168201806040525081019061067891906115cc565b5050505050565b600080546001600160a01b031633146106da5760405162461bcd60e51b815260206004820181905260248201527f4f776e61626c653a2063616c6c6572206973206e6f7420746865206f776e6572604482015260640161047f565b62ffffff85166000908152600160205260409020546001600160a01b0316806107455760405162461bcd60e51b815260206004820152601260248201527f6f7264657220626f6f6b20756e6b6e6f776e0000000000000000000000000000604482015260640161047f565b600061075086610ec5565b90508363ffffffff1660000361076857634000000093505b604080516101e081018252600060208201819052918101829052606080820183905260a0820183905260c0820183905260e082018390526101208201839052610160820183905261018082018390526101a08201526101c0810182905263ffffffff8616608082015262ffffff8916815230610140820152600f83900b61010082018190529091126107fb57600061080d565b6f7fffffffffffffffffffffffffffffff5b600f0b602082015261ffff8616604082015261082c426203f4806115e9565b63ffffffff90811660a083015242166060820152306101c08201526040805160208101825260008152905163377e126560e01b81526001600160a01b0385169163377e12659161088091859160040161164c565b600060405180830381600087803b15801561089a57600080fd5b505af19250505080156108ab575060015b610926576108b76117a6565b806308c379a00361091a57506108cb6117c2565b806108d6575061091c565b7f2858238d037e52471d3ad4944d280cdb1fd3b479a3fdf698bb04e99572e6efa881604051610905919061184c565b60405180910390a1600094505050505061096a565b505b3d6000803e3d6000fd5b6040805188815261ffff881660208201527f742895f70ed9b3e00487db3827a00b9c91de8360cd96129050b8a82c99de4862910160405180910390a1600193505050505b949350505050565b6000546001600160a01b031633146109cc5760405162461bcd60e51b815260206004820181905260248201527f4f776e61626c653a2063616c6c6572206973206e6f7420746865206f776e6572604482015260640161047f565b6109d66000610f6d565b565b610a16604051806080016040528060008152602001600081526020016000815260200160006fffffffffffffffffffffffffffffffff191681525090565b604051633d53a26b60e11b815262ffffff831660048201523060248201526000907f00000000000000000000000000000000000000000000000000000000000000006001600160a01b031690637aa744d69060440161010060405180830381865afa158015610a89573d6000803e3d6000fd5b505050506040513d601f19601f82011682018060405250810190610aad919061146c565b9050610aed604051806080016040528060008152602001600081526020016000815260200160006fffffffffffffffffffffffffffffffff191681525090565b8151610af890610e2d565b81526020820151610b0890610e2d565b60208201526040820151610b1b90610e2d565b604082015260e0909101516fffffffffffffffffffffffffffffffff1916606082015292915050565b60405163079e02e960e21b815262ffffff821660048201526000907f00000000000000000000000000000000000000000000000000000000000000006001600160a01b031690631e780ba490602401602060405180830381865afa158015610bb0573d6000803e3d6000fd5b505050506040513d601f19601f82011682018060405250810190610bd4919061186a565b62ffffff8316600090815260016020526040812080546001600160a01b0319166001600160a01b038416179055909150610c11620186a084611586565b60ff81166000908152600260205260409020549091506001600160a01b0316610cf857604051631857be3960e11b815260ff821660048201526000907f00000000000000000000000000000000000000000000000000000000000000006001600160a01b0316906330af7c729060240161026060405180830381865afa158015610c9f573d6000803e3d6000fd5b505050506040513d601f19601f82011682018060405250810190610cc391906118c4565b60c0015160ff8316600090815260026020526040902080546001600160a01b0319166001600160a01b03909216919091179055505b60ff811660009081526002602090815260409182902054825162ffffff871681526001600160a01b038681169382019390935291168183015290517f5222a91cec499c7c85c5fcb8b8ddfb81880ec40273d8cda372740d8a97fa6ec79181900360600190a1505050565b6000546001600160a01b03163314610dbc5760405162461bcd60e51b815260206004820181905260248201527f4f776e61626c653a2063616c6c6572206973206e6f7420746865206f776e6572604482015260640161047f565b6001600160a01b038116610e215760405162461bcd60e51b815260206004820152602660248201527f4f776e61626c653a206e6577206f776e657220697320746865207a65726f206160448201526564647265737360d01b606482015260840161047f565b610e2a81610f6d565b50565b600068010000000000000000610e4f670de0b6b3a7640000600f85900b611a2e565b6103e59190611a5e565b604080516001600160a01b038416602482015260448082018490528251808303909101815260649091019091526020810180517bffffffffffffffffffffffffffffffffffffffffffffffffffffffff1663a9059cbb60e01b179052610ec0908490610fbd565b505050565b600080670de0b6b3a7640000610ee46801000000000000000085611a2e565b610eee9190611a5e565b90506f7fffffffffffffffffffffffffffffff198312801590610f2157506f7fffffffffffffffffffffffffffffff8313155b6103e55760405162461bcd60e51b815260206004820152601360248201527f726573756c74206f7574206f662072616e676500000000000000000000000000604482015260640161047f565b600080546001600160a01b038381166001600160a01b0319831681178455604051919092169283917f8be0079c531659141344cd1fd0a4f28419497f9722a3daafe3b4186f6b6457e09190a35050565b6000611012826040518060400160405280602081526020017f5361666545524332303a206c6f772d6c6576656c2063616c6c206661696c6564815250856001600160a01b031661108f9092919063ffffffff16565b805190915015610ec0578080602001905181019061103091906115cc565b610ec05760405162461bcd60e51b815260206004820152602a60248201527f5361666545524332303a204552433230206f7065726174696f6e20646964206e6044820152691bdd081cdd58d8d9595960b21b606482015260840161047f565b606061109e84846000856110a8565b90505b9392505050565b6060824710156111095760405162461bcd60e51b815260206004820152602660248201527f416464726573733a20696e73756666696369656e742062616c616e636520666f6044820152651c8818d85b1b60d21b606482015260840161047f565b6001600160a01b0385163b6111605760405162461bcd60e51b815260206004820152601d60248201527f416464726573733a2063616c6c20746f206e6f6e2d636f6e7472616374000000604482015260640161047f565b600080866001600160a01b0316858760405161117c9190611a8c565b60006040518083038185875af1925050503d80600081146111b9576040519150601f19603f3d011682016040523d82523d6000602084013e6111be565b606091505b50915091506111ce8282866111d9565b979650505050505050565b606083156111e85750816110a1565b8251156111f85782518084602001fd5b8160405162461bcd60e51b815260040161047f919061184c565b803562ffffff8116811461122557600080fd5b919050565b60006020828403121561123c57600080fd5b6110a182611212565b8015158114610e2a57600080fd5b6000806040838503121561126657600080fd5b61126f83611212565b9150602083013561127f81611245565b809150509250929050565b6000806040838503121561129d57600080fd5b82359150602083013561127f81611245565b600080604083850312156112c257600080fd5b823591506112d260208401611212565b90509250929050565b61ffff81168114610e2a57600080fd5b6000806000806080858703121561130157600080fd5b61130a85611212565b9350602085013592506040850135611321816112db565b9150606085013563ffffffff8116811461133a57600080fd5b939692955090935050565b60ff81168114610e2a57600080fd5b60006020828403121561136657600080fd5b81356110a181611345565b6001600160a01b0381168114610e2a57600080fd5b60006020828403121561139857600080fd5b81356110a181611371565b601f8201601f1916810167ffffffffffffffff811182821017156113d757634e487b7160e01b600052604160045260246000fd5b6040525050565b604051610260810167ffffffffffffffff8111828210171561141057634e487b7160e01b600052604160045260246000fd5b60405290565b8051600f81900b811461122557600080fd5b805167ffffffffffffffff8116811461122557600080fd5b8051611225816112db565b80516fffffffffffffffffffffffffffffffff198116811461122557600080fd5b600061010080838503121561148057600080fd5b6040519081019067ffffffffffffffff821181831017156114b157634e487b7160e01b600052604160045260246000fd5b816040526114be84611416565b81526114cc60208501611416565b60208201526114dd60408501611416565b60408201526114ee60608501611416565b60608201526114ff60808501611428565b608082015261151060a08501611440565b60a082015261152160c08501611440565b60c082015261153260e0850161144b565b60e0820152949350505050565b60006020828403121561155157600080fd5b6110a182611416565b634e487b7160e01b600052601260045260246000fd5b634e487b7160e01b600052601160045260246000fd5b600062ffffff8084168061159c5761159c61155a565b92169190910492915050565b6000602082840312156115ba57600080fd5b5051919050565b805161122581611245565b6000602082840312156115de57600080fd5b81516110a181611245565b808201808211156103e5576103e5611570565b60005b838110156116175781810151838201526020016115ff565b50506000910152565b600081518084526116388160208601602086016115fc565b601f01601f19169290920160200192915050565b6040815261166260408201845162ffffff169052565b600060208401516116786060840182600f0b9052565b50604084015161ffff8116608084015250606084015163ffffffff811660a084015250608084015163ffffffff811660c08401525060a084015163ffffffff811660e08401525060c08401516101006116db818501836001600160a01b03169052565b60e086015191506101206116f381860184600f0b9052565b9086015191506101409061170b85830184600f0b9052565b8601516101608581019190915290860151915061018090611736828601846001600160a01b03169052565b8601516101a0858101919091529086015191506101c09061175c8286018461ffff169052565b8601516101e0858101529150611776610220850183611620565b908601516001600160a01b03166102008501528381036020850152905061179d8185611620565b95945050505050565b600060033d11156117bf5760046000803e5060005160e01c5b90565b600060443d10156117d05790565b6040516003193d81016004833e81513d67ffffffffffffffff816024840111818411171561180057505050505090565b82850191508151818111156118185750505050505090565b843d87010160208285010111156118325750505050505090565b611841602082860101876113a3565b509095945050505050565b6020815260006110a16020830184611620565b805161122581611371565b60006020828403121561187c57600080fd5b81516110a181611371565b805161122581611345565b8051600381900b811461122557600080fd5b80516fffffffffffffffffffffffffffffffff8116811461122557600080fd5b600061026082840312156118d757600080fd5b6118df6113de565b6118e8836115c1565b81526118f660208401611887565b602082015261190760408401611887565b604082015261191860608401611892565b606082015261192960808401611887565b608082015261193a60a08401611440565b60a082015261194b60c0840161185f565b60c082015261195c60e08401611428565b60e082015261010061196f818501611416565b9082015261012061198184820161185f565b90820152610140611993848201611416565b908201526101606119a5848201611416565b908201526101806119b7848201611416565b908201526101a06119c9848201611416565b908201526101c06119db848201611416565b908201526101e06119ed8482016118a4565b908201526102006119ff8482016118a4565b90820152610220611a118482016118a4565b90820152610240611a23848201611416565b908201529392505050565b80820260008212600160ff1b84141615611a4a57611a4a611570565b81810583148215176103e5576103e5611570565b600082611a6d57611a6d61155a565b600160ff1b821460001984141615611a8757611a87611570565b500590565b60008251611a9e8184602087016115fc565b919091019291505056fea2646970667358221220f5028efbafba07dbbb1389174b207970f63392d1b2a79348546cc0d7af138a6664736f6c63430008130033",
  "linkReferences": {},
  "deployedLinkReferences": {}
}